:1000000000000320D1010000798F0000318F000033
:10001000318F0000318F0000318F0000318F0000E0
:10002000318F0000318F0000318F0000798F000088
:10003000798F0000318F000089B300008DB400007B
:10004000798F0000798F0000798F0000798F000090
:10005000798F0000798F0000798F0000798F000080
:10006000798F0000798F0000798F0000798F000070
:10007000798F0000798F0000798F0000798F000060
:10008000798F0000798F0000798F0000798F000050
:10009000798F0000798F0000798F0000798F000040
:1000A000C9720000D5720000798F0000798F0000BE
:1000B000798F0000798F0000798F000089BB0000E4
:1000C000798F00009D9C0000798F0000F19E000058
:1000D000798F0000B5BC0000798F0000798F000097
:1000E000798F0000798F0000798F0000798F0000F0
:1000F000798F0000798F0000798F0000798F0000E0
:1001000079B500008DB50000A1B50000B5B50000BF
:10011000798F00007DA10000798F0000798F0000A9
:10012000798F0000798F0000798F0000798F0000AF
:10013000798F0000798F0000798F0000798F00009F
:10014000798F0000798F0000ADBD0000798F00002D
:10015000798F0000798F0000798F0000798F00007F
:10016000798F0000798F0000E17200008980000023
:10017000B980000095800000B5800000B1800000CB
:10018000A1800000798F0000798F0000798F000036
:10019000798F0000798F0000A5BE0000798F0000E4
:1001A000798F0000798F0000798F0000ED720000D8
:1001B000798F0000798F0000BD800000ED80000085
:1001C000C9800000E9800000E5800000D5800000C3
:1001D0005C4B4CF2205210B51A804DF628121A8052
:1001E00000BF00BF08F0CCFE574B4FF030621A60E2
:1001F000564A9A60564ADA60564B4FF470021A60BB
:10020000554B564A1A60564B1A78110703D51A787F
:1002100042F008021A70534B5349AA221A70534AEB
:10022000534B8B4204D252F8040F43F8040BF8E707
:10023000504B514900228B4202D243F8042BFAE77B
:100240004E494F4A002352F8230041F8230001335E
:10025000742BF8D14B4B4C4A802103F8011B93427D
:10026000FBD14A4B454A1A60494B8A221A70A3F5C2
:10027000805324225A70A0221A709A799207FCD5D2
:100280009A79D406FCD4434A937903F00C03082BE3
:10029000FAD1414B60221A7002331A78802AFCD1BD
:1002A0003C4B01221A715D225A719A799006FCD555
:1002B0009979384A4906FBD5384B394919600021EC
:1002C000596020231370937903F00C030C2BFAD19F
:1002D000344B354A1A60354A354C136813F4807331
:1002E00003D123604FF4A8531360324B324A1A6093
:1002F00000225A60072243F8042C304AC3F80C2D20
:1003000062B609F0CFFA2368DA0705D52C4808F061
:10031000D1FF2C4B2C4A1A602C4B1B785B0609D55D
:10032000284C294B22689A4204D1254808F0C2FF84
:10033000002323600CF0F8FA08F028FE0BF05AFBBB
:10034000FEE700BF0E20054030800440823F0400DD
:100350000100002B88ED00E0002008E0030000858C
:1003600002D0074000E00740E045FF1FBC2F01001E
:100370003007FF1FE045FF1F00DAFF1F0002FF1FCD
:100380000000000000E400E064E400E008ED00E0AC
:10039000005006400040064001E007404480044011
:1003A0000000060204800440C010070010D0034083
:1003B00014D0034014E000E01FBF02000000202022
:1003C0007753BA5E1CE00340A5C3945A00F007407F
:1003D000FFFFFFFFFFFFFFFFFFFFFFFFFFFFFFFF2D
:1003E000FFFFFFFFFFFFFFFFFFFFFFFFFFFFFFFF1D
:1003F000FFFFFFFFFFFFFFFFFFFFFFFFFFFFFFFF0D
:10040000FFFFFFFFFFFFFFFFFFFFFFFFDEF9FFFF23
:1004100010B5054C237833B9044B13B10448AFF33E
:1004200000800123237010BDE045FF1F0000000085
:10043000B82F0100084B10B51BB108490848AFF3AD
:1004400000800848036803B910BD074B002BFBD0A0
:10045000BDE81040184700BF00000000E445FF1F42
:10046000B82F0100E045FF1F00000000704700BFEB
:10047000014808F003B900BF5C48FF1F10B50446EF
:100480000BF058F8204610BD38B5054CA4F5A875FA
:100490002046103C0BF02CF9AC42F9D138BD00BF1E
:1004A000AC6CFF1F10B5044B044640F81C3B0BF02E
:1004B0001FF9204610BD00BFD0290100C36A23B137
:1004C000026B93429CBF0023037508F085B800BF00
:1004D00008B509F071F9034B1860BDE8084008F051
:1004E000E3BE00BF586DFF1F08B509F065F9044B66
:1004F0000449186003220920BDE8084008F014BE32
:10050000CC6DFF1F0905000008B509F055F90D4B2A
:100510000D4A1B681288C01A824211D2092008F0C5
:100520007FFE0A4A0A4B106842081344B3FBF0F0FE
:1005300009F06EFA002009F0DFFA064B01221A706A
:1005400008BD00BFCC6DFF1F686BFF1FEC1AFF1FBB
:10055000002A7515FD45FF1F704700BF704700BF9B
:10056000214B10B45A6E1368506819780478507A89
:10057000137A044201EA03011BD0937A03F00303C8
:1005800009B143F0040343F008039910013B917251
:100590000D2B0BD8DFE803F021071B070A152121DB
:1005A000150A071B0721D368013BD3605DF8044B94
:1005B0007047937A03F003030029E6D043F0040365
:1005C000E3E7D3685DF8044B023BD3607047D36820
:1005D0005DF8044B0233D3607047D3685DF8044B79
:1005E0000133D360704700BF286EFF1F214B10B44A
:1005F0001A6F1368506819780478507A137A044295
:1006000001EA03011BD0937A03F0030309B143F01D
:10061000040343F008039910013B91720D2B0BD892
:10062000DFE803F021071B070A152121150A071B24
:100630000721D368013BD3605DF8044B7047937A80
:1006400003F003030029E6D043F00403E3E7D36893
:100650005DF8044B023BD3607047D3685DF8044BF0
:100660000233D3607047D3685DF8044B0133D36025
:10067000704700BF286EFF1F70B5044608460D4640
:100680000CF0BEFF23680246294620465B68BDE8A1
:100690007040184738B5044608460D460CF0B0FFC8
:1006A0002368024629465B6820469847054620464F
:1006B0000AF0B0FF284438BD38B50A2200230546A9
:1006C0000AF0CEFF044628460AF0A4FF204438BDB5
:1006D00038B505460BF004F8044628460AF09AFFA0
:1006E000204438BD38B50121022009F05FF801210E
:1006F000052009F05BF801211F2009F057F80121BE
:100700001A2009F053F801211B2009F04FF80221AB
:10071000182009F04BF80121232009F047F80121A6
:10072000242009F043F80121252009F03FF8012198
:10073000262009F03BF80121272009F037F8002195
:10074000092009F033F80021152009F02FF80121C4
:100750001A2009F017F801211B2009F013F80121D4
:10076000052009F00FF80021022009F00BF8002104
:10077000242009F007F80021252009F003F8104C87
:100780000021262008F0FEFF2720002108F0FAFFB4
:10079000651D102001E014F9010FC0B2012109F01C
:1007A00005F8A542F7D1074C4220651D01E014F978
:1007B000010FC0B2002108F0F9FFAC42F7D138BDFB
:1007C0003011010054240100A0F141030246D8B2C7
:1007D00019280FD9A2F16103192B0CD9A2F130030A
:1007E000092B0CD92B2A04D02F2A0CBF3F20FF2025
:1007F00070473E207047A2F14700C0B27047101DFD
:10080000C0B2704738B50146054600E02146087879
:100810004C1CFFF7D9FF3F28F8D9491B880801F085
:100820000301022900EB400004D0032901D102306A
:1008300038BD38BD013038BD2DE9F84389468046C2
:10084000FFF7E0FF0228064636D908F1040409F153
:100850000305022714F8040CFFF7B6FF014614F84D
:10086000030CFFF7B1FF001140EA810005F8030C0B
:1008700014F8030CFFF7A8FF014614F8020CFFF769
:10088000A3FF801040EA011005F8020C14F8020CD6
:10089000FFF79AFF014614F8010CFFF795FF0337A5
:1008A00040EA8110BE4205F8010CA046A94604F1B9
:1008B000040405F10305CDD81D4BA3FB06235B08FB
:1008C00003EB4303F31A012B20D0022B1BD198F822
:1008D0000000FFF779FF014698F80100FFF774FF69
:1008E000001140EA810089F8000098F80100FFF744
:1008F0006BFF014698F80200FFF766FF801040EAA0
:10090000011089F801003046BDE8F88398F800002E
:10091000FFF75AFF014698F80100FFF755FF001155
:1009200040EA810089F800003046BDE8F88300BF46
:10093000ABAAAAAAF8B5174E174F184D184C314656
:1009400038463E2207F024FE2946F0873E223846EC
:1009500007F01EFE2146E8873E22384607F018FEC3
:100960004022E0871146304608F050FA28464022DF
:10097000802108F04BFA20464022C02108F046FAB8
:100980000F2108480AF01EFB0748BDE8F8400AF0AE
:1009900041BE00BF346AFF1F2C48FF1F746AFF1F4F
:1009A000D46DFF1F741101002C3BFF1FFFF7C2BF66
:1009B0002DE9F8433B4C671CC7F1410604F14005A3
:1009C000301908F0DBF904F8010FA542F8D1364CD4
:1009D00004F10108C8F1810604F14005301908F05E
:1009E000CDF904F8010FA542F8D1304C04F101090A
:1009F000C9F1C10604F14005301908F0BFF904F847
:100A0000010FAC42F8D13E2229492A4807F0C0FD27
:100A100097F83F2097F83E40C3B29A422AD000246C
:100A20003E2225492348254D07F0B2FD98F83E1097
:100A300098F83F600346C3F30F22914218BF002489
:100A4000DBB23E221B4829469E4218BF002407F015
:100A50009FFD99F83E20C0F30F239A4211D0362112
:100A600017480AF0AFFA002416480AF0D3FD2046D2
:100A7000BDE8F883C0F30F20041BB4FA84F46409C2
:100A8000CEE795F83F30C0B28342E8D1002CE6D0E3
:100A900036210D480AF096FA0A480AF0BBFD2046B6
:100AA000BDE8F883336AFF1F736AFF1FD36DFF1F12
:100AB000346AFF1F2C48FF1F746AFF1FD46DFF1F8D
:100AC000BC1101002C3BFF1F8411010000B5134A2B
:100AD000134B1268134883B00192019A1A600AF00E
:100AE00083FF00280CDD104B104801221D211A70D5
:100AF0000AF068FA0E480AF08DFD03B05DF804FBB9
:100B00001E210C480AF05EFA09480AF083FD064BE4
:100B100000221A7003B05DF804FB00BFA0D5FF1FD0
:100B20008C58FF1F1447FF1F546DFF1FF411010065
:100B30002C3BFF1F1412010084B010B582B00DF1E0
:100B4000100E9DF828408EE80F0044B1012C30D0E3
:100B5000022C15D002B0BDE8104004B070477146B9
:100B60001A4807F07FF81A4B1A491A6801321A60BE
:100B70001868C1F8290002B0BDE8104004B0704701
:100B80009DF81E209DF81F3008AC014602F00102BE
:100B90000094114804F072FE104B0E491A6801329D
:100BA0001A601868C1F8310002B0BDE8104004B006
:100BB000704704A90A4807F055F80A4B05491A6816
:100BC00001321A601868C1F82D00C3E77C6FFF1F5F
:100BD000186EFF1F746AFF1F6859FF1FB86DFF1F53
:100BE00064A2FF1F1C6EFF1F10B590F8612000EB80
:100BF00082030446D3F86439A36400F15801104419
:100C000002F12C0390F8620084F8570004EBC30350
:100C100084B053F8020F5B68E36594F83430A06544
:100C200013B11D4B1B780BBB94F86010E36B914222
:100C300098BF002203F1010398BF84F861208B4222
:100C400024BF002284F834206268A16BE36302FBB6
:100C500003F38B4204D300220123E26384F834308F
:100C6000204604B0BDE8104007F0BEBC03C994F8AC
:100C7000443002938DE8030004F148030FCBFFF7E3
:100C80005BFF94F86120236B0132D2B2013384F808
:100C900061202363C8E700BFC96DFF1F2DE9F04F36
:100CA000B748BFB00AF046FC0021B64807F09AFDED
:100CB0003EAF802211901EA900230446B2480AF0DC
:100CC00079FE3B2327F8B03D1EA839460CF03AFDCB
:100CD000014613A80AF04CFD394600200CF032FD05
:100CE000002800F019820BF00BFE00281FFA84FA8E
:100CF000C0F2AE810AF10104A042A8BF204603B2AF
:100D00000F93394600200CF01DFD002800F0E6810D
:100D10000BF0F6FD002840F39E81FF28A8BFFF20BE
:100D2000C3B20D900E93394600200CF00BFD002845
:100D300000F0DE810BF0E4FD0028C0F290810D9BF5
:100D4000013B8342A8BF03469B46394600200CF076
:100D5000F9FC002800F0AE810BF0D2FD0228A8BFFC
:100D6000022020EAE0795FFA89F3394600201093E7
:100D70000CF0E8FC002800F0C58100210A220CF0EC
:100D800081FE824B1B68834238BF034639460020F0
:100D900098460CF0D7FC002800F0968100210A222A
:100DA0000CF070FE39460B9000200CF0CBFC0028B4
:100DB00000F0BC8100210A220CF064FE39460C9040
:100DC00000200CF0BFFC002800F056810BF098FDCD
:100DD0006F4EB37B80F3010060F3000339460020BF
:100DE000B3730CF0AFFC002800F0598110220021F1
:100DF0000CF048FE3060394600200CF0A3FC0028BF
:100E000000F030810BF07CFD0828A8BF082020EA04
:100E1000E070F07310B35F4D00240AE00CF068FD41
:100E200080F308002870F37B0134A34205F101052B
:100E300014DD394600200CF085FC1022002100282A
:100E4000ECD1FF232B702246534954480AF0FAFB99
:100E5000F37B0134A34205F10105EADC0F9C17A9DD
:100E60000023192213A80AF0A5FD544580F2A6809C
:100E700017AB22464A4949484A4D0AF0E3FB0C9A0F
:100E8000B37BF07B05920B9A0492CDF80C80CDF8E1
:100E9000089031680D9A009203F0010306930890C0
:100EA00007912346CDF804B017AA3F493B480AF002
:100EB000C9FBF37B013B002B0DDDDFF8F890002729
:100EC00019F8012F394935480AF0BCFBF37B01378B
:100ED000013BBB42F4DC334435491A7C2F480AF00D
:100EE000B1FB55F824309DF8401093F8562096F841
:100EF0000EE083F84410F77B306883F8577003EBFB
:100F00008B016EF3000283F85620C1F8640977B1B3
:100F100028494FEACB00002255F8243011F8016F20
:100F2000034413440132974283F86261F4D155F8C7
:100F300024009DF8382080F860200023026880F8A3
:100F400061300C991268C1620363C363C0F84080CA
:100F50004146904755F824000B9B836313A91C302E
:100F60000AF068FC47F22F52134905480AF098FA34
:100F700013A80AF0BDFB20463FB0BDE8F08F00BFCC
:100F80003C6DFF1F5C48FF1F1447FF1F001BFF1F26
:100F9000C06CFF1FD06CFF1F441401002C3BFF1FCF
:100FA000A0140100B459FF1FBC1401001815010062
:100FB00020150100CF6CFF1F71040000BDF94440F3
:100FC0005F496048604D17AB22460AF03BFB40F694
:100FD00064500AF017FD40F66452002107460CF0F9
:100FE00027F8002211463846924607F00FFB574B70
:100FF0003B60012387F8343087F8603051464FF466
:10100000807207F16200C7F830A0C7F838A0C7F8AF
:101010003CA0C7F840A087F844A087F861A00CF076
:1010200007F851464FF4006207F5B1700CF000F874
:1010300051464FF4806207F664100BF0F9FF394611
:10104000434807F08FFB87F814A045F8247016E793
:1010500000230F9355E601230E930D9363E64FF0A3
:10106000000B72E638213B4809F0ACFF35480AF026
:10107000D1FA0823F373CEE63221374E374809F010
:10108000A1FF30480AF0C6FAB37B394643F00103AA
:101090000020B3730CF056FB00287FF4A7AE362176
:1010A0002F4809F08FFF27480AF0B4FA6FF0404349
:1010B0003360A0E62D212B4809F084FF21480AF077
:1010C000A9FA6FF0030453E73321274809F07AFFA8
:1010D0001C480AF09FFA6FF0050449E742212348B3
:1010E00009F070FF17480AF095FA6FF001043FE726
:1010F00023211F4809F066FF12480AF08BFA6FF0AF
:10110000020435E734211B4809F05CFF0D480AF062
:1011100081FA6FF004042BE72621174809F052FFEB
:1011200008480AF077FA4FF0FF3421E738211348D6
:1011300009F048FF03480AF06DFA6FF0060417E75C
:10114000881401002C3BFF1FB459FF1F241101001C
:101150005C48FF1F08140100C06CFF1F9C130100B6
:10116000D0130100C41201002C1301005C12010015
:10117000A0120100F41201003412010060130100FA
:1011800008B500210D4807F02DFB00280CDD00F10B
:1011900080410B4B013903EB81010020043B53F8E4
:1011A000042F8B421075FAD12221064809F00AFF5C
:1011B0000548BDE808400AF02DBA00BF5C48FF1F93
:1011C000B459FF1F281501002C3BFF1F2DE9F041EA
:1011D0000021134807F006FB012814DD114EDFF84B
:1011E00050800746012556F8044F0135204644B18A
:1011F00040F81C8B0AF07CFA204640F664510AF055
:1012000003FCAF42EFD1064807F0D8FA4821064860
:1012100009F0D8FE0548BDE8F0410AF0FBB900BF6F
:101220005C48FF1FB459FF1F4C1501002C3BFF1FEA
:10123000D029010010B500210F4807F0D3FA00288B
:1012400011DD0E4A00F18040013802EB80000124DC
:10125000043A002152F8043F82421C75196383F856
:101260006110D963F6D12321054809F0ABFE05488A
:10127000BDE810400AF0CEB95C48FF1FB459FF1F0B
:10128000981501002C3BFF1FF0B5002185B02448C4
:1012900007F0A8FA051E32DD0A2201A90023214821
:1012A0000AF088FB204B1B68ADF8003069461B0C28
:1012B00001A88DF802300CF045FA0BF021FB002854
:1012C0001FDB013DA842A8BF28460446694600200E
:1012D0000CF038FA0BF014FB0028144B13DD53F814
:1012E000245013491348D5F86439002601272246B3
:1012F0002F752E6385F86160EE630AF0A3F905B0DF
:10130000F0BD0024E2E753F824500B49D5F86439C6
:101310000848002622462E750AF094F905B0F0BD63
:101320005C48FF1F1447FF1F0C160100B459FF1F34
:10133000BC1501002C3BFF1FE415010030B9084A21
:10134000084B92E80300186099807047064A054BE5
:1013500007CA03C323F8022B120C1A70704700BF90
:101360001C160100CC69FF1F10160100013830B4B3
:1013700006282DD8DFE800F00F171F21282A0400C7
:10138000144D154C0FCD0FC495E8030044F8040B21
:10139000217030BC7047114D0F4C0FCD0FC42B681E
:1013A000237030BC70470E4D0B4C0FCD0FC42B6813
:1013B000236030BC70470B4DE3E70B4B064C0FCB63
:1013C00084E80F0030BC7047084DE5E7084DD8E7CA
:1013D000084DE9E7A0160100CC69FF1F24160100A3
:1013E000381601004C160100641601007416010045
:1013F00088160100B81601001A4B1B4A18781B4BBF
:10140000127819781A4B70B51A4C1B7826781A4D39
:101410001A4C2D782478800040EA42020A4342EABE
:10142000C60242EA031242EA431343EA851300214B
:101430001A2043EAC41408F0A5F9114B1A68E4B263
:101440004FF00043D3625463D36A002BFCDA0121CE
:101450001A20936B08F096F90A4B83F83440204623
:1014600070BD00BF9058FF1FD26DFF1F006BFF1FA4
:10147000B46DFF1F2E6DFF1FD06DFF1FB469FF1FDE
:10148000242EFF1F346AFF1FF0B50E4F0E4D0F497B
:101490000F4E104C104A114B00F0010E87F800E07F
:1014A000C0F340072F70C0F38005C0F3C0070D7074
:1014B000C0F30015C0F38011C0093770257011709A
:1014C0001870F0BD006BFF1FD26DFF1F9058FF1FFB
:1014D0002E6DFF1FB46DFF1FD06DFF1FB469FF1F7E
:1014E000F8B51B4B1B4A19781B4B17781B4A187809
:1014F0001B4B12781B4C1B781B4D24781B4E2D78F0
:10150000890041EA4701014341EAC20242EA03126B
:1015100042EA4413347843EA851300211B2043EA4E
:10152000C41408F02FF9124B1A68E4B24FF00043CC
:10153000D3625463D36A002BFCDA01211B20936B26
:1015400008F020F90B4B83F82F402046F8BD00BF70
:10155000F52DFF1F181BFF1FF01AFF1F096BFF1F40
:101560002847FF1FF86AFF1F0D2EFF1FC86DFF1FC2
:10157000242EFF1F346AFF1FF0B5DFF860E0104F24
:10158000104D1149114E124C124A134B00F0010C30
:101590008EF800C0C0F3400E87F800E0C0F380076B
:1015A0002F70C0F3C005C0F300170D70C0F34015D5
:1015B000C0F38011C0093770257011701870F0BD2C
:1015C000181BFF1FF52DFF1F096BFF1F2847FF1F6B
:1015D000F86AFF1F0D2EFF1FC86DFF1FF01AFF1FB7
:1015E000F0B5234F234E244DDFF8C0E0234B244CAD
:1015F000244A254900F0010C87F800C0C0F3C00C54
:10160000C0F3400786F800C0C0F3801C2F70C0F301
:101610000016C0F380051D4F8EF800C0C0F3C01E39
:101620001D70267082F800E0C0F34014184B194D6D
:101630000C70C0F3402EC0F30022174987F800E079
:10164000C0F380271A702F70144E154C154A164B94
:10165000C0F3C025C0F300370D70C0F34035C0F3B0
:101660008031C00B3770257011701870F0BD00BF4D
:10167000A958FF1FC869FF1FF42DFF1F306AFF1F05
:101680000B1BFF1FA359FF1FF81AFF1FBC6DFF1F85
:10169000246EFF1F2459FF1FBC58FF1F9C59FF1FBA
:1016A000D16DFF1F386DFF1F1247FF1F0C2EFF1F4C
:1016B000431E0F2B30B445D9A0F11103072B35D9A8
:1016C000A0F11903072B48D9A0F12103032B4ED910
:1016D000A0F125030B2B40D9312833D032283CD040
:1016E000A0F133030F2B4DD9A0F14303072B34D9BD
:1016F000A0F14B03022B25D9A0F14D03032B41D9B7
:10170000A0F15103012B52D9A0F15303022B43D96D
:101710005738012821D8284C2849294B002541F267
:1017200088300122256008601A6009E0224C2349B4
:10173000234B002541F28D301422256008601A6089
:1017400030BC70471C4C1D491D4B0025FF20012259
:10175000256008601A6030BC704717481749184A5E
:101760000024012304600B60136030BC7047124CEE
:101770001249134B002541F28D300122256008608B
:101780001A60DDE70C4C0D490D4B002507200122A6
:10179000256008601A60D3E7074C0849084B00250C
:1017A0004FF6FF700122256008601A60C8E7024CFE
:1017B0000249034BF525F3E7346DFF1FFC1AFF1FA9
:1017C0002C1BFF1F30B50E4D0E4CC1B00023284618
:1017D0006946FF220AF0EEF84FF4807268464FF433
:1017E0007A7107F013FB0621074809F0EBFB294645
:1017F000204609F0E9FE204609F00CFF41B030BD5B
:10180000B869FF1F2C3BFF1FCC160100F0B5C5B017
:1018100004AFC7F57A7501350DF10F040DF20F16FF
:10182000281907F0ABFA04F8010FB442F8D13B785D
:10183000FF2B17D03946684609F09AFF69460B48D6
:101840000AF000F8684609F053FF0721084809F03C
:10185000B9FB0649074809F0B7FE064809F0DAFE69
:1018600045B0F0BDFFF7AEFF45B0F0BDB869FF1F52
:10187000D41601002C3BFF1F10B50E480E4C0AF089
:10188000B3F80E4A0E4992F83B300028C7BF01203A
:1018900043F00803002023F0080382F83B3008706F
:1018A00008F014FB00230748074A23700121037046
:1018B000117010BD1447FF1F086BFF1F746AFF1FD4
:1018C000A858FF1FD36DFF1F041BFF1F08B5094851
:1018D0000AF08AF8084A094992F83B300028C7BF45
:1018E0000120034323F00103002082F83B300870FD
:1018F00008BD00BF1447FF1F746AFF1FBC6CFF1FA9
:1019000008B509480AF070F8084A094992F83B30CE
:101910000028CBBF43F0020323F002030120002084
:1019200082F83B30087008BD1447FF1F746AFF1F20
:10193000BD6CFF1F08B509480AF056F8084A094966
:1019400092F83B300028CBBF43F0040323F004039C
:101950000120002082F83B30087008BD1447FF1FAB
:10196000746AFF1FBE6CFF1F2DE9F04F402297B035
:1019700000214D480BF05CFB4C48826812B917B04F
:10198000BDE8F08F002348490DF1180A0AF012F85B
:1019900051464548FEF750FF5FFA80F9B9F1000F54
:1019A000EDD09DF8187007F00F07022FE7DC404ECE
:1019B000002506F110082C463A463E493E4809F0FB
:1019C00041FE16AB1D44631C15F8402C12F0F002CA
:1019D000DBB259D05AF803000590059BB57B374917
:1019E000354823F04043053445F001051A46E4B27A
:1019F0003360B57309F026FE16AB2344304913F863
:101A0000403C2D48082BA8BF08231A46F37309F061
:101A100019FEF27B4FF0FF330134E4B2C8F8003016
:101A2000C8F8043092B1DFF8A4B0002516AB234407
:101A3000244913F8402C20480BF8012F09F002FE2E
:101A4000F37B01350134AB42E4B2EFDC1A4809F014
:101A5000E1FD98E8030002978DE8030096E80F0087
:101A6000FFF76AF8B37B082243F00103A145B37383
:101A7000F27384D916AB2344254613F8407C07F053
:101A80000F07022F98DD7AE73AF80330ADF81430EB
:101A9000BDF81430B57B0C490748C3F30A0303347F
:101AA00062F30005A2E700BF2859FF1F1447FF1F7C
:101AB0008459FF1FA01701002C3BFF1FA81701002E
:101AC000B8170100BC170100B01701009359FF1FA0
:101AD0002DE9F04F6A486B4B84681B68694AADF288
:101AE0001C7DB4F5E06F01934FF00103136080F0AB
:101AF000B78006AFE2183946002309F05BFF624B5E
:101B00002546A4B2A3FB0423E21A03EB52039B086D
:101B1000C3EBC302A21A1FFA83FA92B25FFA8AF3E6
:101B2000002A40F0A9802A46584905A80BF0DCFCA1
:101B30005246564903A80BF0D7FC5549554809F0C1
:101B400089FE554B55491A7804A80BF0CDFC04A921
:101B5000504809F0C1FE52494E4809F0BDFE05A9A2
:101B60004C4809F0B9FE4F494A4809F0B5FE03A9AF
:101B7000484809F0B1FE4C49464809F0ADFEFFF770
:101B80008DF8BAF1000F63D04FF0000846460AF115
:101B9000010946493F4809F05DFE4A46444904A808
:101BA0000BF0A2FC013604A93A4809F095FE324632
:101BB0003F4904A80BF098FC04A9364809F08CFEB4
:101BC0003C49344809F088FE4A46394904A80BF0DC
:101BD0008BFC04A92F4809F07FFE37492D4809F0F6
:101BE0007BFE2D4B2D491A7804A80BF07DFC04A92F
:101BF000284809F071FE3149264809F06DFE324649
:101C0000264904A80BF070FCC6EBC60B04A92148BA
:101C100009F062FEC345444612DDA5421F49D8BF04
:101C20001E494FF0FF0204A8CCBF3A5D04A80BF098
:101C30005BFC013404A9174809F04EFEA345ECD122
:101C4000FFF72CF81E4BB24508F107081860A0D129
:101C50009DF804300B4A13600DF21C7DBDE8F08F37
:101C600006AF394600234FF4E06209F0A3FE4FF0BF
:101C7000000A40F2FF6556E701335FFA83FA52E744
:101C8000B869FF1F001BFF1F25499224C4170100DC
:101C9000CC1701001447FF1F311BFF1FF017010075
:101CA000F81701001C1801000018010010180100AD
:101CB00020180100241801002C1801003818010018
:101CC000446DFF1F70B5FFF703FF0C4C4BF68036D9
:101CD00004F5A87521460A4809F0ACFDFEF7DEFFC1
:101CE0003346013BFDD11034AC42F3D105490448E1
:101CF00009F0B0FDBDE87040FFF79CBA6C6BFF1FA8
:101D00001447FF1FF02101000368C3F30742EF2AC5
:101D100000D87047C3F31123B3F56A4FF9D1028A93
:101D20004FF6EB639A42F4D1134B1B78002BF0D0A3
:101D300010B41249124A0B68146883B041F288301B
:101D40000093009B1B1B834212D90E4809680E4B5F
:101D50000068019153F8203001991160002201219F
:101D6000197583F834101A639A63DA6383F8612073
:101D700003B05DF8044BCCE72C6DFF1FA0D5FF1F0F
:101D8000B06DFF1F446DFF1FB459FF1F84B0F0B545
:101D9000364D87B00CAC84E80F009DF8486006F023
:101DA0009DFA2B789DF83F2003F0030404EB840494
:101DB00006A9A4000134E4B241F8140D2F1902EB76
:101DC0000612086801332B7028513A7107F0F4FCB1
:101DD000274B9DF83E601A680CAB801A53F8102B05
:101DE000029006A942EAC6700A46661D42F80C0D2A
:101DF00031F810ED1068897825F806E004F1080242
:101E0000AF190C34B970A85003CB2B192851596065
:101E10002B781849184A03F00303032B06D00B68EC
:101E20000493049B10681B1A032B1AD9096895F8B0
:101E30003D300591059C0D49146001333E220F4849
:101E400085F83D3006F0A4FB0D4BE887197807486C
:101E500008F0F0FF3D22FF2104480BF0E9F82023B1
:101E60002B7007B0BDE8F04004B07047606DFF1FF5
:101E7000586DFF1FA0D5FF1FD86CFF1F2C48FF1FF8
:101E8000FA6AFF1F2DE9F043002489B0234604A914
:101E90000F221E48069404940594CDF81B4009F0C7
:101EA00089FD04A80AF030FD0A28054608D858B173
:101EB0001C21174809F086F8164809F0ABFB2546A7
:101EC000284609B0BDE8F08306F0A8FA044606F0FB
:101ED00095FA064606F082FA814606F04FFA074662
:101EE00006F05CFA804606F069FACDF8009003909F
:101EF000CDF808800197334622460749054809F086
:101F0000A1FB284609B0BDE8F08300BF1447FF1FBE
:101F1000681801002C3BFF1F3C1801002DE9F0411F
:101F200084B0FFF7AFFF08B3044607F0C3F92046BB
:101F300006F086FA06F072FA044606F05FFA0546E5
:101F400006F04CFA804606F019FA064606F026FA24
:101F5000074606F033FACDF8008003900297019609
:101F60002B4622460349044809F06CFB04B0BDE847
:101F7000F08100BF881801002C3BFF1F08B506F058
:101F8000B3FA03490246BDE80840024809F05ABBCB
:101F9000B41801002C3BFF1F38B50B4D0B4C2846E5
:101FA00005F0EEFD204605F0EBFD43F2482301224B
:101FB0001C210748EA54E25409F004F80548BDE83A
:101FC000384009F027BB00BF7C6FFF1F64A2FF1FD2
:101FD000581901002C3BFF1F10B5074C0748312151
:101FE00008F0F0FF2046064909F0EEFA2046BDE869
:101FF000104009F00FBB00BF2C3BFF1F78190100F8
:10200000B869FF1F124908B58B680B2B13D911480B
:1020100009F010FCFFF7D6FB17210F4808F0D2FF9C
:102020000C490E4809F0D0FA0C4809F0F3FABDE863
:102030000840FFF74DBD1821094808F0C3FF0549C6
:10204000064809F0C1FA0548BDE8084009F0E2BABF
:102050001447FF1FB869FF1FC81901002C3BFF1F61
:10206000AC1901002A4B984248D011D844F620639D
:10207000984241D01BD841F28833984236D042F280
:10208000107398423CD0B0F5805F31D0FF2070478C
:10209000204B984238D018D81F4B984224D01F4B61
:1020A000984227D01E4B9842F0D10920704749F63C
:1020B0004043984214D04CF25033984226D047F611
:1020C00012239842E2D104207047164B984209D05F
:1020D000154B984216D0154B9842D7D10D2070471A
:1020E000062070470F2070470A2070470120704774
:1020F000002070470B20704703207047082070476E
:10210000022070470E2070470C2070470720704750
:102110008038010090D0030048E80100400D030022
:10212000A08601002A2C0A0040420F0020A10700CF
:1021300000B51348836887B083B900931946114AE4
:10214000114805F0A7FB104A43F2E423D058FFF7EB
:1021500089FF0E4B187507B05DF804FB03A9002337
:10216000092209F027FC03A80A2200210BF08AFCAF
:10217000002301460093034A034805F08BFBE2E786
:102180001447FF1F4CD5FF1F7C6FFF1F746AFF1F92
:1021900000B51348836887B083B900931946114A84
:1021A000114805F077FB104A43F2E423D058FFF7BB
:1021B00059FF0E4B587507B05DF804FB03A90023C7
:1021C000092209F0F7FB03A80A2200210BF05AFCB0
:1021D000002301460093034A034805F05BFBE2E756
:1021E0001447FF1F4CD5FF1F64A2FF1F746AFF1F17
:1021F00030B51B481B4D83681B4C2C6085B0ABB9B8
:102200002046FFF72FFF012302460321174803F062
:10221000E5FA20B1164BFE229A7505B030BD28684C
:10222000FFF720FF124B987505B030BD002301A9C0
:10223000092209F0BFFB0A22002101A80BF022FCB1
:102240000C4A234602F1380101E052F8043F98425B
:1022500003D08A42F9D12868D3E72860D1E700BFCC
:102260001447FF1F141BFF1F90D003006859FF1F66
:10227000746AFF1F3811010030B5214883B009F09E
:10228000B3FB00282ADDFFF723FC1E4B1E482B2141
:1022900001241C7008F096FE1C4809F0BBF91C498B
:1022A0001C4A0B680093009B156841F288305B1B49
:1022B000834211D918480968184B0068019153F8F6
:1022C00020300199116000221C7583F834401A6394
:1022D0009A63DA6383F8612003B030BD094B10487C
:1022E00000242C211C7008F06DFE084809F092F9BA
:1022F000094A0A4B126853F822301C7503B030BDEE
:102300001447FF1F2C6DFF1FE01901002C3BFF1F1E
:10231000A0D5FF1FB06DFF1F446DFF1FB459FF1FF5
:102320000C1A010008B505F0D9FF03490246BDE8C3
:102330000840024809F086B93C1A01002C3BFF1FF7
:102340002DE9F843354DDFF8E4802888344B58F800
:102350002020344E92F844405C7092F857109971E6
:1023600040241C7092F860E03188976B146C83F8FD
:102370000FE0C3F80740588002EB8104D06AC3F82D
:102380000B70998018612C31D4F86409586102EB04
:10239000C10103F1180451F8020F496803C4117D0B
:1023A00083F82010116BC3F821100024C3F82540D6
:1023B000C3F82940C3F82D4002F11C00C3F8314096
:1023C0002146C3F83540C3F8394003F1250709F029
:1023D000E3FAB5F8009058F82980D8F82420182A94
:1023E00028BF18220146384606F016FA338898F8B6
:1023F000602001339BB29A4233800DD809F1010964
:102400001FFA89F921460848A5F80090348006F0A3
:10241000E9F98145A8BF2C80BDE8F883101BFF1F98
:10242000B46AFF1F5C6DFF1F5C48FF1FB459FF1F9C
:1024300008B5094809F0D8FA084A094992F83B302A
:102440000028CBBF43F0100323F01003012000202D
:1024500082F83B30087008BD1447FF1F746AFF1FE5
:102460004C6DFF1F08B5094809F0BEFA084A094932
:1024700092F83B300028CBBF63F07F0303F07F036B
:102480000120002082F83B30087008BD1447FF1F70
:10249000746AFF1F291BFF1F2DE9F04107F0BAFBEB
:1024A00020B37C4B1C78002C4ED000227A4D1A7041
:1024B00007F082F92B68C01AB0F57A6F7CD3774C9D
:1024C0000123237014E0764C277807F0B3FB2378C0
:1024D000744A75491278C8550133DBB29A422370A9
:1024E00004D1724B2E70012226701A706A4D6B4C0B
:1024F00007F062F92B684CF25032C01A90421ED994
:102500000123237007F058F92B6842F22832C01AD1
:1025100090425CD90021092007F048F90222644961
:10252000624D092006F000FE62485A49624A0023C3
:102530002B70237003700B701370BDE8F08123784B
:10254000002BDFD1BDE8F0815B4D2E78002E40D10D
:10255000584D2C78002CB6D1544E3378002BC5D072
:1025600007F068FB554A4F49554B12784C4F0D7890
:10257000187002F03F023C7055B14B4C681E631E50
:1025800054FA80F013F8011F98420A44FAD13D70C2
:102590004C484D4F414C404D82FB00011144D31734
:1025A000C3EBE113C3EB0323D31ADB430121002266
:1025B0003B70217032709BE707F03CFBC0B255289E
:1025C0007FF476AF3C4B354C01221A7090E7BDE8A2
:1025D000F08107F02FFB324ADFF8E0E03B4E35494F
:1025E0002C70C0B200F0200300F00F07012514701A
:1025F000C2068EF80000DBB237700D7008D5002BD4
:1026000044D0284B08221A70202807D0224D56E7C4
:10261000002B3BD0234B04221A70F5E72C4DDFF83A
:10262000B8802B782B4A190101332B7098F80030B1
:102630000D270446013114204FF0020ED7701646C4
:10264000517082F802E010701546D71C044433B96B
:10265000AF4209D015F8010F0444002BF8D007F061
:1026600081FA98F80030F3E7164884FB00016018FF
:10267000E217C2EBE010C0EB0020201AC043C0B24A
:102680003071002BC2D007F06DFABFE7054B022274
:102690001A70B9E7FD45FF1FCC6DFF1F4D6BFF1F83
:1026A000B569FF1FBF6CFF1FC06DFF1F1047FF1FE5
:1026B000E9040000F96AFF1F8059FF1F316DFF1FF9
:1026C0002F6DFF1F81808080A159FF1FA259FF1F1E
:1026D000A059FF1F2C47FF1F291BFF1F10B5074CD8
:1026E0000748092108F06EFC2046064908F06CFFF7
:1026F0002046BDE8104008F08DBF00BF2C3BFF1FF7
:10270000641A0100A459FF1FF0B5A949A948AA4DB0
:10271000AA4C8DB009F02CF8A94AAA49A5480AF09C
:10272000E9F8A949A94809F023F8A54AA549A74805
:102730000AF0E0F8A649A74809F01AF8A04AA1490A
:10274000A4480AF0D7F8A449A44809F011F89C4A13
:102750009C49A2480AF0CEF808A8964909F02EF83C
:1027600008A89F4909F0E2F8984909F0D7F89D496F
:1027700009F0DCF8974909F0D1F8994909F0D6F841
:10278000964909F0CBF8984909F0D0F801469748E6
:1027900009F014F808A808F0ABFF894A8949934862
:1027A0000AF0A8F806F09EFA914805F007FF2A689B
:1027B00001929048904B019E066080261E7118463B
:1027C00000267F4A8D491E600AF094F81F218C482C
:1027D00002F0F6FF31468B4808F0CAFF784A794983
:1027E00088480AF087F83146874808F0C1FF744AE4
:1027F000744985480AF07EF82B68029302992B6889
:102800000393039A2B680493804B04981960804BC0
:102810002F6805977F491A607F4B059A1A600860F8
:1028200006F0CAFF7D4B186006F0C6FF2B680693C2
:102830007B4B069F7B492A68186007927A4B079A60
:102840000F601C2002211A6006F0B0FF022119203F
:1028500006F0ACFF754A764BD2F8E010D2F8C820EB
:10286000E66001F5007002F50076206001206660E8
:1028700020726072013BFDD191F8003292F8002283
:102880006C4F6D493C67D20703EA000344BF43F035
:102890000203DBB204221C20A372012606F044FCD2
:1028A000042266497C661920267406F03DFC227CD1
:1028B000634964483244227408F06EFF62496348F9
:1028C00008F06AFF6249634808F066FF624963489E
:1028D00008F062FF6249634808F05EFF624963489E
:1028E00008F05AFF6249634808F056FF624963489E
:1028F00008F052FF6249634808F04EFF624963489E
:1029000008F04AFF6249634808F046FF624963489D
:1029100008F042FF6249634808F03EFF624963489D
:1029200008F03AFF6249634808F036FF624963489D
:1029300008F032FF6249634808F02EFF624963489D
:1029400008F02AFF6249634808F026FF624963489D
:1029500008F022FF6249634808F01EFF184A6249E6
:10296000002009F0C7FF0021604805F0C3FE144AAB
:102970005F495E4809F0BEFF3346324618215D4884
:1029800003F012F906F018FF5B4B5C491B685C4AC8
:10299000086003EB430103EB810308A85949138046
:1029A00008F0E6FE0B4908A808F0B8FFACE000BF4D
:1029B000701A01004C48FF1FA0D5FF1F9458FF1F3D
:1029C0000C08FF1FF1B60000781A0100DC6CFF1F35
:1029D000801A0100AC58FF1F841A0100A06DFF1F70
:1029E0008C1A0100901A0100941A0100B869FF1FA7
:1029F0002C48FF1FD86CFF1F3C6DFF1F7D0400009B
:102A00006859FF1F3048FF1F1447FF1F486DFF1F05
:102A1000206EFF1FF46AFF1F8C58FF1F506DFF1FB1
:102A2000586DFF1FB06DFF1F2447FF1F642A010070
:102A3000C0D40100286EFF1FED05000061050000F5
:102A4000A01A01006C6BFF1FFC1A01007C6BFF1FBA
:102A5000581B01008C6BFF1FB01B01009C6BFF1FFC
:102A6000081C0100AC6BFF1F601C0100BC6BFF1F4A
:102A7000B81C0100CC6BFF1F101D0100DC6BFF1F99
:102A8000681D0100EC6BFF1FC01D0100FC6BFF1FE8
:102A9000181E01000C6CFF1F701E01001C6CFF1F34
:102AA000C81E01002C6CFF1F201F01003C6CFF1F83
:102AB000781F01004C6CFF1FD01F01005C6CFF1FD2
:102AC000282001006C6CFF1F802001007C6CFF1F20
:102AD000D82001008C6CFF1F302101009C6CFF1F6F
:102AE00088210100AC6CFF1F890400005C48FF1FB7
:102AF000A5040000C058FF1FF41AFF1FCC6DFF1F74
:102B0000686BFF1FE02101000C4908F00FFF0C4922
:102B100008F00CFF01460B4808F050FE08A808F02A
:102B2000E7FD094A0949074809F0E4FE2B680893C4
:102B3000089A074B1A600DB0F0BD00BF8C1A010057
:102B4000EC210100A459FF1F0C08FF1FF1B6000083
:102B5000046BFF1FF0B5594E594C83B005463A211E
:102B6000584808F02FFA002310222946304608F072
:102B700077FD304608F04EFD2946204603F0F8FC6C
:102B80002046802103F01CF920460021002603F096
:102B900017F92046102103F013F9627B2169009692
:102BA0000123204603F0F6FF2946204603F0E0FC0F
:102BB0002046802103F004F90127627B21690096F9
:102BC0002046012303F0E6FF2A460223617B2069A9
:102BD0000196009703F0F4FF206904F00BF82069D8
:102BE00004F008F82946204603F0C2FC2046602184
:102BF00003F0E6F82046FF2103F0E2F82046FF212B
:102C000003F0DEF8627B216900963B46204603F024
:102C1000C1FF2946204603F0ABFC2046602103F0AB
:102C2000CFF8627B216900963B46204603F0B2FF55
:102C30002A460223617B20690196009703F0C0FFBA
:102C4000206903F0D7FF206903F0D4FF294620460E
:102C500003F08EFC2046402103F0B2F820461F21ED
:102C600003F0AEF82046FF2103F0AAF8627B216949
:102C700000963B46204603F08DFF2946204603F090
:102C800077FC2046402103F09BF8627B2169009687
:102C90003B46204603F07EFF617B206901962A4671
:102CA0000223009703F08CFF206903F0A3FF206943
:102CB00003B0BDE8F04003F09DBF00BF2C3BFF1FF9
:102CC000506FFF1FF4210100F0B507EE900A2DEDC3
:102CD000028B374C9FED378AF8EEE77A87B00E46C5
:102CE00020461146174627EE888A03F041FC06F17C
:102CF0002001C9B2204603F063F8FCEEC87A2046F2
:102D0000CDED037ABDF80C50C5F3071103F058F868
:102D1000290101F0F0010025204603F051F8627B03
:102D2000216900950123204603F034FF39462046EF
:102D300003F01EFC06F11001C9B2204603F040F872
:102D4000627B216900952046012303F023FF0123C4
:102D50003A46617B019500932069022303F030FF1E
:102D6000206903F047FF0546206903F043FF2D016A
:102D7000C0F3031005F47F652B1807EE903A9FED22
:102D80000E7A0E4BF8EEE77A06AA67EE877A03EB27
:102D90004606FCEEE77ACDED037ABDF80C0022F88A
:102DA000020D1388A6F8113007B0BDEC028BF0BD00
:102DB000506FFF1F8DC34F3FAFB79D3F346AFF1F5A
:102DC000394B3A4A18783A4B12781978394BF0B5A2
:102DD000394C3A4D27781B78394C2E78394D247868
:102DE000800040EA42020A4342EAC70242EA031371
:102DF00043EA46132A78344E344D43EA841485B0AE
:102E000044EAC2143046232103F0B2FBE4B2304658
:102E1000122102F0D5FF00272146304602F0D0FFF4
:102E2000727B316900973046012303F0B3FE284BD3
:102E3000284A1878284B12781978284B95F800E022
:102E40001B78800040EA420225480A43254905785C
:102E50002548097842EACE0242EA031343EA4513C1
:102E6000027843EA811545EAC2153046232103F072
:102E70007FFBEDB23046132102F0A2FF2946304617
:102E800002F09EFF727B316900973046012303F008
:102E900081FE04AB04EB052423F8024D134A1B8882
:102EA000A2F8213005B0F0BD306AFF1FF42DFF1FDE
:102EB000A958FF1F0B1BFF1FC869FF1FF81AFF1F30
:102EC0000C2EFF1FA359FF1F506FFF1FBC58FF1F81
:102ED0002459FF1FBC6DFF1F246EFF1F9C59FF1F4D
:102EE000D16DFF1F386DFF1F1247FF1F346AFF1F90
:102EF000F0B53D4C072805460E4683B04FF027013C
:102F0000204661D803F034FB01271221204602F04D
:102F100057FF07FA05F1C943C9B2204602F050FF36
:102F20004FF0000E627B2169CDF800E03B46204661
:102F300003F030FE012006F063FC2C4B1B684FF0C1
:102F400000414022D9625A63DA6A002AFCDA06F1AB
:102F50000801C9B24FF00042986BDA625963DA6A2D
:102F6000002AFCDA4FF000414C22986BD9625A6378
:102F7000DA6A002AFCDA4FF00041FF22986BD9622E
:102F80005A63DA6A002AFCDA986B072DC6B24FF052
:102F90002701154824D903F0EBFA1321124802F057
:102FA0000FFFFF21104802F00BFF00230093627B0C
:102FB00021690D48012303F0EDFD0D4B1D4406F082
:102FC0000700687003B0F0BD03F0D2FA1321204669
:102FD00002F0F6FE0127A5F1080107FA01F19AE7D0
:102FE00003F0C6FA1221D9E7506FFF1F242EFF1FEE
:102FF000746AFF1FF0B53B4C072805460E4683B0A8
:103000004FF0270120465DD803F0B2FA01271221C4
:10301000204602F0D5FE07FA05F1C943C9B22046A1
:1030200002F0CEFE4FF0000E627B2169CDF800E089
:103030003B46204603F0AEFD012006F0E1FB2A4BA3
:103040001B684FF000410022D9625A63DA6A002AF5
:10305000FCDA4FF00042996BDA625E63DA6A002AAA
:10306000FCDA4FF000410C22986BD9625A63DA6A9D
:10307000002AFCDA4FF00041FF22986BD9625A63B4
:10308000DA6A002AFCDA9E6B1648072DF6B24FF07A
:10309000270123D903F06CFA1321124802F090FEA5
:1030A000FF21104802F08CFE00230093627B21690F
:1030B0000C48012303F06EFD0C4B1D4430466E702E
:1030C00003B0F0BD03F054FA1321204602F078FE5D
:1030D0000127A5F1080107FA01F19EE703F048FA7C
:1030E0001221DAE7506FFF1F242EFF1F346AFF1FE3
:1030F00070B51E4C054682B00E462046294603F0A8
:1031000037FA4021204602F05BFE46F0F8012046E7
:10311000002602F055FE627B2169009601232046BD
:1031200003F038FD0123617B00932A4602232069C6
:10313000019603F045FD206903F05CFD206903F072
:1031400059FD3C2D00F0070007D03F2D09D03D2D43
:1031500004BF074BD87402B070BD054B587402B061
:1031600070BD034B987402B070BD00BF506FFF1F5D
:10317000746AFF1F70B5224C054682B00E46204689
:10318000294603F0F5F90021204602F019FE3146E8
:103190002046002602F014FE627B2169009601237E
:1031A000204603F0F7FC0123617B00932A460223AB
:1031B0002069019603F004FD206903F01BFD2069DE
:1031C00003F018FD3C2DC0B20AD03F2D0DD03D2D8F
:1031D00010D03E2D04BF0B4B83F8300002B070BD01
:1031E000084B83F8310002B070BD064B83F8320003
:1031F00002B070BD034B83F8330002B070BD00BF56
:10320000506FFF1F346AFF1F2DE9F04F054685B050
:103210000C461646002A40F090806F1EF8B20F2828
:1032200023D8002CC0F2B280DFF8C882E1B208F8DF
:103230000710FFF7DFFE04469EB100230A2218F8AC
:1032400007109A4808F00CFA0221994807F0BAFED4
:1032500000230A222146954808F002FA934808F014
:10326000D9F920B205B0BDE8F08FA5F11107FFB282
:10327000072F12D8002CC0F2D7808E4DA0B225F8AF
:10328000170049223946FFF71FFD002E40F08580C8
:1032900035F9170005B0BDE8F08F192D00F08680D4
:1032A0001A2D00F09E801B2D00F0B5801C2D00F023
:1032B000C8801D2D00F09D801E2D00F0CB801F2D9D
:1032C00000F0D180202D00F07281A5F12107FBB222
:1032D000032B00F21381002C774BDFF8E081C0F262
:1032E000C781B4F5805FA8BF4FF4805403EB470952
:1032F00028F8174009F12309704DDFF8FCA10024DC
:10330000102001E01AF9010F35F8021BC0B2013498
:1033100005F0E2FF062CF5D138F81740ADF80E4065
:1033200036B12146614808F0DBF9604808F072F9CF
:10333000BDF80E30A9F8003093E70A2200230146B9
:103340005A4808F08DF90221594807F03BFE322710
:103350005B4B07FB05F703EB070840460AF050F903
:103360000146404607F02EFE0221514807F02AFE92
:10337000544B1F4438460AF043F90146384607F0DB
:1033800021FE0321504807F01DFE46E74A4BDFF8B7
:103390006481595D08F807104BE735F8171043486A
:1033A00008F09EF9414808F035F971E7002C74DB0C
:1033B000464C14BF012300232370FFF701FD66B1C3
:1033C0002078FDF7BBFF42480AF01AF90146404851
:1033D00007F0F8FD354808F01DF9207805B0BDE884
:1033E000F08F002C0EDB3B4C14BF01230023237015
:1033F000E3E7002CC0F20981374C14BF01230023FE
:103400002370DAE7354A364B12881A801888314C17
:10341000FEF7E6F8D1E7002CC0F2D180314C14BFA2
:10342000012300232370C8E7234B224D03EB4703FE
:10343000B3F81130ADF80E30BDF80E0025F81700C6
:103440001FE7002CC0F2C480274C14BF01230023C7
:103450002370B2E7002CC0F2E180244C14BF01239A
:1034600000232370A9E7002CC0F2F9800034204D1E
:1034700018BF01242C70FFF7A3FC66B12878FDF774
:103480005DFF13480AF0BCF80146114807F09AFDA9
:10349000064808F0BFF82878E4E6104A104B128876
:1034A0001A801888094CFEF79BF886E72C3BFF1F13
:1034B0001C150100FC2DFF1F346AFF1FD01AFF1FCF
:1034C0001008FF1F341BFF1F30220100246EFF1F56
:1034D000CC69FF1FBC6DFF1F9C59FF1F556AFF1F62
:1034E000146EFF1F2459FF1FBC58FF1FD16DFF1F13
:1034F000386DFF1F102EFF1F30110100252D70D0D9
:10350000262D00F09480272D00F0A180282D00F0BA
:1035100096805C2D00F09380292D00F0BB802A2D31
:1035200000F0C5802B2D00F0D4802C2D00F0E6801B
:103530002D2D00F00781452D00F05D812E2D00F02E
:103540003B812F2D00F0BF81302D00F09B81312D6C
:1035500000F0BE82322D00F0A382A5F133085FFA9D
:1035600088F00F2800F22F82002CC0F22382A74F90
:103570003D4405F8334C17F80810A44DFFF7B8FC8C
:1035800004468EB100230A2215F80810A04808F05E
:1035900067F8A0499E48FDF76FF82046FDF7E6FE64
:1035A0009D499B48FDF776F817F808005AE6002C6D
:1035B00067DB9A4C14BF012300232370FDE6984A71
:1035C000984B12881A801888974CFEF709F8F4E691
:1035D000934A944B12881A801888944CFEF700F88E
:1035E000EBE6002C6CDB924C14BF0123002323700C
:1035F000FFF7E6FB002E3FF4F0AE2078FDF79EFECD
:1036000085498348FDF746F8E7E6854A854B1288E9
:103610001A801888874CFDF7E3FFCEE6804A814B7D
:1036200012881A801888844CFDF7DAFFC5E6002C52
:103630007FDB824C14BF012300232370D8E7002CCA
:103640006EDB7F4C14BF012300232370D0E7002CD6
:103650005DDB7C4C14BF012300232370C8E7704A54
:10366000704B12881A801888774DFDF7B9FF02E772
:1036700003EB470909F12309B9F8003028F817309E
:103680003AE6674A674B12881A801888634CFDF740
:10369000A7FF92E6002C7EDB6C4C14BF01230023B5
:1036A0002370FDF71DFF002E3FF497AEA5E7002C19
:1036B000C0F26381664C14BF012300232370F0E73E
:1036C000574A584B12881A801888594CFDF788FFC2
:1036D0008EE7002CC0F2678100345E4D18BF0124D4
:1036E0002C70FDF7FDFE002E3FF4D5AE2878FDF7D7
:1036F00025FE49494648FCF7CDFFCCE6002CC0F238
:103700004B81554C14BF012300232370C9E7444A61
:10371000444B12881A8018884A4CFDF761FF67E70E
:103720003F4A404B12881A801888454CFDF758FFD5
:103730005EE73B4A3B4B12881A8018883F4CFDF7E6
:103740004FFF55E7002CC0F21F81444C444F14BF7B
:10375000012300232370237823B397F83C30414A98
:1037600043F00103002187F83C301170FDF7B8FEEB
:10377000012006F045F82178384D232006F002F8A4
:10378000002E3FF42AAE2878FDF7D8FD22492048C4
:10379000FCF780FF21E6324B2C4C93F82F00FDF70D
:1037A000EBFE7EE797F83C302E4A23F0010301211F
:1037B00087F83C301170D9E7002CC0F2BA802A4C4F
:1037C000274F14BF0123002323702378002B4DD0F3
:1037D00000210A20FFF78CFB97F83C3043F00203EE
:1037E00087F83C302178204D242005F0CBFF002EB7
:1037F0003FF4F3ADC7E7002CC0F2A380174C184F7D
:103800000CBF012300232370A5E700BFDC1AFF1FB4
:103810002C3BFF1F1C150100CC69FF1F1247FF1F27
:10382000556AFF1F146EFF1F2459FF1FBC58FF1F4E
:10383000306AFF1F9C59FF1FD16DFF1FC869FF1F12
:10384000A359FF1F0C2EFF1F386DFF1FF01AFF1F1B
:10385000181BFF1FF52DFF1F096BFF1F2D48FF1FB2
:10386000346AFF1F0D2EFF1F306DFF1FC14B0A2052
:10387000997AFFF73DFB97F83C3023F0020387F875
:103880003C30AFE7002C4CDBBB4CBC4F14BF0123DA
:10389000002323702378002B37D000210B20FFF763
:1038A00027FB97F83C3043F0080387F83C300120B1
:1038B00005F0A6FF2178B04D262005F063FF002E0D
:1038C0003FF48BAD5FE7002C4FDBAD4CAB4F14BF2B
:1038D0000123002323702378002B3CD097F83C3041
:1038E000A84A43F00403002187F83C301170FDF72B
:1038F000F7FD012005F084FF2178A14D252005F07A
:1039000041FF002E3FF469AD3DE79A4B0B20D97A79
:10391000FFF7EEFA97F83C3023F0080387F83C30C5
:10392000C5E7964F944C97F83C30C3F3C00323701F
:10393000B0E7924F944C97F83C30C3F340032370A8
:1039400043E78E4F914C97F83C3003F0010383F02E
:1039500001032370FFE697F83C308A4A23F0040302
:10396000012187F83C301170C1E7844F844C97F8EF
:103970003C30C3F380032370ADE7804B844C93F855
:103980002F00FDF7F9FD8CE67C4F804C97F83C301A
:1039900003F001032370DEE6784B7E4C93F82F0092
:1039A000FDF7EAFD7DE6754B7B4D93F82F00FDF7A3
:1039B000E3FD96E6794B6F4F2B443D4413F8323CC0
:1039C00005F8333CD7E5432D00F03683442D00F055
:1039D0002A83462D00F00C83472D00F00083482DEC
:1039E00000F0D482492D00F0C8824A2D00F0AC824C
:1039F0004B2D00F09B824C2D00F051824D2D00F09C
:103A00003F824E2D00F023824F2D00F01182502D69
:103A100000F01681A5F1510A5FFA8AF3042B00F237
:103A2000EF80002CC0F28E80DFF89491534FB4F5F4
:103A3000805FA8BF4FF4805429F81A4039F81A3033
:103A4000574CDFF8808114F80A0000EE103AB8EE07
:103A5000400A05F0F1FD4FF0000B38F81B1014F888
:103A60000B000BF1010B05F037FCBBF1060FF4D195
:103A700026B139F81A104B48FCF72AFE512D00F0F8
:103A8000B980522D00F0B080532D00F09D80542D50
:103A90006AD0B9F808307B8739F91A00FFF7E2BB22
:103AA000002C414C03DB14BF012300232370217839
:103AB000272005F067FE23783BBB304A92F83C3064
:103AC00003F07F0382F83C30002E3FF486AC94E58F
:103AD000002C31DB354B1C701978344D3E20FFF73C
:103AE00049FB0446002E3FF4BCAB29782D48002347
:103AF0000A2207F0B5FD2E492A48FCF7BDFD2146F4
:103B00002848FCF7D9FDFFF7ACBB1C4F294A97F8B2
:103B10003C102948002561F07F0100952B4687F86D
:103B20003C10294603F0B6FE00952B462946214A53
:103B3000224803F0AFFEC7E7104A1C4B92F8302032
:103B40001A70C9E7512D0D4FDFF8749048D0522DEF
:103B500042D0532D3CD0542D0BBF3B8F7B8FA9F807
:103B60000630A9F8083069E7B9F80630A9F804303A
:103B70003B8791E7DC1AFF1F166EFF1F346AFF1F99
:103B8000301BFF1FC86DFF1F306DFF1F2D48FF1F2B
:103B9000181BFF1F096BFF1FF52DFF1F746AFF1F06
:103BA000301101002C3BFF1FC96DFF1F281BFF1F99
:103BB0001C1501004CD5FF1F7C6FFF1F64A2FF1F67
:103BC0001C1BFF1FD01AFF1FB9F804303B8763E7A7
:103BD0003B8FA9F8043031E7FB8EA9F802302DE7BE
:103BE000FB8EA9F8003029E7B9F80230A9F80030B7
:103BF000FB8651E7B9F80030A9F80230FB864BE7A5
:103C0000562D00F0FF80572D00F0DD80582D00F07C
:103C1000A480592D00F099805A2D76D05B2D62D06A
:103C20005D2D45D05E2D3BD05F2D30D1002C27DBA4
:103C3000A84C14BF012300232370FDF7DDFB43E7ED
:103C4000002C28DBA44B9C709978A34D3D20FFF7F6
:103C50004FFA0446002E3FF404ABA9789F48002396
:103C60000A2207F0FDFC9E499C48FCF705FD204612
:103C7000FDF77CFB9B499948FCF70CFDFFF7F1BA77
:103C8000994B944C93F83400FDF7FEFBD5E74FF0C9
:103C9000FF30FFF7E7BA954A8F4BD27C9A70D3E793
:103CA000002C12DB924C14BF012300232370C4E7C5
:103CB000002C11DB00348F4D18BF01242C70FDF750
:103CC0009BFB002E3FF4E7AB10E5874B884C93F845
:103CD0003400FDF7D9FBB0E7834B864D93F83400F1
:103CE000FDF7D2FBEBE7002C21DB834C14BF012353
:103CF00000232370237883B100210220FFF7F8F816
:103D000000210320FFF7F4F897E7002C16DB7B4C2B
:103D100014BF0123002323708FE7794D0220A97877
:103D2000FFF7E6F8E9780320FFF7E2F885E76E4B46
:103D3000714C93F83400FDF7A7FBDBE76A4B6F4C3F
:103D400093F83400FDF7A0FB77E7002C2DDB6D4CDA
:103D500014BF0123002323706FE7002C2CDBDFF856
:103D6000B081A8F80A40684B684C1B8900EE103AF5
:103D70001E20B8EE400A05F05FFC002538F815104B
:103D8000605D634F013505F0A7FA062DF6D11EB12F
:103D900079895248FCF79CFC5E4A534B1288B8F96B
:103DA0000A00A3F82D20FFF75DBA4F4B554C93F84E
:103DB0003400FDF769FB40E7574BDFF854811B885F
:103DC000A8F80A30CFE7002C24DBDFF84481A8F8FC
:103DD00008404E4C002538F81510605D4C4F0135F9
:103DE00005F07AFA062DF6D11EB139893B48FCF769
:103DF0006FFC4A4A3C4B1288B8F90800A3F82B2004
:103E0000FFF730BA002C0CDB454C14BF0123002314
:103E1000237012E7434BDFF8F8801B88A8F80830BE
:103E2000D7E7314B3E4C93F83400FDF72DFB04E708
:103E3000002C1BDB284B5C705978274D3F20FFF787
:103E400057F90446002E3FF40CAA697806E7002CC7
:103E500011DB214B1C7019781F4D3C20FFF748F9EE
:103E60000446002E3FF4FDA92978F7E61F4A1A4BB5
:103E7000927C5A70E0E71D4A174B527C1A70EAE7B1
:103E8000002C1BDB284B9C709978274D3D20FFF7B9
:103E900071F90446002E3FF4E4A9A97826E6002C27
:103EA00012DB214B5C7059781F4D3F20FFF762F900
:103EB0000446002E3FF4D5A9697817E60A4A1A4B42
:103EC00092F833209A70DFE7074A174B92F83220B6
:103ED0005A70E8E79058FF1F081BFF1F2C3BFF1F7D
:103EE0001C150100CC69FF1F346AFF1F746AFF1F95
:103EF000D26DFF1F006BFF1FB46DFF1FB469FF1F62
:103F0000DC1AFF1FD06DFF1F1C1BFF1F30110100AB
:103F1000D01AFF1FDA1AFF1F616AFF1FD81AFF1F8E
:103F20002E6DFF1F5F6AFF1F0C1BFF1F002C14DB91
:103F30004E4B1C7019784D4D3C20FFF71BF9044681
:103F4000002E3FF48EA9D0E5002C0CDB484C14BFAA
:103F5000012300232370FFF74BBB464A434B92F8E3
:103F600031201A70E6E7444A444B12881A801888B8
:103F70003F4CFDF735FBFFF73BBB002C16DB404CFD
:103F800014BF012300232370FFF732BB002C1DDB7D
:103F90003C4C14BF012300232370FEF711FF23784C
:103FA00073B100210F20FEF7A3FF8DE5324A334B9A
:103FB00012881A801888324CFDF712FBFFF718BBE5
:103FC000314B0F20D97BFEF793FF7DE52A4A2B4B1F
:103FD00012881A8018882B4CFDF702FBDDE7002CB5
:103FE0000FDB2A4C14BF012300232370FFF700BB13
:103FF000002C10DB264C14BF012300232370FFF795
:1040000050BB1D4A1D4B12881A8018881F4CFDF7A3
:10401000E7FAFFF7EDBA174B1D4C93F82F00FDF7A9
:10402000ABFAFFF73EBB002C0FDB1A4C14BF012389
:1040300000232370FFF735BB002C0EDB0034164D38
:1040400018BF01242C70FFF74CBB0A4B114C93F89E
:104050002F00FDF791FAFFF724BB064B0E4D93F8A6
:104060002F00FDF789FAFFF73CBB00BF0C1BFF1FB9
:10407000F81AFF1F346AFF1F556AFF1F146EFF1FD7
:104080000B1BFF1FF42DFF1FDC1AFF1FA958FF1F7A
:10409000C86DFF1FF86AFF1F2847FF1F38B5224869
:1040A000224C07F0A1FC83B25A1E5E2A238020D83E
:1040B000C0B2FDF7FDFA1E4882681ABB4FF0FF310F
:1040C0002078FFF7A1F885B204211A4806F07AFF9C
:1040D0002188194807F004FB0121184806F072FFF7
:1040E0002946154807F0FCFA1348BDE8384007F0A8
:1040F00091BA1721124806F065FF0F48BDE8384015
:1041000007F088BA07F070FC0E4A0F4B11681B6865
:10411000884203DB98420146A8BF19460022207856
:10412000FFF772F885B2CFE73048FF1FBE6DFF1F63
:104130001447FF1FE02201002C3BFF1FE822010073
:10414000EC220100346DFF1FFC1AFF1F10B50D4C4F
:104150000D4923780D4883F00103237007F07AFBA3
:1041600023783BB90A490B4807F074FBBDE81040BF
:10417000FFF794BF0849074807F06CFBBDE8104003
:10418000FFF78CBFC96DFF1F042301003048FF1FDC
:10419000082301001447FF1FF021010010B5192169
:1041A0000A4806F00FFF0A4807F034FA01240521F7
:1041B000084806F007FF0122E0B24FF0FF31144437
:1041C000FFF722F8602CF2D110BD00BF38230100A8
:1041D0002C3BFF1F302301002DE9F04FAD48A3B069
:1041E00003F0C0FC002840F0E581AB4BDFF8B8825B
:1041F0000593AA4803F0B6FC002840F0B281DFF82E
:10420000E4B205F01FFE002840F08481DFF8F89248
:1042100099F80030002B40F0D383D8F80030A04E3E
:104220000893A04A089B306812689F491B1A9A425B
:1042300015D80B6809939D4C099B33609C4D671DF5
:10424000422012AE01E014F9010FC0B204F090FC5C
:10425000ADF84800338825F8023BA742F3D1FEF7BA
:104260001BF906F07DFE012840F3CD81914C4022E0
:104270002046002108F0DCFE10232370012541F2C6
:10428000707606F023FE3346C0B2013BFDD10A280A
:1042900040F0E280874D884E0FCD34460FC40FCDDD
:1042A0000FC40FCD0FC495E80F0084E80F0031460E
:1042B0003E22824804F06CF9074631463E227F4890
:1042C000F78704F065F9BA46402581467C4F002403
:1042D000013417F8010F06F0FDFEE2B2AA42F7D34F
:1042E000784807F097F9337803F0F003102B00F0CB
:1042F0008982754801F020FD744A137C012B40F23D
:10430000F08172B6D36862B671490868984218D0D5
:10431000704804689C4204DD6F4804689C42C0F207
:10432000B98172B6D46062B603680B606B4A1278CA
:10433000002A00F099806A4A194610780122FEF797
:1043400063FFD8F800300A93059B57481A680A9B08
:1043500051499B1AC72B00F29080D8F800300C937B
:10436000DBF800200C9B50485E499B1AC72B0ED9E6
:104370005D4B02680D921B780D9A0A60002B00F0CD
:104380005A815A4B01211970022005F0FBF9D8F827
:104390000030574A0E930E9B116843485B1AC72B97
:1043A00057D9544F016897F83D3012911299116016
:1043B00001333E223946414887F83D3004F0E8F8A1
:1043C000DFF848914C4EF88799F80010DFF84081EB
:1043D0004A4D4B4C384606F02DFD96F83D3088F896
:1043E000000001333E223146344886F83D3004F067
:1043F000CFF899F80010F087304606F01BFD95F8CD
:104400003D3088F8000001333E2229462B4885F8CC
:104410003D3004F0BDF899F80010E887284606F012
:1044200009FD88F80000FDF78BFF94F83D30234824
:10443000013321463E2284F83D3004F0A9F899F872
:104440000010E087204606F0F5FC88F8000006F032
:10445000E5FC23B0BDE8F08F0135EDB2402D04F846
:10446000010F7FF40EAF15E71D4CD8B201224FF0BB
:10447000FF312380FEF7C8FE63E703680B930B9BB5
:10448000204A0B60012319460520137005F07AF9C4
:1044900063E700BF7C6FFF1F486DFF1F64A2FF1F13
:1044A000F46AFF1FF82DFF1FA0D5FF1F5424010041
:1044B000DF6DFF1FEC6CFF1F0C6BFF1F2C48FF1FF5
:1044C0000B6BFF1F2C3BFF1FC058FF1F9458FF1F93
:1044D000FC6AFF1FFC1AFF1F346DFF1FFC45FF1F06
:1044E000BE6DFF1F206EFF1FC96DFF1F1147FF1F0D
:1044F000046BFF1F346AFF1F746AFF1FD46DFF1F18
:10450000B46AFF1F202EFF1FD36DFF1FFA6AFF1F23
:104510002D6DFF1F9D4E9E4C3578DFF8D89205F02B
:10452000A1FC9C4B585505F047F9337820600133C6
:104530000122337089F8002005F03EF9236840F22B
:104540004C42C01A90427FF668AE934B1A78002A0C
:1045500075D000228D4E1A700023337089F8003018
:104560005BE68E4C8E48DFF890B28E4D214603F00C
:104570001DFB8D4A8D491368D8F800000790013360
:10458000136009781068079AC5F82100CBF800205D
:10459000002940F0ED80864B1B78002B3FF431AEB4
:1045A000844A137883F0010319460220137005F042
:1045B000E9F826E6794C804B8048059321461E4653
:1045C00003F0F4FA2046FDF79FFB7D4ADFF82C82CA
:1045D00013687C49D8F80000069001331360714DD0
:1045E00009781068069AC5F81D003260002940F06D
:1045F000B180754A137883F00103194605201370C2
:1046000005F0C0F8F5E5714E0021304606F0C0FB1C
:10461000C5B2002D3FF46DAE96F83F7096F83E306F
:104620006B483E22314603EB072703F0B1FF1FFA28
:1046300087FA81464AE65F4A19461370A4E6654F39
:10464000397849BB514E3378002B00F08781002523
:10465000DFF8ACA12C4602E03278AA420EDD1AF84F
:10466000012F14440135E4B20029F5D05A495B48C2
:1046700006F0E8FF32783978AA42F0DCF4B100297C
:104680003FF46AAF1021564806F09CFC534806F0F0
:10469000C1FF61E70B6049E603F020FE044605F028
:1046A0008BF8504B394E1B684F49C31A22464B4872
:1046B00006F0C8FF33783978002BC8D14B4B394806
:1046C0001A8801321A801B88A0F8353000293FF47F
:1046D00043AF0221464806F075FC404806F09AFFB9
:1046E0003AE772B61368506819780478507A137AEA
:1046F000044201EA030100F0CF80937A03F0030340
:10470000002940F0478143F008039910013B917262
:104710000D2B3FF6F7AD01A151F823F0C34800007F
:10472000BB480000B3480000BB4800000543000040
:10473000AB480000C3480000C3480000AB4800007D
:1047400005430000BB480000B3480000BB48000020
:10475000C348000004F1100292E803008DE8030052
:1047600000220393029294E80F00FDF70FFB40E74D
:1047700004F1100292E803008DE803000122039384
:10478000029294E80F00FDF701FB04E7086BFF1F9E
:10479000506DFF1F1046FF1F041BFF1F506BFF1FB4
:1047A00064A2FF1F746AFF1F4448FF1FBD6CFF1FF8
:1047B000C96DFF1F1147FF1F486DFF1F7C6FFF1F53
:1047C0004048FF1FBC6CFF1F202EFF1F0C6BFF1FFC
:1047D0002C48FF1FA858FF1FBC1701002C3BFF1FD0
:1047E00084230100586DFF1F6C2301009E59FF1F99
:1047F00080230100D36DFF1F206EFF1FA0D5FF1F78
:104800000F46FF1FCA457FF474ADA14C12AE04F1F0
:10481000300E354620686168A268E3682F460FC7EE
:10482000103474453D46F5D120686168A268247B48
:104830003B4607C330461C70964908F083FF044688
:1048400000283FF456AD21460EA806F091FF0EA9B0
:10485000914806F0F7FF0EA806F04AFF8F490020A6
:1048600008F070FF01460EA806F082FF0EA98C48E2
:1048700006F0E8FF0EA806F03BFF8849002008F08C
:1048800061FF0446844807F0AFF800281DDDFFF7FC
:1048900005FC002CD7D12CE5937A03F00303002903
:1048A0003FF433AF43F004032FE7D368023BD360F8
:1048B00029E5D3680233D36025E5D368013BD36093
:1048C00021E5D3680133D3601DE576490EA806F0D3
:1048D0004FFF0EA9704807F03DF805460EA806F0F8
:1048E00007FF25B1FCF7F2F8002CACD101E56E49C9
:1048F0000EA806F03DFF0EA9674807F02BF8054605
:104900000EA806F0F5FE25B1FDF712FC002C9AD199
:10491000EFE466490EA806F02BFF0EA95E4807F0EB
:1049200019F805460EA806F0E3FE25B1FDF730FCA8
:10493000002C88D1DDE45E490EA806F019FF0EA90F
:10494000554807F007F805460EA806F0D1FE75B1E8
:10495000FDF74EFC002C7FF476AFCAE4554B564968
:104960001A8801321A801B88A1F83530F4E55349C2
:104970000EA806F0FDFE0EA9474806F0EBFF05461F
:104980000EA806F0B5FE45B1FDF776FC002C7FF4CD
:104990005AAFAEE443F00403B5E649490EA806F069
:1049A000E7FE0EA93C4806F0D5FF05460EA806F026
:1049B0009FFE3DB1FDF7E2FA002C7FF444AF98E48E
:1049C000404CB9E540490EA806F0D2FE0EA9324887
:1049D00006F0C0FF05460EA806F08AFE2DB1FCF7D2
:1049E00075FF002C7FF42FAF83E438490EA806F042
:1049F000BFFE0EA9284806F0ADFF05460EA806F03A
:104A000077FE2DB1FCF77CFF002C7FF41CAF70E427
:104A10002F490EA806F0ACFE0EA91F4806F09AFF1B
:104A200005460EA806F064FE2DB1FCF783FF002CAE
:104A30007FF409AF5DE427490EA806F099FE0EA9A0
:104A4000154806F087FF05460EA806F051FE2DB169
:104A5000FCF71AFC002C7FF4F6AE4AE41E490EA8BF
:104A600006F086FE0EA90C4806F074FF05460EA857
:104A700006F03EFEA5B30A488368002B3FF409AF59
:104A800006F0B2FF154B1860002C7FF4DCAE30E46A
:104A90000D6BFF1F982301003048FF1FE822010023
:104AA0001447FF1F9C230100A0230100A423010041
:104AB000A82301009E59FF1F746AFF1FB023010045
:104AC000B8230100506DFF1FBC230100C02301006B
:104AD000C4230100C8230100CC230100001BFF1FD9
:104AE000A7490EA806F044FE0EA9A64806F032FF1C
:104AF00005460EA806F0FCFD35B1FCF741FB002C85
:104B00007FF4A1AEFFF7F5BB9F490EA806F030FE7B
:104B10000EA99C4806F01EFF05460EA806F0E8FD0B
:104B200035B1FCF787FB002C7FF48DAEFFF7E1BBBE
:104B300096490EA806F01CFE0EA9924806F00AFF40
:104B400005460EA806F0D4FD35B1FCF73FFB002C5E
:104B50007FF479AEFFF7CDBB8D490EA806F008FEB5
:104B60000EA9884806F0F6FE05460EA806F0C0FD20
:104B700035B1FDF711FA002C7FF465AEFFF7B9BB34
:104B800084490EA806F0F4FD0EA97E4806F0E2FE68
:104B900005460EA806F0ACFD35B1FDF733FA002C42
:104BA0007FF451AEFFF7A5BB7B490EA806F0E0FDF0
:104BB0000EA9744806F0CEFE05460EA806F098FD34
:104BC00035B1FFF7EBFA002C7FF43DAEFFF791BB58
:104BD00072490EA806F0CCFD0EA96A4806F0BAFE8E
:104BE00005460EA806F084FD45B16D496D48FBF7FA
:104BF00051FD002C7FF427AEFFF77BBB6A490EA85E
:104C000006F0B6FD0EA95F4806F0A4FE05460EA804
:104C100006F06EFD35B1FDF761FD002C7FF413AE9B
:104C2000FFF767BB61490EA806F0A2FD0EA9554823
:104C300006F090FE05460EA806F05AFD35B1FCF7C9
:104C40001BFE002C7FF4FFADFFF753BB58490EA8A5
:104C500006F08EFD0EA94B4806F07CFE05460EA818
:104C600006F046FD35B1FCF719F8002C7FF4EBADEA
:104C7000FFF73FBB4F490EA806F07AFD0EA9414849
:104C800006F068FE05460EA806F032FD35B1FCF7C9
:104C90006BFE002C7FF4D7ADFFF72BBB46490EA867
:104CA00006F066FD0EA9374806F054FE05460EA82C
:104CB00006F01EFD002DEAD140490EA806F058FD71
:104CC0000EA9304806F046FE05460EA806F010FD77
:104CD00035B1FCF7F7FF002C7FF4B5ADFFF709BB4A
:104CE00037490EA806F044FD0EA9264806F032FE0C
:104CF00005460EA806F0FCFC35B1FDF70FF9002CB7
:104D00007FF4A1ADFFF7F5BA2E490EA806F030FDED
:104D10000EA91C4806F01EFE05460EA806F0E8FC8B
:104D200035B1FDF7FFFA002C7FF48DADFFF7E1BA46
:104D300025490EA806F01CFD0EA9124806F00AFE31
:104D400005460EA806F0D4FC35B1FDF771FB002C2A
:104D50007FF479ADFFF7CDBA1C490EA806F008FD27
:104D60000EA9084806F0F6FD05460EA806F0C0FCA0
:104D700075B3FDF777FB002C7FF465ADFFF7B9BA8B
:104D8000D02301003048FF1FD8230100E423010095
:104D9000F0230100FC230100002401008023010016
:104DA000501A01002C3BFF1F042401000C240100B9
:104DB00014240100182401001C24010024240100F3
:104DC0002C24010034240100402401003C24010073
:104DD00014490EA806F0CCFC0EA9134806F0BAFD43
:104DE00005460EA806F084FC35B1FBF7E1FD002C6A
:104DF0007FF429ADFFF77DBA0C490EA806F0B8FC88
:104E00000EA9094806F0A6FD05460EA806F070FC9E
:104E1000002D3FF43EADFBF78DFD002C7FF413AD6C
:104E2000FFF767BA442401003048FF1F4C240100FB
:104E30002DE9F043A348A44FA44DA54E87B000F040
:104E400075FEA44800F072FEDFF8F4E2A24B0322E4
:104E50000124022144F63E101A708EF80040397089
:104E600004F0D6FD4FF480719C4806F049FC1421F3
:104E70009B4806F045FC9B4803F020FBFDF77EF8BD
:104E80000C2004F0C9FB984803F0FCFA204603F01C
:104E900007FBFBF727FC4FF0120E4FF00008697B71
:104EA0002869924BCDF808E04FF0130ECDF804E0DE
:104EB0004246049305944346CDF80C80CDF800801B
:104EC00001F01CFA2B694FF4FA69C3F8789228466E
:104ED000272101F04DFB4146284600F071FF414675
:104EE000284600F06DFF6A7B2969CDF800802346D3
:104EF000284601F04FFE2846272101F039FB2146C4
:104F0000284600F05DFF4146284600F059FF6A7BC5
:104F10002969CDF800802346284601F03BFE28464B
:104F2000232101F025FB4146284600F049FF414678
:104F3000284600F045FF6A7B2969CDF800802346AA
:104F4000284601F027FE2846232101F011FB2146C7
:104F5000284600F035FF4146284600F031FF6A7BC5
:104F60002969CDF800802346284601F013FEFCF79E
:104F700043FAFCF7B5FAFDF723FF5D495D4800F001
:104F800049FE5D495B4800F047FE5C49594800F026
:104F900045FE5B49574800F043FE5A49554800F02A
:104FA00041FE4946534800F033FEFA21514800F0D3
:104FB0002DFE4920FDF7CEFDFBF7FAFCE5B22846B1
:104FC00000224FF0FF31FEF71FF983B2013428466B
:104FD000194600223380FEF717F9602C3C4DEDD1C5
:104FE000494B013BFDD1DFF85C81484E0024FCF7C2
:104FF000F3FF43F2E429FDF7FBF800942346214632
:105000004046434A02F046FC23462146404A00946B
:10501000304602F03FFC58F80900FDF723F83875D8
:1050200056F80900FDF71EF83A4BDFF81CC19A7BD1
:105030007875012443F248214FF0080E224344F6CC
:105040003E1083F80FE0ACF800409A7308F8014076
:10505000745404F0DDFC4FF4807004F04DFD43F215
:10506000D40004F0A1FE04F031FF47F22F522A4988
:105070002A4806F015FA2A4B2A482B4904605F2279
:105080001A600C702C80FCF7C1FB2849134806F00D
:10509000E1FBFCF717FEFFF781F8254B254A18685E
:1050A0002549C7F81D001068244BC7F8210008687F
:1050B000C7F8250020221A7007B0BDE8F043FCF7BE
:1050C0005FB800BF242EFF1F746AFF1F506FFF1FC1
:1050D000BE6DFF1F642EFF1FD46DFF1F1447FF1FFF
:1050E0003048FF1F0046FF1FD1040000801A060051
:1050F0005D050000C058FF1FAD0900004D410000D4
:105100006D04000059050000808D5B0064A2FF1F44
:105110004CD5FF1F8459FF1F710400003C6DFF1F19
:10512000FC1AFF1F346DFF1F4D6BFF1FF0210100A4
:105130004048FF1F4448FF1F4848FF1F606DFF1F86
:10514000346AFF1F7C6FFF1F101BFF1F10B500216B
:105150000446C07C04F016FB094B1A684FF000416E
:10516000C023D1625363D36A002BFCDAE07C936BDB
:10517000012104F007FB0A20BDE8104004F040BB09
:10518000642EFF1F38B504460D46C07C002104F094
:10519000F9FA114B1B684FF000410322D9625A63A0
:1051A000DA6A002AFCDA4FF00042996BDA625D633A
:1051B000DA6A002AFCDA4FF000415522986BD96276
:1051C0005A63DA6A002AFCDA9D6BE07C012104F064
:1051D000D9FAE8B238BD00BF642EFF1F70B504468F
:1051E0000E46C07C0021154604F0CCFA114B1B681A
:1051F0004FF000410222D9625A63D96A0029FCDAD1
:105200004FF00042996BDA625E63D96A0029FCDADA
:105210004FF00042996BDA625D63DA6A002AFCDAC9
:10522000E07C9B6B012104F0ADFA43F69823013B2F
:10523000FDD170BD642EFF1FF8B505460F46C07C3A
:10524000002114461E4604F09DFA164B19684FF0D3
:1052500000420223CA624B63CA6A002AFCDA4FF09A
:1052600000438A6BCB624F63CA6A002AFCDA8B6BFD
:105270007EB1701E54FA80F0621E4FF0004412F8A6
:10528000013FCC624B63CB6A002BFCDA82428B6B12
:10529000F5D1E87C012104F075FA43F69823013B2F
:1052A000FDD1F8BD642EFF1FF8B504460F46C07C43
:1052B000002116461D4604F065FA164B19684FF09A
:1052C00000420523CA624B63C86A0028FCDA4FF02B
:1052D00000438A6BCB624F63C86A0028FCDA4FF048
:1052E00000438A6BCB624E63CA6A002AFCDA4FF035
:1052F00000438A6BCB624D63CB6A002BFCDA8B6B6D
:10530000E07C012104F03EFA43F69823013BFDD1F5
:10531000F8BD00BF642EFF1F38B5E0220B460C46D7
:1053200005460F21FFF7C0FF28460F21FFF72AFF90
:1053300000F0E000001B18BF012038BD70B5032A43
:105340003DD8DFE802F0322518020C2937D1832539
:10535000E42641231A4604462A21FFF73FFF32463E
:1053600020462921FFF73AFF20462A462821FFF749
:1053700035FF002070BD01390E2920D8DFE801F08B
:10538000789C949884888C90A4A8ACB07C80A00071
:1053900001390E2913D8DFE801F0386748124C5064
:1053A00054401444575B5F633C000639082906D813
:1053B000DFE801F00B170F1F072327131B00012045
:1053C00070BD8725FA260323C4E78725FF26092316
:1053D000C0E78725FF260423BCE78725FA2600239C
:1053E000B8E78725FA260923B4E78225D9260023C2
:1053F000B0E78725FA260423ACE78725FF2601239B
:10540000A8E78625FB264123A4E78725FF263F231F
:10541000A0E78325E12640239CE78725FF26032379
:1054200098E78625F026032394E78725FF260F2398
:1054300090E78525F1264E238CE78725FF26072355
:1054400088E78725FA2685E78725FA26012381E75D
:105450008525F12641237DE78625F026002379E77F
:105460008225D026002375E78725FF261F2371E7B5
:105470008725BF261F236DE782259026002369E735
:1054800080252E46002365E78525E226472361E730
:105490008725BF2603235DE78625B426032359E726
:1054A0008725BF26012355E78725BF26072351E718
:1054B0008425A42607234DE78725BF260F2349E728
:1054C0008125C826002345E78625B426012341E728
:1054D0008525B12601233DE78625B426002339E73B
:1054E0008525B126002335E730B5012A83B012D0D7
:1054F000C3F3CC0400225B018DF804408DF8053025
:105500008DF807208DF8062004230DEB0302FFF72A
:1055100093FE03B030BD1A0CD40024F01F0502F036
:1055200003042C4444F008041D1252118DF8073076
:105530008DF806508DF805408DF80420E4E700BF93
:1055400030B5012A83B04FEA134211D054011D1225
:10555000D2108DF807308DF806508DF805408DF883
:10556000042004230DEB0302FFF766FE03B030BDF9
:10557000D40024F01F0502F003042C4444F0080476
:105580001D1252118DF807308DF806508DF8054028
:105590008DF80420E5E700BF38B501220546002359
:1055A0002021FFF7CDFF2846002301222421FFF709
:1055B000C7FF0023194628460122FFF7C1FF002339
:1055C0001A4628460421FFF7BBFF28460023012284
:1055D0000821FFF7B5FF00231A4628461021FFF7E0
:1055E000AFFF2846002301221421FFF7A9FF002363
:1055F00028461A461821FFF7A3FF3024214600222F
:105600002846FFF7EBFD04F11001C9B2002228463D
:10561000FFF7E4FD04F120010134C9B2002228465D
:10562000E4B2FFF7DBFD3E2CE8D1284600226021E2
:10563000FFF7D4FD284600227021BDE83840FFF76F
:10564000CDBD00BF2DE9F04104460E4617469846F1
:10565000FFF77CFD4023237520468021FFF75CFE89
:10566000054698BB29212A4805F0ACFC424639463C
:105670002046FFF763FE10BB1E21264805F0A2FC62
:105680002046FFF789FF03222B212046FFF7A6FDC6
:1056900056B3032E21D164231A4660212046FFF71A
:1056A00003FE60231A4670212046FFF7FDFD217D91
:1056B0002046FFF731FE054618BBBDE8F0811D21ED
:1056C000154805F07FFC2846BDE8F08128211348E5
:1056D00005F078FC2846BDE8F0811D21104805F052
:1056E00071FC0120BDE8F081204604236422602182
:1056F000FFF7DAFD3346602270212046FFF7D4FD24
:10570000D5E72721074805F05DFC2846BDE8F08174
:105710008C240100D8240100B82401006024010079
:10572000F82401001825010070B504460D46053126
:10573000037A00F10902C9B2FFF77EFD637C227A89
:10574000012B08BF42F0400205F1040108BF22729C
:105750002046C9B2FFF742FD2946636822782046F9
:10576000BDE87040FFF7C0BE2DE9F041134B82B099
:1057700088461A889B78ADF80420002188F800102C
:1057800006468DF8063001AC0DF1070714F8015BF1
:1057900030462946FFF7F6FC00F0080303F0FF004F
:1057A0002BB1BC42F2D1022002B0BDE8F08101353C
:1057B00088F8005002B0BDE8F08100BF5C24010011
:1057C00010B50446C1740846012103F0EFFFE07CE8
:1057D000012103F0D7FF204610BD00BFF8B50446F5
:1057E0000D4616461F46064800F0A0F93B463246D5
:1057F00029462046FFF726FF003018BF0120F8BDDC
:10580000242EFF1F30B5054683B0002401E0322C62
:105810000AD00DF107012846FFF7A6FF0134022840
:10582000A4B2F4D0322C02D1062003B030BD9DF8D2
:1058300007102846FFF778FF9DF807100823013965
:10584000C9B21A462846FFF72FFD002401E0322C8A
:1058500010D09DF807100139C9B22846FFF792FC15
:1058600001340307A4B2F2D4322C0CBF072000206D
:1058700003B030BD072003B030BD00BF70B4039D3E
:105880004160044600260270467400F1100104F8DD
:10589000083F6B1E13F8012F04F8012F8C42F9D139
:1058A00070BCFFF7AFBF00BF10B4047F4160022C93
:1058B000C26003D05DF8044B05F004BD83685DF859
:1058C000044B1847F0B4464B464A986B5C6B017921
:1058D0001170454922790A701A6B00790870002A04
:1058E00046D05968C9688A423ED82168CC8B2404C6
:1058F00002F1FF3065D4C0F30E00C883C88B80B2BC
:10590000C882996B0968C88B000452D4C2F30E0098
:10591000C883C88B002480B212F1FF32C88218BF3E
:1059200001221C63596B2E4809680D6800F12C0494
:10593000A54236D00068C46814F0804F0C680D682A
:1059400015BF248824780235013544F000440D60E9
:105950004463996B254B09791970214912B14A6B3F
:1059600012791A70F0BC7047521A1A630122D9E7F3
:10597000D86B196805681E4C0A63CC62CC682D6828
:105980001C4E24F080440327B542CC6083F82D7070
:105990001FD1037F4260022BC2601ED0F0BC05F015
:1059A00091BC016890F82C00CC6840F0004048633E
:1059B000CFE7CC8BC2F3080004F47E442043C883B5
:1059C000A7E7CC8BC0F3080004F47E442043C883CF
:1059D00094E72B461146F0BC18478368F0BC184783
:1059E000642EFF1F1F8000401C8000401B80004071
:1059F00000000FFFA9580000F0B4464B464A986BD0
:105A00005C6B01791170454922790A701A6B007933
:105A10000870002A46D05968C9688A423ED8216871
:105A2000CC8B240402F1FF3065D4C0F30E00C88390
:105A3000C88B80B2C882996B0968C88B000452D4A5
:105A4000C2F30E00C883C88B002480B212F1FF326B
:105A5000C88218BF01221C63596B2E4809680D6863
:105A600000F12C04A54236D00068C46814F0804FC1
:105A70000C680D6815BF248824780235013544F080
:105A800000440D604463996B254B097919702149D5
:105A900012B14A6B12791A70F0BC7047521A1A632D
:105AA0000122D9E7D86B196805681E4C0A63CC62DD
:105AB000CC682D681C4E24F080440327B542CC608E
:105AC00083F82D701FD1037F4260022BC2601ED06D
:105AD000F0BC05F0F7BB016890F82C00CC6840F0F2
