:1000000000000320D1010000F1980000A998000031
:10001000A9980000A9980000A9980000A9980000DC
:10002000A9980000A9980000A9980000F198000084
:10003000F1980000A9980000958A0000998B0000B3
:10004000F1980000F1980000F1980000F19800008C
:10005000F1980000F1980000F1980000F19800007C
:10006000F1980000F1980000F1980000F19800006C
:10007000F1980000F1980000F1980000F19800005C
:10008000F1980000F1980000F1980000F19800004C
:10009000F1980000F1980000F1980000F19800003C
:1000A0007973000085730000F1980000F19800005A
:1000B000F1980000F1980000F1980000BDBC00002C
:1000C000F19800008DA60000F1980000E1A8000062
:1000D000F1980000E9BD0000F1980000F1980000DF
:1000E000F1980000F1980000F1980000F1980000EC
:1000F000F1980000F1980000F1980000F1980000DC
:10010000858C0000998C0000AD8C0000C18C000033
:10011000F19800006DAB0000F1980000F19800002C
:10012000F1980000F1980000F1980000F1980000AB
:10013000F1980000F1980000F1980000F19800009B
:10014000F1980000F1980000E1BE0000F198000075
:10015000F1980000F1980000F1980000F19800007B
:10016000F1980000F1980000917300003D810000BB
:100170006D810000498100006981000065810000F7
:1001800055810000F1980000F1980000F1980000FE
:10019000F1980000F1980000D9BF0000F19800002C
:1001A000F1980000F1980000F19800009D730000A4
:1001B000F1980000F198000071810000A181000019
:1001C0007D8100009D8100009981000089810000EF
:1001D0005C4B4CF2205210B51A804DF628121A8052
:1001E00000BF00BF09F088FB574B4FF030621A6028
:1001F000564A9A60564ADA60564B4FF470021A60BB
:10020000554B564A1A60564B1A78110703D51A787F
:1002100042F008021A70534B5349AA221A70534AEB
:10022000534B8B4204D252F8040F43F8040BF8E707
:10023000504B514900228B4202D243F8042BFAE77B
:100240004E494F4A002352F8230041F8230001335E
:10025000742BF8D14B4B4C4A802103F8011B93427D
:10026000FBD14A4B454A1A60494B8A221A70A3F5C2
:10027000805324225A70A0221A709A799207FCD5D2
:100280009A79D406FCD4434A937903F00C03082BE3
:10029000FAD1414B60221A7002331A78802AFCD1BD
:1002A0003C4B01221A715D225A719A799006FCD555
:1002B0009979384A4906FBD5384B394919600021EC
:1002C000596020231370937903F00C030C2BFAD19F
:1002D000344B354A1A60354A354C136813F4807331
:1002E00003D123604FF4A8531360324B324A1A6093
:1002F00000225A60072243F8042C304AC3F80C2D20
:1003000062B609F0C7FF2368DA0705D52C4809F063
:10031000C9FC2C4B2C4A1A602C4B1B785B0609D568
:10032000284C294B22689A4204D1254809F0BAFC8E
:10033000002323600CF086FB09F0E4FA09F012FABE
:10034000FEE700BF0E20054030800440823F0400DD
:100350000100002B88ED00E0002008E0030000858C
:1003600002D0074000E00740603EFF1FD435010087
:100370003007FF1F603EFF1F88D1FF1F0002FF1FD5
:100380000000000000E400E064E400E008ED00E0AC
:10039000005006400040064001E007404480044011
:1003A0000000060204800440C010070010D0034083
:1003B00014D0034014E000E01FBF02000000202022
:1003C000D7BB955D1CE00340A5C3945A00F00740DD
:1003D000FFFFFFFFFFFFFFFFFFFFFFFFFFFFFFFF2D
:1003E000FFFFFFFFFFFFFFFFFFFFFFFFFFFFFFFF1D
:1003F000FFFFFFFFFFFFFFFFFFFFFFFFFFFFFFFF0D
:10040000FFFFFFFFFFFFFFFFFFFFFFFFDEF9FFFF23
:1004100010B5054C237833B9044B13B10448AFF33E
:1004200000800123237010BD603EFF1F000000000C
:10043000D0350100084B10B51BB108490848AFF38F
:1004400000800848036803B910BD074B002BFBD0A0
:10045000BDE81040184700BF00000000643EFF1FC9
:10046000D0350100603EFF1F00000000704700BF54
:10047000014808F05DB900BFE040FF1F10B5044619
:1004800008F0DEFB204610BD38B5054CA4F5A87574
:100490002046103C08F0B2FCAC42F9D138BD00BF98
:1004A0007864FF1F10B5044B044640F81C3B08F06D
:1004B000A5FC204610BD00BFE42F010030B5044666
:1004C000543094F85D2002F5067102F10B0354F8E4
:1004D0002110616404EBC30383B053F8065F5B68CB
:1004E0006565436094F8343013B1284B1B780BBB1F
:1004F00094F85C10E36B914298BF002203F1010372
:1005000098BF84F85D208B4224BF002284F83420F9
:100510006268A16BE36302FB03F38B4204D3002206
:100520000123E26384F83430204603B0BDE8304054
:1005300008F0B4B894F840305BB1012B11D0022B15
:1005400017D0236B0132D2B2013384F85D202363CC
:10055000CEE704F144010E4807F0DCFB94F85D207F
:10056000EFE704F144010B4807F0D4FB94F85D2059
:10057000E7E794F8522094F85330009002F001021B
:10058000054805F0ABF994F85D20DAE75965FF1FDF
:100590000467FF1FEC99FF1F7051FF1FC36A23B14F
:1005A000026B93429CBF0023037508F06FB800BF35
:1005B00008B509F0F9FD034B1860BDE8084009F0E3
:1005C0006BBB00BF3065FF1F08B509F0EDFD044BA4
:1005D0000449186003220920BDE8084009F09CBACC
:1005E0005C65FF1FE905000008B509F0DDFD0D4B56
:1005F0000D4A1B681288C01A824211D2092009F0E4
:1006000007FB0A4A0A4B106842081344B3FBF0F098
:1006100009F0F6FE002009F067FF064B01221A7070
:1006200008BD00BF5C65FF1F3463FF1F2C17FF1F51
:10063000002A75157D3EFF1F704700BF704700BF41
:10064000214B10B45A6E1368506819780478507AA8
:10065000137A044201EA03011BD0937A03F00303E7
:1006600009B143F0040343F008039910013B917270
:100670000D2B0BD8DFE803F021071B070A152121FA
:10068000150A071B0721D368013BD3605DF8044BB3
:100690007047937A03F003030029E6D043F0040384
:1006A000E3E7D3685DF8044B023BD3607047D3683F
:1006B0005DF8044B0233D3607047D3685DF8044B98
:1006C0000133D360704700BFB065FF1F214B10B4EA
:1006D0001A6F1368506819780478507A137A0442B4
:1006E00001EA03011BD0937A03F0030309B143F03D
:1006F000040343F008039910013B91720D2B0BD8B2
:10070000DFE803F021071B070A152121150A071B43
:100710000721D368013BD3605DF8044B7047937A9F
:1007200003F003030029E6D043F00403E3E7D368B2
:100730005DF8044B023BD3607047D3685DF8044B0F
:100740000233D3607047D3685DF8044B0133D36044
:10075000704700BFB065FF1F70B5044608460D46E0
:100760000DF04EF823680246294620465B68BDE836
:100770007040184738B5044608460D460DF040F85D
:100780002368024629465B6820469847054620466E
:1007900008F0C6FA284438BD38B50A2200230546B9
:1007A00008F0E4FA0446284608F0BAFA204438BDB6
:1007B00038B5054608F01AFB0446284608F0B0FA9A
:1007C000204438BD38B50121022009F0E7FC0121A1
:1007D000052009F0E3FC01211F2009F0DFFC0121C5
:1007E0001A2009F0DBFC01211B2009F0D7FC0221B3
:1007F000182009F0D3FC0121232009F0CFFC0121AE
:10080000242009F0CBFC0121252009F0C7FC01219F
:10081000262009F0C3FC0121272009F0BFFC00219C
:10082000092009F0BBFC0021152009F0B7FC0121CB
:100830001A2009F09FFC01211B2009F09BFC0121DB
:10084000052009F097FC0021022009F093FC00210B
:10085000242009F08FFC0021252009F08BFC104C8E
:100860000021262009F086FC2720002109F082FCC7
:10087000651D102001E014F9010FC0B2012109F03B
:100880008DFCA542F7D1074C4220651D01E014F90B
:10089000010FC0B2002109F081FCAC42F7D138BD94
:1008A00030130100682A0100F8B5174E174F184D94
:1008B000184C314638463E2207F0C4FE2946F087E0
:1008C0003E22384607F0BEFE2146E8873E223846E3
:1008D00007F0B8FE4022E0871146304608F0B0FE2F
:1008E00028464022802108F0ABFE20464022C0214D
:1008F00008F0A6FE0F2108480BF064F80748BDE891
:10090000F84008F00DBA00BF4062FF1FB040FF1F63
:100910008062FF1F6465FF1F74130100A833FF1F6F
:10092000FFF7C2BF2DE9F8433B4C671CC7F14106F6
:1009300004F14005301908F03BFE04F8010FA54210
:10094000F8D1364C04F10108C8F1810604F14005E4
:10095000301908F02DFE04F8010FA542F8D1304CF3
:1009600004F10109C9F1C10604F14005301908F08C
:100970001FFE04F8010FAC42F8D13E2229492A4853
:1009800007F060FE97F83F2097F83E40C3B29A42C6
:100990002AD000243E2225492348254D07F052FE47
:1009A00098F83E1098F83F600346C3F30F22914237
:1009B00018BF0024DBB23E221B4829469E4218BFC6
:1009C000002407F03FFE99F83E20C0F30F239A421F
:1009D00011D0362117480AF0F5FF0024164808F018
:1009E0009FF92046BDE8F883C0F30F20041BB4FA3A
:1009F00084F46409CEE795F83F30C0B28342E8D171
:100A0000002CE6D036210D480AF0DCFF0A4808F039
:100A100087F92046BDE8F8833F62FF1F7F62FF1F12
:100A20006365FF1F4062FF1FB040FF1F8062FF1F12
:100A30006465FF1FBC130100A833FF1F841301006E
:100A400000B5134A134B1268134883B00192019A00
:100A50001A6008F08FFB00280CDD104B10480122B3
:100A60001D211A700AF0AEFF0E4808F059F903B0C4
:100A70005DF804FB1E210C480AF0A4FF094808F0A9
:100A80004FF9064B00221A7003B05DF804FB00BF5B
:100A900048CDFF1F1051FF1F9C3FFF1F2C65FF1FFC
:100AA000F4130100A833FF1F141401000B4808B50C
:100AB00083683BB90A4B0B491A680B48BDE80840EC
:100AC00008F046B908F056FB054B084902461A6083
:100AD0000548BDE8084008F03BB900BF9C3FFF1F38
:100AE0004017FF1F6C140100A833FF1F34140100CE
:100AF00038B50B480B4C08F03DFB0B490546024648
:100B0000204608F025F9094B53F8251020461C31E2
:100B100008F0E0F82046BDE8384008F001B900BF11
:100B20009C3FFF1FA833FF1FA8140100C051FF1FE7
:100B300070B500210C4807F0AFFE061E12DD0B4D0C
:100B4000002422460A490B4808F002F955F8041F10
:100B500008481C3108F0BEF80134064808F0E0F8F7
:100B6000A642EED170BD00BFE040FF1FBC51FF1F89
:100B7000A8140100A833FF1F08B50021044807F09E
:100B80008BFE04490246BDE80840034808F0E0B87F
:100B9000E040FF1FC0140100A833FF1F2DE9F04FF4
:100BA000B148ADF5177D08F04BF80021AF4807F0CC
:100BB00073FE4FF4807216A900238346AC4808F0F8
:100BC00071FA2C2311A916A8ADF844300CF0BAFE26
:100BD000014612A808F052F911A900200CF0B2FE4B
:100BE000002800F001820BF019FF0028C0F2998163
:100BF0005845A8BF5846074611A900200CF0A2FE90
:100C0000002800F0D3810BF009FF002840F38B810E
:100C1000FF28A8BFFF20C3B281460E9311A9002070
:100C20000CF090FE002800F0CB810BF0F7FE0028BE
:100C3000C0F27D8109F1FF388045A8BF804611A927
:100C400000200CF07FFE002800F09C810BF0E6FEF7
:100C50000228034611A9A8BF0223002023EAE37A51
:100C60000CF070FE002800F0B58100210A220DF082
:100C700009F8804B1B68834238BF034611A9002046
:100C80000B930CF05FFE002800F0868100210A2201
:100C90000CF0F8FF11A90C9000200CF053FE002876
:100CA00000F0AC8100210A220CF0ECFF11A90D909C
:100CB00000200CF047FE002800F046810BF0AEFE4D
:100CC0006D4EB37B80F3010060F3000311A9002097
:100CD000B3730CF037FE002800F049811022002188
:100CE0000CF006FF306011A900200CF02BFE00284C
:100CF00000F020810BF092FE0828A8BF082020EA0F
:100D0000E070F07310B35D4D00240AE00CF0F0FECB
:100D100080F308002870F37B0134A34205F101053C
:100D200014DD11A900200CF00DFE10220021002876
:100D3000ECD1FF232B7022465149524808F008F8A5
:100D4000F37B0134A34205F10105EADC149A56A9AC
:100D50000132002312A808F0A5F95F4580F2A280B5
:100D600056AB3A4648494748484C07F0F1FF0D9AC0
:100D7000B37B05920C9AF07B3168049203F0010377
:100D80000B9A03920693089007913B46CDF808A072
:100D9000CDF80480CDF8009056AA3D49394807F0B7
:100DA000D7FFF37B013B002B0DDDDFF8F090002532
:100DB00019F8012F3749334807F0CAFFF37B013593
:100DC000013BAB42F4DC334433491A7C2D4807F035
:100DD000BFFF54F8273096F80EE093F85210F57BD9
:100DE000306883F840A008F506726EF3000183F8BE
:100DF000521083F8535043F8220075B127494FEA47
:100E0000C808002254F8273011F8010F4344134456
:100E10000132954283F85E00F4D154F827009DF822
:100E2000382080F85C200023026880F85D300D9D3A
:100E300012680B990363C363C562904754F8270097
:100E40000C9B836312A91C3008F07AF847F22F52EA
:100E50001349054807F0AAFE12A807F0CFFF38464D
:100E60000DF5177DBDE8F08F0865FF1FE040FF1FFF
:100E70009C3FFF1F4017FF1F8C64FF1F9C64FF1FD8
:100E8000F0160100A833FF1F4C170100C051FF1FCF
:100E900068170100C4170100CC1701009B64FF1FF5
:100EA0007104000056AB5A4659495A485A4C07F04B
:100EB0004FFF4FF4466008F08FFD4FF4466200216B
:100EC00005460CF04DF90022114628460F9207F016
:100ED000F7FB0F9B514A2A60012219462B63AB6333
:100EE000EB6385F8403085F85D3085F8342085F86F
:100EF0005C2005F15E004FF400620CF031F90F9BAD
:100F00004FF48062194605F506600CF029F9294670
:100F1000434807F081FC0F9B2B755F4644F82B502C
:100F200025E7002768E601230E93994676E64FF001
:100F3000000884E638213B480AF044FD354807F0B4
:100F4000EFFE0823F373DEE63221374E37480AF00E
:100F500039FD304807F0E4FEB37B11A943F00103EB
:100F60000020B3730CF0EEFC00287FF4B7AE3621FE
:100F70002F480AF027FD274807F0D2FE6FF04043C4
:100F80003360B0E62D212B480AF01CFD214807F004
:100F9000C7FE6FF003075FE7332127480AF012FD11
:100FA0001C4807F0BDFE6FF0050755E742212348B6
:100FB0000AF008FD174807F0B3FE6FF001074BE792
:100FC00023211F480AF0FEFC124807F0A9FE6FF02B
:100FD000020741E734211B480AF0F4FC0D4807F0F2
:100FE0009FFE6FF0040737E7262117480AF0EAFC56
:100FF000084807F095FE4FF0FF372DE738211348DA
:101000000AF0E0FC034807F08BFE6FF0060723E7C9
:1010100034170100A833FF1FC051FF1F2413010024
:10102000E040FF1FB41601008C64FF1F481601004A
:101030007C16010070150100D8150100081501008B
:101040004C150100A0150100E01401000C16010070
:1010500008B500210D4807F01FFC00280CDD00F149
:1010600080410B4B013903EB81010020043B53F815
:10107000042F8B421075FAD1222106480AF0A2FCF7
:101080000548BDE8084007F04BBE00BFE040FF1F29
:10109000C051FF1FD4170100A833FF1F2DE9F041F5
:1010A0000021134807F0F8FB012814DD114EDFF88A
:1010B00050800746012556F8044F0135204644B1BB
:1010C00040F81C8B07F09AFE20464FF4466108F06A
:1010D00085FCAF42EFD1064807F0CAFB482106481D
:1010E0000AF070FC0548BDE8F04107F019BE00BFEA
:1010F000E040FF1FC051FF1FF8170100A833FF1F7A
:10110000E42F010010B500210F4807F0C5FB0028AF
:1011100011DD0E4A00F18040013802EB800001240D
:10112000043A002152F8043F82421C75196383F887
:101130005D10D963F6D1232105480AF043FC054828
:10114000BDE8104007F0ECBDE040FF1FC051FF1F9D
:1011500044180100A833FF1FF0B5002185B02748CF
:1011600007F09AFB051E31DD0A2201A9002324485D
:1011700004AE07F097FF2C2326F8103D01A8314656
:101180000CF0E0FB0BF04AFC002835DB013DA842E7
:10119000A8BF28460446314600200CF0D3FB0BF0D4
:1011A0003DFC0028174B1ADD53F824501649D5F89A
:1011B000603816480026012722462F752E6385F8D1
:1011C0005D60EE6307F0C4FD05B0F0BD2721104857
:1011D0000AF0F8FB0D4807F0A3FD05B0F0BD53F889
:1011E00024500C49D5F860380848002622462E7550
:1011F00007F0AEFD05B0F0BD0024CCE7E040FF1FD6
:101200009C3FFF1FC051FF1F68180100A833FF1F3C
:10121000B81801009018010010B5014604460A48AC
:1012200007F0E4FD34B9094A094B92E8030018605D
:10123000998010BD074A064B07CA03C323F8022B47
:10124000120C1A7010BD00BFA833FF1FEC1801006C
:10125000D861FF1FE0180100013830B406282DD8EE
:10126000DFE800F00F171F21282A0400144D154C49
:101270000FCD0FC495E8030044F8040B217030BC77
:101280007047114D0F4C0FCD0FC42B68237030BC2D
:1012900070470E4D0B4C0FCD0FC42B68236030BC34
:1012A00070470B4DE3E70B4B064C0FCB84E80F0068
:1012B00030BC7047084DE5E7084DD8E7084DE9E731
:1012C00070190100D861FF1FF4180100081901000E
:1012D0001C190100341901004419010058190100BA
:1012E000881901001A4B1B4A18781B4B1278197881
:1012F0001A4B70B51A4C1B7826781A4D1A4C2D785B
:101300002478800040EA42020A4342EAC60242EAE6
:10131000031242EA431343EA851300211A2043EAE9
:10132000C41408F027FF114B1A68E4B24FF00043D1
:10133000D3625463D36A002BFCDA01211A20936B29
:1013400008F018FF0A4B83F83C40204670BD00BFF0
:101350001451FF1F6265FF1FCC62FF1F4C65FF1F0A
:10136000F664FF1F6065FF1FC061FF1FA426FF1FFB
:101370008062FF1FF8B51B4B1B4A19781B4B17786F
:101380001B4A18781B4B12781B4C1B781B4D24787A
:101390001B4E2D78890041EA4701014341EAC20210
:1013A00042EA031242EA4413347843EA85130021E7
:1013B0001B2043EAC41408F0DDFE124B1A68E4B2A5
:1013C0004FF00043D3625463D36A002BFCDA01214F
:1013D0001B20936B08F0CEFE0B4B83F82F4020466A
:1013E000F8BD00BF7126FF1F6417FF1F3017FF1FD6
:1013F000D562FF1FA151FF1FA351FF1F8926FF1FA9
:101400005865FF1FA426FF1F4062FF1FF0B5234F42
:10141000234E244DDFF8C0E0234B244C244A2549B9
:1014200000F0010C87F800C0C0F3C00CC0F3400707
:1014300086F800C0C0F3801C2F70C0F30016C0F304
:1014400080051D4F8EF800C0C0F3C01E1D702670B1
:1014500082F800E0C0F34014184B194D0C70C0F333
:10146000402EC0F30022174987F800E0C0F3802720
:101470001A702F70144E154C154A164BC0F3C02528
:10148000C0F300370D70C0F34035C0F38031C00B9E
:101490003770257011701870F0BD00BF2D51FF1FFF
:1014A000D461FF1F7026FF1F3C62FF1F4C17FF1FF8
:1014B000A451FF1F3817FF1F4D65FF1FAC65FF1FAD
:1014C0006C51FF1F2E51FF1FA051FF1F6165FF1FB1
:1014D0000465FF1F9A3FFF1F8826FF1F431E0F2B27
:1014E00030B445D9A0F11103072B35D9A0F1190368
:1014F000072B48D9A0F12103032B4ED9A0F12503D6
:101500000B2B40D9312833D032283CD0A0F1330303
:101510000F2B4DD9A0F14303072B34D9A0F14B0376
:10152000022B25D9A0F14D03032B41D9A0F1510382
:10153000012B52D9A0F15303022B43D9573801286C
:1015400021D8284C2849294B002541F28830012216
:10155000256008601A6009E0224C2349234B0025CE
:1015600041F28D301422256008601A6030BC70474B
:101570001C4C1D491D4B0025FF20012225600860E1
:101580001A6030BC704717481749184A00240123D5
:1015900004600B60136030BC7047124C1249134B4F
:1015A000002541F28D300122256008601A60DDE7D8
:1015B0000C4C0D490D4B00250720012225600860C9
:1015C0001A60D3E7074C0849084B00254FF6FF7017
:1015D0000122256008601A60C8E7024C0249034BEB
:1015E000F525F3E70065FF1F3C17FF1F6817FF1F76
:1015F00030B50E4D0E4CC1B0002328466946FF227F
:1016000007F050FD4FF4807268464FF47A7108F08D
:1016100017F8062107480AF0D5F92946204607F0B1
:1016200059FB204607F07CFB41B030BDC461FF1F71
:10163000A833FF1F9C190100F0B5C5B004AFC7F572
:101640007A7501350DF10F040DF20F16281907F008
:10165000AFFF04F8010FB442F8D13B78FF2B17D04D
:101660003946684607F00AFC69460B4807F070FCEB
:10167000684607F0C3FB072108480AF0A3F90649AA
:10168000074807F027FB064807F04AFB45B0F0BDC6
:10169000FFF7AEFF45B0F0BDC461FF1FA419010004
:1016A000A833FF1F10B50948094C07F063FD094B2B
:1016B000003018BF0120187009F000F90023064817
:1016C000064A237001210370117010BD9C3FFF1F5B
:1016D000D462FF1F2C51FF1F6365FF1F4D17FF1FB3
:1016E0002DE9F04F88488268AFB0002A52D000231D
:1016F00015A907F0D7FC9DF85430312B64D0302B5E
:1017000065D0322B14BF4FF0FF394FF002092C2166
:101710007D4807F0E1FC451C04462A462C217A4806
:1017200007F0EAFC002C074645DD012843DD2A4688
:1017300008A83B46744907F0F1FC08A805A9002356
:10174000092207F0AFFC05A80CF05AF80024054662
:10175000264607E012F8A40C0BF09CF90134012690
:10176000002837D0E3B22EAA9D421A44F2D88EB395
:1017700010220DEB020105A80CF084FA634DC20A99
:10178000AB7B00F0A48020F0404043F001032860D0
:10179000AB7328E026215E485C4D0AF013F95D48E2
:1017A00007F0BEFAAB7B082243F00103AB73EA7388
:1017B0002FB0BDE8F08F554D57487A210AF002F955
:1017C000544807F0ADFAEDE74FF001099FE74FF0FD
:1017D00000099CE7172151484C4D0AF0F3F84D4899
:1017E00007F09EFA00267A1C0CA847490DF1400824
:1017F00007F0B8FC0CA841460023112207F052FC68
:1018000040460BF0FDFF40085FFA80FAE8734FEAAC
:101810004A07BAF1000F6FD000231C4601E0BC421A
:1018200018DA2EAA1344013413F8780C0BF032F9AD
:10183000E4B223460028F2D1432139480AF0C2F825
:10184000344807F06DFA0CA807F0D8FA08A807F09A
:10185000D5FAB1E7BAF1000F1BD00024DFF8D8A009
:10186000A346474618F814007B788DF80C00102228
:101870000DEB020103A88DF80D308DF80EB00CF0C1
:1018800037F90AF8010FEB7B0134A34207F1020795
:10189000E8DC0CA807F0B2FA08A807F0AFFA002EAF
:1018A0008AD0B9F1000F0DD0B9F1010F1FD0B9F1F5
:1018B000020F11D022211B480AF084F8154807F0C6
:1018C0002FFA6FE71149184806F024FA6AE762F325
:1018D00000032860AB7386E7AA7B1448EB7B29687A
:1018E000009002F00102124803F0F8FF5AE707499E
:1018F000104806F00FFA55E70CA807F07FFA08A881
:1019000007F07CFA58E700BF9C3FFF1F8851FF1F7C
:101910006C1B0100A833FF1FF01A0100701A0100B0
:10192000881A0100CC1A01000467FF1F9851FF1F9D
:101930007051FF1FEC99FF1F9751FF1F2DE9F04FCA
:101940007148724B84681B68704AADF21C7DB4F517
:10195000E06F01934FF00103136080F0C58006AF84
:10196000E2183946002307F09DFB694B2546A4B2D7
:10197000A3FB0423E21A03EB52039B08C3EBC3024D
:10198000A21A1FFA83FA92B25FFA8AF3002A40F091
:10199000B7802A465F4905A80BF03EFE52465D49D6
:1019A00003A80BF039FE5C495C4807F0D9FA5C4BA0
:1019B0005C491A7804A80BF02FFE04A9574807F0D9
:1019C00011FB5949554807F00DFB05A9534807F08D
:1019D00009FB5649514807F005FB03A94F4807F09A
:1019E00001FB53494D4807F0FDFA4C49514807F0B7
:1019F00071F9504807F094F9FFF7D0F8BAF1000FE9
:101A00006AD04FF0000846460AF101094A494348A6
:101A100007F0A6FA4A46494904A80BF0FDFD013635
:101A200004A93E4807F0DEFA3246444904A80BF008
:101A3000F3FD04A9394807F0D5FA4149374807F0C2
:101A4000D1FA4A463D4904A80BF0E6FD04A9334803
:101A500007F0C8FA3B49314807F0C4FA304B314926
:101A60001A7804A80BF0D8FD04A92C4807F0BAFA9C
:101A700035492A4807F0B6FA32462A4904A80BF03D
:101A8000CBFDC6EBC60B04A9244807F0ABFAC3454F
:101A9000444612DDAC422349A8BF22494FF0FF0261
:101AA00004A8B4BF3A5D04A80BF0B6FD013404A944
:101AB0001A4807F097FAA345ECD118491D4807F0DA
:101AC00009F91C4807F02CF9FFF768F81F4BB245DD
:101AD00008F10708186099D19DF804300B4A13608B
:101AE0000DF21C7DBDE8F08F06AF394600234FF4A0
:101AF000E06207F0D7FA4FF0000A40F2FF6548E7CE
:101B000001335FFA83FA44E7C461FF1F4017FF1FE8
:101B100025499224941B01009C1B01009C3FFF1F40
:101B20006D17FF1F741F0100C01B0100E41B0100A3
:101B3000C81B0100A833FF1FD81B0100E81B0100D0
:101B4000EC1B0100F41B0100001C01001065FF1FCD
:101B500070B5FFF7F3FE0C4C4BF6803604F5A87514
:101B600021460A4807F0ECF9FFF718F83346013B25
:101B7000FDD11034AC42F3D10549044807F0F0F927
:101B8000BDE87040FFF7BEBA3863FF1F9C3FFF1FE0
:101B9000041C010084B0F8B506AC84E80F009DF881
:101BA0003070384E044606F0F3FB032105463648F4
:101BB00009F008FF280E09F08DFFC5F3074009F072
:101BC00089FFC5F3072009F085FFE8B209F082FF1D
:101BD000384609F07FFF08F0E7FA3368C01AC0F30F
:101BE000074009F077FF08F0DFFA3368C01AC0F346
:101BF000072009F06FFF08F0D7FA3368C01AC0B2A7
:101C000009F068FF9DF82630200E03F0010340EA3A
:101C1000C31009F05FFFC4F3074009F05BFFC4F392
:101C2000072009F057FFE0B209F054FF9DF82700A4
:101C300009F050FF9DF8280009F04CFF9DF829009D
:101C400009F048FF9DF82A0009F044FF9DF82B0099
:101C500009F040FF9DF82C0009F03CFF9DF82D0095
:101C600009F038FF9DF82E0009F034FF9DF82F0091
:101C700009F030FFBDE8F8400121044804B009F044
:101C8000A1BE00BF3065FF1FA4290100682C010020
:101C90002DE9F043002489B0234604A90F221E48F1
:101CA000069404940594CDF81B4007F0FBF904A8B2
:101CB0000AF0B8FE0A28054608D858B11C21174872
:101CC00009F080FE164807F02BF82546284609B093
:101CD000BDE8F08306F0FCFB044606F0E9FB06468F
:101CE00006F0D6FB814606F0A3FB074606F0B0FBE4
:101CF000804606F0BDFBCDF800900390CDF808803B
:101D00000197334622460749054807F021F828463F
:101D100009B0BDE8F08300BF9C3FFF1F341C0100E9
:101D2000A833FF1F081C01002DE9F04184B0FFF724
:101D3000AFFF08B3044607F0B5FF204606F0DAFB14
:101D400006F0C6FB044606F0B3FB054606F0A0FB12
:101D5000804606F06DFB064606F07AFB074606F065
:101D600087FBCDF800800390029701962B46224610
:101D70000349044806F0ECFF04B0BDE8F08100BF61
:101D8000541C0100A833FF1F08B506F007FC0349E7
:101D90000246BDE80840024806F0DABF801C010098
:101DA000A833FF1F84B070B584B008AC84E80F007E
:101DB0000B9C0A980E990D9A03918DE811000292DE
:101DC0009DF820302E9A1449144806F0C1FF08AC43
:101DD00026AE25462A6A12491048083506F0B8FF93
:101DE000B542F7D10F9A0F490C4806F0B1FF626A6D
:101DF0000B490A48083406F0ABFFA642F7D101218F
:101E0000094809F0DFFD054806F08AFF04B0BDE887
:101E1000704004B0704700BF881C0100A833FF1F4A
:101E2000001D0100081D0100201D010070B5F0B06B
:101E300024AC98252A4688262046124907F09AFCA9
:101E400028A9324600236846229307F093FC94E8C1
:101E50000F00FFF7A7FF2A464AA80B4907F08AFCA4
:101E60002A464AA9204607F085FC324628A90123C4
:101E70006846229307F07EFC94E80F00FFF792FF7C
:101E800070B070BD4C99FF1F34CCFF1F38B50B4D9F
:101E90000B4C284605F0CCFE204605F0C9FE43F267
:101EA000482301221C210748EA54E25409F08AFD24
:101EB0000548BDE8384006F033BF00BF0467FF1F88
:101EC000EC99FF1F241D0100A833FF1F10B5074C1C
:101ED0000748312109F076FD2046064906F0FAFE52
:101EE0002046BDE8104006F01BBF00BFA833FF1F0F
:101EF000441D0100C461FF1F124908B58B680B2BFC
:101F000013D9114807F01CF8FFF772FB17210F488F
:101F100009F058FD0C490E4806F0DCFE0C4806F0AE
:101F2000FFFEBDE80840FFF709BD1821094809F088
:101F300049FD0549064806F0CDFE0548BDE80840C4
:101F400006F0EEBE9C3FFF1FC461FF1F941D010001
:101F5000A833FF1F781D01002A4B984248D011D8A2
:101F600044F62063984241D01BD841F2883398420E
:101F700036D042F2107398423CD0B0F5805F31D039
:101F8000FF207047204B984238D018D81F4B9842FA
:101F900024D01F4B984227D01E4B9842F0D10920E5
:101FA000704749F64043984214D04CF2503398425F
:101FB00026D047F612239842E2D104207047164BF0
:101FC000984209D0154B984216D0154B9842D7D15C
:101FD0000D207047062070470F2070470A20704779
:101FE00001207047002070470B2070470320704786
:101FF00008207047022070470E2070470C20704761
:10200000072070478038010090D0030048E80100A5
:10201000400D0300A08601002A2C0A0040420F0058
:1020200020A10700F0B5104D104A114F83B00024D5
:1020300023462846214643F2E426009405F082FC1C
:1020400019210C4809F0BEFC2346A9590A2238463A
:1020500006F08CFE384606F063FEA859FFF77CFFB9
:10206000054B187503B0F0BD0467FF1FD4CCFF1FEC
:10207000A833FF1FAC1D01008062FF1FF0B5104D9B
:10208000104A114F83B0002423462846214643F2CC
:10209000E426009405F056FC19210C4809F092FC46
:1020A0002346A9590A22384606F060FE384606F053
:1020B00037FEA859FFF750FF054B587503B0F0BD28
:1020C000EC99FF1FD4CCFF1FA833FF1FC81D0100D0
:1020D0008062FF1F10B52648836884B06BBB254C17
:1020E0002068FFF739FF012302460321224803F04D
:1020F000A5FBD0B11D21214809F064FC204806F061
:102100000FFE1B211F4809F05DFC00230A222168F5
:102110001B4806F02BFE1A4806F002FE2068FFF767
:102120001BFF194B987504B010BD2121174809F009
:1021300049FC134806F0F4FDE3E7002301A9092256
:1021400006F0B0FF0A22002101A80BF09BFD104B06
:10215000104A014603F1380003E08342BFD053F830
:10216000042F9142F9D1034C08462160B9E700BF22
:102170009C3FFF1F6017FF1F7051FF1F081E0100CB
:10218000A833FF1F281E01008062FF1FE41D01000D
:102190003813010090D0030010B513211548164CD8
:1021A00009F010FC154B0A2219682046002306F09E
:1021B000DDFD204606F0B4FD1321114809F002FCB4
:1021C000104B0A2219682046002306F0CFFD204656
:1021D00006F0A6FD15210C4809F0F4FB0B4B204638
:1021E00019680A22002306F0C1FD2046BDE8104010
:1021F00006F096BD441E0100A833FF1F4417FF1FC1
:10220000581E01004817FF1F6C1E01006017FF1FBA
:1022100030B5214883B006F0ADFF00282ADDFFF776
:102220008DFB1E4B1E482B2101241C7009F0CAFB9C
:102230001C4806F075FD1C491C4A0B680093009B66
:10224000156841F288305B1B834211D91848096830
:10225000184B0068019153F8203001991160002259
:102260001C7583F834401A639A63DA6383F85D203F
:1022700003B030BD094B104800242C211C7009F01C
:10228000A1FB084806F04CFD094A0A4B126853F8B6
:1022900022301C7503B030BD9C3FFF1FF464FF1F4C
:1022A000841E0100A833FF1F48CDFF1F4865FF1F94
:1022B0001065FF1FC051FF1FB01E010008B506F0DA
:1022C00067F803490246BDE80840024806F040BDF1
:1022D000E01E0100A833FF1F08B50E4806F04AFFB4
:1022E00000280BDD0C4B0D48012217211A7009F054
:1022F00069FB0B48BDE8084006F012BD18210948EB
:1023000009F060FB064806F00BFD034B00221A7033
:1023100008BD00BF9C3FFF1F1865FF1F081F01007D
:10232000A833FF1F201F010008B50E4806F022FF4A
:1023300000280BDD0C4B0D48012215211A7009F005
:1023400041FB0B48BDE8084006F0EABC16210948ED
:1023500009F038FB064806F0E3FC034B00221A7034
:1023600008BD00BF9C3FFF1F6617FF1F3C1F0100F9
:10237000A833FF1F541F01002DE9F04F83B008F070
:1023800041F918B3AA4B1C786CB10022A94D1A7000
:1023900007F00AFF2B68C01AB0F57A6F46D3A64C37
:1023A0000123237014E0A54D2E78002E48D1A44CB3
:1023B0002778002F65D1A34B1A78002A40F0888037
:1023C000A14B1B78002B72D108F02CF9994D9A4C37
:1023D00007F0EAFE2B684CF25032C01A90421FD927
:1023E0000123237007F0E0FE2B6842F22832C01A66
:1023F000904212D90021092007F0D0FE0222934911
:10240000904D092007F088FB8D4889498B4A0023AD
:102410002B70237003700B70137003B0BDE8F08F46
:102420002378002BDED103B0BDE8F08F08F0FAF876
:10243000C0B25528ACD1814B7F4C01221A70C7E73E
:1024400008F0F0F8824ADFF838E2824E7C492C70BE
:10245000C0B200F0200300F00F0701251470C2067F
:102460008EF80000DBB237700D702AD5002B00F01B
:10247000C080794B08221A70202800F081806D4DB1
:102480008DE7734D2F7808F0CDF82B78724A734999
:102490001278C8550133DBB29A422B7096D1694B42
:1024A000267001222E701A70624D634C90E708F07E
:1024B000B9F86B495F4D604C02466A4806F048FC2B
:1024C00086E7002B00F09580634B04221A70D3E757
:1024D000DFF8ACB1604E019308F0A4F8DFF8A491E6
:1024E0005B4D9BF8004096F800E089F8000004F08E
:1024F0003F042F70019BBEF1000F0CD0574F0EF11F
:10250000FF307A1E57FA80F012F8011F90420C44F7
:10251000FAD185F800E054484B4FDFF86CA13A78C7
:1025200084FB00016018E117C1EBE011C1EB012150
:10253000611A414CC94301204FF000088AF800108D
:10254000207083F80080002A57D12A70BEF1000F56
:102550000CD0DFF80881002352B92B783178013391
:10256000DBB299422B70F7D8002A56D1314D2FE7B4
:1025700018F803203D493B4806F0EAFB3A78ECE7BF
:102580003B4DDFF808812B783A4A190101332B7053
:1025900098F800300D270446013114204FF0020E48
:1025A000D7701646517082F802E010701546D71C9D
:1025B000044433B9AF4209D015F8010F0444002B8D
:1025C000F8D007F0C7FF98F80030F3E7264884FBFF
:1025D00000016018E217C2EBE010C0EB0020201AE7
:1025E000C043C0B23071002B3FF449AF07F0B2FFD7
:1025F00045E7194B02221A703EE707F0D5FD9BF81C
:1026000000301D490246174806F0A2FB337885F8D2
:1026100000803A78002B9CD1A6E79AF8003099F810
:10262000002016490F48034D06F092FBD0E600BF8C
:102630007D3EFF1F5C65FF1F1963FF1F6D51FF1F6C
:10264000C462FF1F983FFF1F1865FF1FC9050000E8
:10265000C161FF1F6E51FF1F8B64FF1F5065FF1F7D
:10266000881F0100A833FF1F81808080741F010034
:10267000A251FF1FB03FFF1F6C1F01007C1F010014
:10268000FC64FF1FAC3FFF1F3465FF1F6617FF1F71
:1026900010B5074C0748092109F094F9204606496E
:1026A00006F018FB2046BDE8104006F039BB00BF1D
:1026B000A833FF1F981F0100A851FF1FF0B5AB49B9
:1026C000AB48AC4DAC4C8BB006F0D8FBAB4AAC4938
:1026D000A7480AF09DF9AB49AB4806F0CFFBA74AE3
:1026E000A749A9480AF094F9A849A94806F0C6FBE9
:1026F000A24AA349A6480AF08BF9A649A64806F0C3
:10270000BDFB9E4A9E49A4480AF082F906A8984952
:1027100006F0DAFB06A8A14906F08EFC9A4906F0FD
:1027200083FC9F4906F088FC994906F07DFC9B4993
:1027300006F082FC984906F077FC9A4906F07CFC8A
:102740000146994806F0C0FB06A806F057FB8B4AE5
:102750008B4995480AF05CF906F0DEFE934805F0D7
:1027600087FF934B854A934980261E7118460026A1
:102770001E600AF04DF91F218F4803F051F83146D1
:102780008E4806F07BFB7D4A7D498C480AF040F973
:1027900031468B4806F072FB784A794988480AF03E
:1027A00037F92B68019301992B680293029A2B68E1
:1027B0000393844B03981960834B2F6883491A60F5
:1027C0000497834B049A1A60086007F0EDFC814B74
:1027D000186007F0E9FC2B687F4A05937F4B106077
:1027E0000221059A1A601C2007F0D8FC022119204A
:1027F00007F0D4FC7A4A7B4BD2F8E010D2F8C8201C
:10280000E66001F5007002F5007620600120666048
:1028100020726072013BFDD191F8003292F80022E3
:10282000714F72493C67D20703EA000344BF43F08B
:102830000203DBB204221C20A372012607F06CF90C
:1028400004226B497C661920267407F065F9227C06
:10285000684969483244227406F024FB6749684895
:1028600006F020FB6749684806F01CFB674968488A
:1028700006F018FB6749684806F014FB674968488A
:1028800006F010FB6749684806F00CFB674968488A
:1028900006F008FB6749684806F004FB674968488A
:1028A00006F000FB6749684806F0FCFA674968488B
:1028B00006F0F8FA6749684806F0F4FA674968488C
:1028C00006F0F0FA6749684806F0ECFA674968488C
:1028D00006F0E8FA6749684806F0E4FA674968488C
:1028E00006F0E0FA6749684806F0DCFA674968488C
:1028F00006F0D8FA6749684806F0D4FA1F4A6749D3
:1029000000200AF085F80021654805F04DFF1B4ABC
:10291000644963480AF07CF833463246182162481D
:1029200003F0C0F907F040FC604B61491B68614A45
:10293000086003EB430103EB810306A85E491380A3
:1029400006F09CFA124906A806F06EFB134906F041
:1029500073FB5A4906F070FB0146594806F0B4FA79
:1029600006A806F04BFA054AACE000BFA41F010020
:10297000D040FF1F48CDFF1F1851FF1F0C08FF1F3D
:10298000FD8D0000AC1F0100A464FF1FB41F0100F7
:102990001C65FF1FB81F01003865FF1FC01F010025
:1029A000C41F0100C81F0100C461FF1FB040FF1F0A
:1029B0000865FF1F7D0400007051FF1FB440FF1F1A
:1029C0009C3FFF1F1465FF1FA865FF1FC062FF1F0C
:1029D0001051FF1FC840FF1F3065FF1F4865FF1FD4
:1029E0007C300100C0D40100B065FF1FCD0600009F
:1029F00041060000D41F01003863FF1F2C20010096
:102A00004863FF1F842001005863FF1FDC20010082
:102A10006863FF1F342101007863FF1F8C210100D0
:102A20008863FF1FE42101009863FF1F3C2201001F
:102A3000A863FF1F94220100B863FF1FEC2201006E
:102A4000C863FF1F44230100D863FF1F9C230100BC
:102A5000E863FF1FF4230100F863FF1F4C2401000B
:102A60000864FF1FA42401001864FF1FFC24010058
:102A70002864FF1F542501003864FF1FAC250100A6
:102A80004864FF1F042601005864FF1F5C260100F4
:102A90006864FF1FB42601007864FF1F89040000EA
:102AA000E040FF1FA50400003051FF1F3417FF1F37
:102AB0005C65FF1F3463FF1F0C270100182701000E
:102AC000A851FF1F0549064809F0A2FF2B6806938D
:102AD000069A044B1A600BB0F0BD00BFFD8D0000DC
:102AE000A851FF1FD062FF1F2DE9F0437E4E7F4C9F
:102AF00083B007463A217E4808F064FF0023102285
:102B00003946304606F032F9304606F009F93946C2
:102B1000204603F085FD2046802103F0A9F92046D8
:102B20000021002503F0A4F92046102103F0A0F9AC
:102B3000627B216900950123204604F083F8394621
:102B4000204603F06DFD2046802103F091F94FF0FF
:102B50000108627B216900952046012304F072F888
:102B6000617B206901953A460223CDF8008004F08C
:102B70007FF8206904F096F8206904F093F81F218B
:102B800081465C4808F01EFF2B4610225FFA89F14F
:102B9000304606F0EBF8304606F0C2F816215648EB
:102BA00008F010FF304606F0BBF83946204603F027
:102BB00037FD2046602103F05BF92046FF2103F03A
:102BC00057F92046FF2103F053F9627B21690095F4
:102BD0004346204604F036F83946204603F020FDEF
:102BE0002046602103F044F9627B21690095434649
:102BF000204604F027F8617B206901953A460223BC
:102C0000CDF8008004F034F8206904F04BF8206916
:102C100004F048F80F218146384808F0D3FE2B46CF
:102C200010225FFA89F1304606F0A0F8304606F02F
:102C300077F82621324808F0C5FE304606F070F8D5
:102C40003946204603F0ECFC2046402103F010F901
:102C500020461F2103F00CF92046FF2103F008F95C
:102C6000627B216900954346204603F0EBFF39461D
:102C7000204603F0D5FC2046402103F0F9F8627BA2
:102C8000216900954346204603F0DCFF617B206903
:102C900001953A460223CDF8008003F0E9FF206950
:102CA00004F000F8206903F0FDFF102104461548E8
:102CB00008F088FE2B46E1B20222304606F056F8B4
:102CC000304606F02DF81B210F4808F07BFE2B46FE
:102CD00039463046102206F049F8304603B0BDE8C8
:102CE000F04306F01DB800BFA833FF1FD866FF1FD2
:102CF000202701005C2701007C27010094270100A8
:102D0000A4270100CC270100E0270100F0B507EE61
:102D1000900A2DED028B374C9FED378AF8EEE77A5B
:102D200087B00E4620461146174627EE888A03F0E4
:102D300077FC06F12001C9B2204603F099F8FCEEB9
:102D4000C87A2046CDED037ABDF80C50C5F30711C3
:102D500003F08EF8290101F0F0010025204603F070
:102D600087F8627B216900950123204603F06AFF02
:102D70003946204603F054FC06F11001C9B2204642
:102D800003F076F8627B216900952046012303F069
:102D900059FF01233A46617B019500932069022384
:102DA00003F066FF206903F07DFF0546206903F00C
:102DB00079FF2D01C0F3031005F47F652B1807EE92
:102DC000903A9FED0E7A0E4BF8EEE77A06AA67EE80
:102DD000877A03EB4606FCEEE77ACDED037ABDF881
:102DE0000C0022F8020D1388A6F8113007B0BDECD4
:102DF000028BF0BDD866FF1F8DC34F3FAFB79D3F1D
:102E00004062FF1F394B3A4A18783A4B12781978CA
:102E1000394BF0B5394C3A4D27781B78394C2E7820
:102E2000394D2478800040EA42020A4342EAC70250
:102E300042EA031343EA46132A78344E344D43EAF8
:102E4000841485B044EAC2143046232103F0E8FB21
:102E5000E4B23046122103F00BF800272146304639
:102E600003F006F8727B316900973046012303F0C6
:102E7000E9FE284B284A1878284B12781978284BF5
:102E800095F800E01B78800040EA420225480A439A
:102E9000254905782548097842EACE0242EA03131B
:102EA00043EA4513027843EA811545EAC2153046E4
:102EB000232103F0B5FBEDB23046132102F0D8FF19
:102EC0002946304602F0D4FF727B316900973046C4
:102ED000012303F0B7FE04AB04EB052423F8024DF5
:102EE000134A1B88A2F8213005B0F0BD3C62FF1FD9
:102EF0007026FF1F2D51FF1F4C17FF1FD461FF1FAE
:102F00003817FF1F8826FF1FA451FF1FD866FF1F19
:102F10002E51FF1F6C51FF1F4D65FF1FAC65FF1F3A
:102F2000A051FF1F6165FF1F0465FF1F9A3FFF1F30
:102F30004062FF1FF0B53D4C072805460E4683B0A2
:102F40004FF02701204661D803F06AFB01271221C8
:102F5000204602F08DFF07FA05F1C943C9B22046A9
:102F600002F086FF4FF0000E627B2169CDF800E091
:102F70003B46204603F066FE012007F039F92C4B52
:102F80001B684FF000414022D9625A63DA6A002A76
:102F9000FCDA06F10801C9B24FF00042986BDA6220
:102FA0005963DA6A002AFCDA4FF000414C22986B30
:102FB000D9625A63DA6A002AFCDA4FF00041FF2234
:102FC000986BD9625A63DA6A002AFCDA986B072D8B
:102FD000C6B24FF02701154824D903F021FB132175
:102FE000124802F045FFFF21104802F041FF002384
:102FF0000093627B21690D48012303F023FE0D4BF2
:103000001D4406F00700687003B0F0BD03F008FB34
:103010001321204602F02CFF0127A5F1080107FA31
:1030200001F19AE703F0FCFA1221D9E7D866FF1FF5
:10303000A426FF1F8062FF1FF0B53B4C0728054602
:103040000E4683B04FF0270120465DD803F0E8FA22
:1030500001271221204602F00BFF07FA05F1C943B0
:10306000C9B2204602F004FF4FF0000E627B2169D6
:10307000CDF800E03B46204603F0E4FD012007F0D8
:10308000B7F82A4B1B684FF000410022D9625A63FF
:10309000DA6A002AFCDA4FF00042996BDA625E636A
:1030A000DA6A002AFCDA4FF000410C22986BD962F0
:1030B0005A63DA6A002AFCDA4FF00041FF22986B6B
:1030C000D9625A63DA6A002AFCDA9E6B1648072D29
:1030D000F6B24FF0270123D903F0A2FA13211248C8
:1030E00002F0C6FEFF21104802F0C2FE002300934A
:1030F000627B21690C48012303F0A4FD0C4B1D44A5
:1031000030466E7003B0F0BD03F08AFA13212046FA
:1031100002F0AEFE0127A5F1080107FA01F19EE7D2
:1031200003F07EFA1221DAE7D866FF1FA426FF1FFC
:103130004062FF1F70B51E4C054682B00E46204609
:10314000294603F06DFA4021204602F091FE46F038
:10315000F8012046002602F08BFE627B2169009672
:103160000123204603F06EFD0123617B00932A4674
:1031700002232069019603F07BFD206903F092FD94
:10318000206903F08FFD3C2D00F0070007D03F2D94
:1031900009D03D2D04BF074BD87402B070BD054B5C
:1031A000587402B070BD034B987402B070BD00BF7C
:1031B000D866FF1F8062FF1F70B5224C054682B0A3
:1031C0000E462046294603F02BFA0021204602F045
:1031D0004FFE31462046002602F04AFE627B2169FE
:1031E00000960123204603F02DFD0123617B00930F
:1031F0002A4602232069019603F03AFD206903F074
:1032000051FD206903F04EFD3C2DC0B20AD03F2D88
:103210000DD03D2D10D03E2D04BF0B4B83F8300058
:1032200002B070BD084B83F8310002B070BD064B90
:1032300083F8320002B070BD034B83F8330002B054
:1032400070BD00BFD866FF1F4062FF1F2DE9F04729
:10325000054684B00C461646002A40F098806F1E42
:103260005FFA87F8B8F10F0F29D8002CC0F2B880A8
:10327000DFF8D892E1B209F807104046FFF7DCFE0C
:103280009F4B0446D95D4046FFF754FE9EB1002394
:103290000A2219F807109B4805F068FD02219A4898
:1032A00008F090FB00230A222146964805F05EFDB7
:1032B000944805F035FD20B204B0BDE8F087A5F1D3
:1032C0001107FFB2072F12D8002CC0F2D7808F4D04
:1032D000A0B225F8170049223946FFF717FD002E46
:1032E00040F0858035F9170004B0BDE8F087192D4E
:1032F00000F086801A2D00F09E801B2D00F0B58016
:103300001C2D00F0C8801D2D00F09D801E2D00F0AA
:10331000CB801F2D00F0D180202D00F07481A5F10D
:103320002107FBB2032B00F21581002C784BDFF84C
:10333000E481C0F2C981B4F5805FA8BF4FF4805426
:1033400003EB470928F8174009F12309714DDFF80D
:1033500000A20024102001E01AF9010F35F8021B29
:10336000C0B2013406F0B0FC062CF5D138F8174095
:10337000ADF80E4036B12146624805F037FD614890
:1033800005F0CEFCBDF80E30A9F8003093E70A2214
:10339000002301465B4805F0E9FC02215A4808F089
:1033A00011FB05EB85075C4BFF0003EB070840466C
:1033B0000AF026FA0146404608F004FB0221524872
:1033C00008F000FB554B1F4438460AF019FA014635
:1033D000384608F0F7FA0321514808F0F3FA3EE7BF
:1033E0004B4BDFF86891595D09F8071045E735F850
:1033F0001710444805F0FAFC424805F091FC71E7CB
:10340000002C74DB474C14BF012300232370FFF70B
:10341000F9FC66B12078FDF7FFFE43480AF0F0F9A9
:103420000146414808F0CEFA364805F079FC20788C
:1034300004B0BDE8F087002C0EDB3C4C14BF012328
:1034400000232370E3E7002CC0F20B81384C14BF3B
:10345000012300232370DAE7364A374B12881A809B
:103460001888324CFDF7D2FFD1E7002CC0F2D38090
:10347000324C14BF012300232370C8E7244B234D93
:1034800003EB4703B3F81130ADF80E30BDF80E0072
:1034900025F817001FE7002CC0F2C680284C14BF87
:1034A000012300232370B2E7002CC0F2E380254CF7
:1034B00014BF012300232370A9E7002CC0F2FB8076
:1034C0000034214D18BF01242C70FFF79BFC66B11E
:1034D0002878FDF7A1FE14480AF092F90146124837
:1034E00008F070FA074805F01BFC2878E4E6114A5A
:1034F000114B12881A8018880A4CFDF787FF86E75F
:103500001C17FF1FA833FF1FC81701007426FF1FD9
:103510004062FF1F1017FF1F1008FF1F7017FF1FCB
:10352000FC270100AC65FF1FD861FF1F4D65FF1F21
:10353000A051FF1F6162FF1FA465FF1F6C51FF1F99
:103540002E51FF1F6165FF1F0465FF1F9026FF1F9F
:1035500030130100252D70D0262D00F09480272DEA
:1035600000F0A180282D00F096805C2D00F0938063
:10357000292D00F0BB802A2D00F0C5802B2D00F0F6
:10358000C6802C2D00F0E9802D2D00F0FC80452D0B
:1035900000F03F812E2D00F01F812F2D00F0AB8118
:1035A000302D00F08781312D00F08783322D00F01F
:1035B0006F83A5F133085FFA88F00F2800F2DB81F2
:1035C000002CC0F2CF81A34F3D4405F8334C17F8CF
:1035D0000810A04DFFF7AEFC04468EB100230A226E
:1035E00015F808109C4805F0C1FB9C499A48FDF766
:1035F000B3F82046FDF730FE99499748FDF7BAF831
:1036000017F8080058E6002C67DB964C14BF01231E
:1036100000232370FBE6944A944B12881A80188882
:10362000934CFDF7F3FEF2E68F4A904B12881A8016
:103630001888904CFDF7EAFEE9E6002C7BDB8E4C07
:1036400014BF012300232370FFF7DCFB002E3FF49F
:10365000EEAE2078FDF7E0FD81497F48FDF78AF85E
:10366000E5E6814A814B12881A801888834CFDF761
:10367000CDFECCE67C4A7D4B12881A801888804C9F
:10368000FDF7C4FEC3E6002C74DB7E4C14BF01239F
:1036900000232370D8E7002C56DB7B4C14BF01239A
:1036A00000232370D0E7002C5BDB784C14BF012390
:1036B00000232370C8E76C4A6C4B12881A80188864
:1036C000734DFDF7A3FE00E703EB470909F123095A
:1036D000B9F8003028F8173038E6634A634B12888F
:1036E0001A8018885F4CFDF791FE90E6002C694C1B
:1036F00003DB14BF012300232370FDF73BFE002EE4
:103700003FF495AEA5E7002C634CF2DAF5E7002C08
:10371000624D03DB003418BF01242C70FDF72AFE34
:10372000002E3FF4E2AE2878FDF776FD4C494A487A
:10373000FDF720F8D9E64C4A4C4B12881A801888BD
:103740004D4CFDF763FE7FE7474A484B12881A80CD
:1037500018884D4CFDF75AFE76E7002C504CC8DA1D
:10376000CBE7414A414B12881A801888474CFDF735
:103770004DFE69E73C4A3D4B12881A801888414C3F
:10378000FDF744FE60E7002C54DB464C14BF0123D8
:10379000002323702378444A4449002B41D092F8F7
:1037A0003C30002043F0010382F83C300870FDF704
:1037B000E1FD012006F01CFD21783A4D232006F0A2
:1037C000D9FC002E3FF433AE2878FDF725FD2449BF
:1037D0002148FCF7CFFF2AE6002C354C03DB14BF51
:1037E000012300232370237833B300210B20FFF73C
:1037F000A1FB2D4A92F83C3043F0020382F83C30A2
:1038000021782B4D242006F0B5FC002E3FF40FAE9E
:10381000DAE7002C0EDB234C0CBF012300232370BE
:10382000B8E792F83C30012023F0010382F83C30E5
:103830000870BCE71B4CADE7064B0B20997AFFF7ED
:1038400079FB194A92F83C3023F0020382F83C30AD
:10385000D6E700BF1C17FF1FA833FF1FC8170100C2
:10386000D861FF1F9A3FFF1F6162FF1FA465FF1F02
:103870006C51FF1F2E51FF1F3C62FF1FA051FF1F05
:103880006165FF1FD461FF1FA451FF1F8826FF1F22
:103890000465FF1F3017FF1F6417FF1F7126FF1FEE
:1038A000D562FF1FB140FF1F4062FF1F8926FF1F27
:1038B000F764FF1F002CB74C03DB14BF0123002368
:1038C00023702378002B37D000210C20FFF732FB28
:1038D000B14A92F83C3043F0080382F83C300120B2
:1038E00006F086FC2178AB4D262006F043FC002E26
:1038F0003FF49DAD68E7002CA84C03DB14BF012307
:10390000002323702378A44AA54913B392F83C30CE
:10391000002043F0040382F83C300870FDF72AFDD4
:10392000012006F065FC21789C4D252006F022FC44
:10393000002E3FF47CAD47E79A4B0C20D97AFFF775
:10394000F9FA954A92F83C3023F0080382F83C30AB
:10395000C5E792F83C30012023F0040382F83C30A4
:103960000870DBE7904B8F4F2B443D4413F8323CFB
:1039700005F8333C2BE6432D00F08581442D00F003
:103980007D81462D00F06F81472D00F06881482D24
:1039900000F05581492D00F049814A2D00F0ED815C
:1039A0004B2D00F0DC814C2D00F0CA814D2D00F034
:1039B000B8814E2D00F006824F2D00F0E381502D8E
:1039C00000F00F82A5F151095FFA89F3042B3BD86F
:1039D000002C764F06DBB4F5805FA8BF4FF480540F
:1039E00027F8194037F81930714CDFF8F08114F8D6
:1039F000090000EE103AB8EE400A06F015FB4FF051
:103A0000000A38F81A1014F80A000AF1010A06F040
:103A10005BF9BAF1060FF4D126B137F819106548F1
:103A2000FCF7C6FE512D00F0EB81522D00F0F6811F
:103A3000532D00F0EF81542D00F0E781564B3A8969
:103A40005A8737F9190037E4562D00F0EA80572DD0
:103A500000F0C880582D74D0592D6ED05A2D5AD0F0
:103A60005B2D41D05D2D32D05E2D1AD05F2D0CD153
:103A7000002C04DB504B14BF012200221A70FDF70A
:103A800031FC2EB94D4B187816E44FF0FF3013E49B
:103A9000494B1878FDF7C0FB49494648FCF76AFED8
:103AA000F0E7002C04DB474B14BF012200221A7000
:103AB000FDF718FC3EB1434B1878FDF7ADFB4049CC
:103AC0003C48FCF757FE404B1878FFF7F5BB002C3D
:103AD00004DB00343D4B18BF01241C70FDF702FCD1
:103AE000002ECFD0394BD4E7002C394C03DB14BF68
:103AF0000123002323702378ABB100210220FFF7BC
:103B000019FA00210320FFF715FAFDF7EBFB002E51
:103B10003FF48DAC9DE5002C2E4CF6DB14BF012349
:103B200000232370F1E71F4D0220A978FFF702FA66
:103B3000E9780320FFF7FEF9E7E7002C264CEDDAE1
:103B4000E3E71A4BDFF894801B8900EE103A002C53
:103B50004FF01E00B8EE400AA8BFA8F80A4006F0D1
:103B600063FA134C002538F81510605D1B4F0135C2
:103B700006F0AAF8062DF6D11EB179890D48FCF79A
:103B800017FE174A044B1288B8F90A00A3F82D2033
:103B9000FFF792BBA665FF1F4062FF1F6C17FF1F58
:103BA0005865FF1F1C17FF1F8062FF1F5417FF1F60
:103BB00030130100A833FF1F1451FF1F3017FF1FE0
:103BC000D861FF1F6265FF1F6417FF1FCC62FF1FD4
:103BD0004C65FF1FC061FF1F6065FF1F1017FF1FAF
:103BE0001A17FF1FDFF84482002CA8BFA8F808406E
:103BF0008D4C002538F81510605D8C4F013506F0AE
:103C000063F8062DF6D11EB139898948FCF7D0FD3D
:103C1000884A894B1288B8F90800A3F82B20FFF7CF
:103C20004BBB002C854CBFF679AF6EE7002C844C63
:103C3000FFF60AAD14BF01230023237004E5002C16
:103C4000804C03DB14BF012300232370FFF7DAF855
:103C500023786BB100210F20FFF76CF957E7002C98
:103C6000794CE7DAF0E4002C784CBFF642AD44E53D
:103C7000774B0F20D97BFFF75DF948E7002C754C97
:103C8000BFF637AD39E5002C734DBFF643AD45E5C2
:103C9000002C724C03DB14BF012300232370217816
:103CA000272006F067FA237823BB634A92F83C305A
:103CB00003F07F0382F83C3029E7694B684D002C04
:103CC000A8BF1C7019783E20FFF776FA0446002E34
:103CD0003FF4F1AA2978564800230A2205F046F855
:103CE00060495348FCF738FD21465148FCF754FD24
:103CF000FFF7E1BA504F5C4A97F83C105B4800254B
:103D000061F07F0100952B4687F83C10294603F0AF
:103D100019FE00952B462946534A554803F012FEDA
:103D2000F5E6544B534D002CA8BF9C7099783D206C
:103D3000FFF742FA0446002E3FF4BDAAA978CAE76D
:103D40004C4B4C4D002CA8BF5C7059783F20FFF7BE
:103D500033FA0446002E3FF4AEAA6978BBE7454B20
:103D6000444D002CA8BF1C7019783C20FFF724FAA2
:103D70000446002E3FF49FAAACE7002C3E4CBFF651
:103D800059AF61E43D4B3D4D002CA8BF5C705978A4
:103D90003F20FFF7CFF90446002E3FF48CAA697844
:103DA000234800230A2204F0E1FF2E492048FCF7B3
:103DB000D3FC2046FDF750FA31491D48FCF7DAFCE8
:103DC000FFF779BA2D4B2D4D002CA8BF1C70197828
:103DD0003C20FFF7AFF90446002E3FF46CAA297887
:103DE000DEE7264B254D002CA8BF9C7099783D201E
:103DF000FFF7A0F90446002E3FF45DAAA978CFE7AB
:103E00000D4A3B88D3867B801BE60B4AFB881387D1
:103E1000BB8016E6084BBA881A8712E6064A7B88EA
:103E2000D3863B800DE600BF301301001017FF1F43
:103E3000A833FF1F1817FF1F4062FF1FF664FF1F04
:103E40004C17FF1F7026FF1F2D51FF1F5865FF1FC6
:103E50001C17FF1FA351FF1FA151FF1F5965FF1F13
:103E60006517FF1FC8170100D4CCFF1F0467FF1F91
:103E7000EC99FF1F8C26FF1F3817FF1F5017FF1FDD
:103E8000D861FF1F38B52248224C05F073F983B280
:103E90005A1E5E2A238020D8C0B2FDF71FFB1E48A1
:103EA00082681ABB4FF0FF312078FFF7CFF985B257
:103EB00004211A4807F086FD2188194804F096FF6E
:103EC0000121184807F07EFD2946154804F08EFFB1
:103ED0001348BDE8384004F023BF1721124807F00B
:103EE00071FD0F48BDE8384004F01ABF05F042F9F3
:103EF0000E4A0F4B11681B68884203DB984201464B
:103F0000A8BF194600222078FFF7A0F985B2CFE7B5
:103F1000B440FF1F4E65FF1F9C3FFF1FAC280100F0
:103F2000A833FF1FC41B0100B42801000065FF1F58
:103F30003C17FF1F10B50D4C0D4923780D4883F039
:103F40000103237005F00CF823783BB90A490B48AC
:103F500005F006F8BDE81040FFF794BF0849074890
:103F600004F0FEFFBDE81040FFF78CBF5965FF1F4E
:103F7000CC280100B440FF1F1C2701009C3FFF1FFD
:103F8000041C010010B519210A4807F01BFD0A485E
:103F900004F0C6FE01240521084807F013FD0122A4
:103FA000E0B24FF0FF311444FFF750F9602CF2D12A
:103FB00010BD00BFFC280100A833FF1FF42801003A
:103FC0002DE9F04FA348A3B003F024FE002840F0F1
:103FD0000282A14BDFF8A0820593A04803F01AFEED
:103FE000002840F0CF81DFF8C0B29D4C9D4D9E4E21
:103FF0009E4823462A46314601F0AAFC002800F0DC
:10400000938106F017FC002840F06681DFF8C0922B
:1040100099F80030002B40F0E083D8F80030944E3F
:104020000893944A089B3068126893491B1A9A4275
:1040300015D80B680993914C099B3360904D671D0F
:10404000422012AE01E014F9010FC0B205F0AAF946
:10405000ADF84800338825F8023BBC42F3D1FEF7A7
:104060008BF907F07DFC012840F3DB81854D402270
:104070002846002109F074F810232B7007F026FC65
:10408000C3B20A2B2C46184605F13F050BD004F8A5
:10409000013F07F01FFDA54208D007F017FCC3B28F
:1040A0000A2B1846F3D1184607F014FD754D764ECD
:1040B0000FCD34460FC40FCD0FC40FCD0FC495E8FC
:1040C0000F0084E80F0031463E22704804F0BAFA2F
:1040D000F0876D496D4896F83F5096F83E403E2275
:1040E00004F0B0FA337803F0F003102B00F0D08125
:1040F000674801F079FE674A137C012B40F2868203
:1041000072B6D36862B664490868834213D06348C4
:104110000468A342C0F2868072B6D46062B60368B7
:104120000B605F4A1278002A73D05E4A19461078F5
:104130000122FFF78BF8D8F800300A93059B4E4810
:104140001A680A9B44499B1AC72B76D8D8F80030C6
:104150000C93DBF800200C9B474853499B1AC72B54
:104160000DD9524B02680D921B780D9A0A60002BF4
:104170005FD14F4A19461370022005F0FBFFD8F8B3
:1041800000304C4A0E930E9B11683B485B1AC72BBC
:104190003CD9494E016896F83D3012911299116050
:1041A00001333E223146394886F83D3004F04AFA60
:1041B000DFF82081414DF08798F80010404F414CC6
:1041C000304607F037FB95F83D30387001333E221A
:1041D00029462E4885F83D3004F034FA98F800104E
:1041E000E887284607F026FB94F83D303870013305
:1041F00021463E22254884F83D3004F023FA98F801
:104200000010E087204607F015FB387023B0BDE8AA
:10421000F08F244CD8B201224FF0FF312380FFF7FA
:1042200015F888E728480468A3427FF775AF0B604C
:1042300077E71F4B012119709EE703680B930B9BD7
:10424000224A0B60012319460520137005F092FFE6
:104250007CE700BF0467FF1F1465FF1FEC99FF1F79
:10426000B851FF1F7E3EFF1FF864FF1F7051FF1FF4
:10427000C062FF1F8426FF1F48CDFF1F682A010070
:104280006F65FF1FB464FF1FD862FF1FB040FF1FA0
:104290003051FF1F1851FF1FC862FF1F3C17FF1F3F
:1042A0007C3EFF1F4E65FF1FA865FF1F5965FF1F5E
:1042B000993FFF1FD062FF1F4062FF1F8062FF1FF8
:1042C000F564FF1F6465FF1F0065FF1FA026FF1F29
:1042D0006365FF1FC562FF1FA84EA94C3578DFF844
:1042E0001C9306F0B7FAA74B585505F05DFF3378DD
:1042F000206001330122337089F8002005F054FF5B
:10430000236840F27E42C01A90427FF686AE9E4BF2
:104310001A78002A00F08F800022984E1A7000232D
:10432000337089F8003078E6984B994A1F689949AC
:10433000127801371F601868C1F82500002A3FF481
:1043400060AE32682B78944D22F060422A60EB73A5
:104350005BB1013B54FA83F005F10F02631E13F8C1
:10436000011F02F8011F9842F9D18C4B039793E883
:1043700003008DE803000223029395E80F00FDF788
:1043800009FC3EE6844C8648DFF874B2814D214634
:1043900003F064FC834A84491368D8F8000007904E
:1043A0000133136009781068079AC5F82100CBF82B
:1043B0000020002940F062817C4B1B78002B3FF4E9
:1043C00014AE7B4A137883F0010319460220137060
:1043D00005F0D0FE09E6704C764B774805932146F0
:1043E0001E4603F03BFC754ADFF8188213687449D7
:1043F000D8F80000069001331360664D0978106804
:10440000069AC5F81D003260002940F045816D4ACA
:10441000137883F0010319460520137005F0AAFEF6
:10442000DBE50021684807F0BFF910F0FF0F3FF40B
:104430005FAE654E4DE6654F3978002977D14F4E16
:104440003378002B00F09A810025DFF8BCA12C46C0
:1044500002E03278AA420EDD1AF8012F1444013529
:10446000E4B20029F5D05A495A4804F071FC327878
:104470003978AA42F0DC002C6CD000293FF44FAF11
:104480001021554807F09EFA524804F049FC46E7CF
:1044900004EB05239BB283427FF42AAE4F4C12AE4D
:1044A00004F1300E354620686168A268E3682F4643
:1044B0000FC7103474453D46F5D120686168A26885
:1044C000247B3B4607C330461C70454909F03AFA45
:1044D0000025044600283FF40BAE21460EA804F048
:1044E000CDFC0EA93F4804F033FD0EA804F086FC75
:1044F0003B49002009F026FA01460EA804F0BEFC54
:104500000EA9394804F024FD0EA804F077FC3449C4
:10451000002009F017FA0446324804F02BFE002868
:1045200040F3E080FFF7AEFC002CD6D1E0E503F0CD
:104530002FFF044605F038FE2C4B104E1B682C490B
:10454000C31A2246234804F003FC33783978002B41
:104550007FF47AAF274B0F481A6801321A601B8824
:10456000A0F8353000293FF4DAAE0221224807F0E6
:1045700029FA184804F0D4FBD1E600BFD462FF1F2B
:10458000C840FF1F983EFF1F4D17FF1FCC40FF1F65
:104590008A64FF1F8062FF1F1C63FF1F2C63FF1FC5
:1045A000EC99FF1F843EFF1F8964FF1F5965FF1FA1
:1045B000993FFF1F1465FF1F0467FF1FC440FF1FC3
:1045C0008864FF1FA026FF1FD862FF1F2C51FF1F0A
:1045D00044290100A833FF1F50290100D962FF1FA1
:1045E00064290100B440FF1F9C3FFF1F3065FF1F7F
:1045F00030290100803EFF1F4C2901006365FF1F29
:10460000A865FF1F48CDFF1F973EFF1F72B61368B6
:10461000506819780478507A137A044201EA030149
:1046200048D0937A03F0030309B143F0040343F045
:1046300008039910013B91720D2B3FF662AD01A169
:1046400051F823F0DD460000D5460000CD460000BD
:10465000D546000003410000C5460000DD460000CD
:10466000DD460000C546000003410000D5460000BD
:10467000CD460000D5460000DD46000004F11002E2
:1046800092E803008DE8030001220393029294E86C
:104690000F00FDF77FFA8FE604F1100292E80300A5
:1046A0008DE8030000220393029294E80F00FDF7C7
:1046B00071FAACE6937A03F003030029B9D043F012
:1046C0000403B6E7D368023BD3601BE5D36802332B
:1046D000D36017E5D368013BD36013E5D36801339A
:1046E000D3600FE5A5490EA804F0C8FB0EA9A448A5
:1046F00004F0B6FC06460EA804F080FB2EB1FCF7D1
:104700009FF9002C7FF4E9AEF2E49E490EA804F074
:10471000B5FB0EA99A4804F0A3FC06460EA804F0C7
:104720006DFB2EB1FDF77EFC002C7FF4D6AEDFE4EE
:1047300095490EA804F0A2FB0EA9914804F090FC44
:1047400006460EA804F05AFB2EB1FDF797FC002C8C
:104750007FF4C3AECCE48D490EA804F08FFB0EA904
:10476000874804F07DFC06460EA804F047FB76B1AE
:10477000FDF7B0FC002C7FF4B0AEB9E4844B854962
:104780001A6801321A601B88A1F83530C7E58249E2
:104790000EA804F073FB0EA9794804F061FC0646EC
:1047A0000EA804F02BFB2EB1FDF7F6FC002C7FF4D5
:1047B00094AE9DE479490EA804F060FB0EA9704800
:1047C00004F04EFC06460EA804F018FB3EB1FDF7BF
:1047D0001FFD002C7FF481AE8AE4714C8EE5714997
:1047E0000EA804F04BFB0EA9654804F039FC064600
:1047F0000EA804F003FB2EB1FDF7C6FA002C7FF4DF
:104800006CAE75E468490EA804F038FB0EA95C484C
:1048100004F026FC06460EA804F0F0FA5EB16348E8
:1048200004F0A8FC0028624B18DD01221A70002C4D
:104830007FF453AE5CE45F490EA804F01FFB0EA9A1
:104840004F4804F00DFC06460EA804F0D7FA56B106
:10485000564804F08FFC0028574BE6DC1D70002CF6
:104860007FF43BAE44E455490EA804F007FB0EA9C3
:10487000434804F0F5FB06460EA804F0BFFA36B133
:104880004A4804F077FC00284D4BCEDCE6E74D4962
:104890000EA804F0F3FA0EA9394804F0E1FB06462D
:1048A0000EA804F0ABFA2EB1FCF756FC002C7FF4F6
:1048B00014AE1DE444490EA804F0E0FA0EA93048F5
:1048C00004F0CEFB06460EA804F098FA2EB1FCF7D1
:1048D000EDF8002C7FF401AE0AE43C490EA804F088
:1048E000CDFA0EA9264804F0BBFB06460EA804F03C
:1048F00085FA36B1FCF7ACFB002C7FF4EEADFFF788
:10490000F7BB33490EA804F0B9FA0EA91C4804F00D
:10491000A7FB06460EA804F071FA36B1FCF7F2FBCD
:10492000002C7FF4DAADFFF7E3BB2A490EA804F0B0
:10493000A5FA0EA9124804F093FB06460EA804F04F
:104940005DFA36B1FCF7AAFB002C7FF4C6ADFFF789
:10495000CFBB21490EA804F091FA0EA9084804F033
:104960007FFB06460EA804F049FABEB3FDF75EFAD7
:10497000002C7FF4B2ADFFF7BBBB00BF682901007C
:10498000B440FF1F6C290100702901007429010047
:10499000803EFF1F8062FF1F7C29010080290100EB
:1049A000C840FF1F882901008C2901009C3FFF1F80
:1049B0008864FF1F902901008964FF1F942901006A
:1049C0008A64FF1F982901009C290100A029010089
:1049D000A8290100B4290100C0290100AA490EA894
:1049E00004F04CFA0EA9A94804F03AFB06460EA8BA
:1049F00004F004FA36B1FDF749FA002C7FF46DADEE
:104A0000FFF776BBA2490EA804F038FA0EA99F481A
:104A100004F026FB06460EA804F0F0F936B1FDF7C7
:104A20006BFA002C7FF459ADFFF762BB99490EA8D1
:104A300004F024FA0EA9954804F012FB06460EA8CD
:104A400004F0DCF936B1FFF79DFA002C7FF445AD98
:104A5000FFF74EBB90490EA804F010FA0EA98B4840
:104A600004F0FEFA06460EA804F0C8F946B18B49D8
:104A70008B48FBF77FFE002C7FF42FADFFF738BB90
:104A800088490EA804F0FAF90EA9804804F0E8FA63
:104A900006460EA804F0B2F936B1FCF729F8002C4E
:104AA0007FF41BADFFF724BB7F490EA804F0E6F9A5
:104AB0000EA9764804F0D4FA06460EA804F09EF932
:104AC00036B1FCF759F8002C7FF407ADFFF710BBA7
:104AD00076490EA804F0D2F90EA96C4804F0C0FA89
:104AE00006460EA804F08AF936B1FCF721F8002C2E
:104AF0007FF4F3ACFFF7FCBA6D490EA804F0BEF9E1
:104B00000EA9624804F0ACFA06460EA804F076F945
:104B100036B1FDF7BDFD002C7FF4DFACFFF7E8BA3E
:104B200064490EA804F0AAF90EA9584804F098FAAE
:104B300006460EA804F062F936B1FCF7B3FD002C6E
:104B40007FF4CBACFFF7D4BA5B490EA804F096F91A
:104B50000EA94E4804F084FA06460EA804F04EF959
:104B600036B1FCF71BF8002C7FF4B7ACFFF7C0BAE6
:104B700052490EA804F082F90EA9444804F070FAD4
:104B800006460EA804F03AF936B1FCF7A9FD002C50
:104B90007FF4A3ACFFF7ACBA49490EA804F06EF954
:104BA0000EA93A4804F05CFA06460EA804F026F96D
:104BB00036B1FCF7CDFF002C7FF48FACFFF798BA2D
:104BC00040490EA804F05AF90EA9304804F048FAFA
:104BD00006460EA804F012F936B1FDF7A5F8002C30
:104BE0007FF47BACFFF784BA37490EA804F046F98E
:104BF0000EA9264804F034FA06460EA804F0FEF882
:104C000036B1FDF75BFB002C7FF467ACFFF770BAA1
:104C10002E490EA804F032F90EA91C4804F020FA1F
:104C200006460EA804F0EAF836B1FDF755FB002C55
:104C30007FF453ACFFF75CBA25490EA804F01EF9C7
:104C40000EA9124804F00CFA06460EA804F0D6F895
:104C500036B1FDF769FB002C7FF43FACFFF748BA93
:104C60001C490EA804F00AF90EA9084804F0F8F946
:104C700006460EA804F0C2F876B3FBF753FE002CEC
:104C80007FF42BACFFF734BAC8290100B440FF1FF2
:104C9000D4290100D82901004C290100F41E01008B
:104CA000A833FF1FDC290100E4290100EC290100E1
:104CB000F4290100FC290100042A0100082A01004E
:104CC000102A0100182A0100202A01002C2A0100C4
:104CD000282A0100302A01000E490EA804F0CEF85F
:104CE0000EA90D4804F0BCF906460EA804F086F89B
:104CF00036B1FBF7D9FD002C7FF4EFABFFF7F8B925
:104D000006490748FBF736FD002C7FF4E6ABFFF7BA
:104D1000EFB900BF382A0100B440FF1F402A01004C
:104D2000A833FF1F2DE9F043A648A74FDFF81883EB
:104D3000A64DA74E87B000F077FFA64800F074FF9D
:104D4000A54B03220124022144F63E101A703C7048
:104D500088F8001005F054FB4FF480719F4804F070
:104D600055F814219E4804F051F89E4803F000FCC9
:104D7000FDF70AF80C2005F047F99B4803F0DCFB2F
:104D8000204603F0E7FBFBF71DFD4FF0120E002756
:104D9000697B2869954BCDF808E04FF0130ECDF8EC
:104DA00004E03A46049305943B460397009701F0CC
:104DB000FDFA2B694FF4FA69C3F878922846272147
:104DC00001F02EFC3946284601F052F839462846B3
:104DD00001F04EF86A7B296900972346284601F0C6
:104DE00031FF2846272101F01BFC2146284601F00F
:104DF0003FF83946284601F03BF86A7B296900975D
:104E00002346284601F01EFF2846232101F008FC16
:104E10003946284601F02CF83946284601F028F892
:104E20006A7B296900972346284601F00BFF284634
:104E3000232101F0F5FB2146284601F019F83946F7
:104E4000284601F015F86A7B296900972346284611
:104E500001F0F8FEFCF746FAFCF78CFAFDF7D2FFFA
:104E60006349644800F04AFF6349624800F048FF24
:104E70006249604800F046FF61495E4800F044FF27
:104E800060495C4800F042FF49465A4800F034FF50
:104E9000FA21584800F02EFF4920FDF725FEFBF7C8
:104EA00041FDE5B200224FF0FF312846FEF7CEF972
:104EB00083B201341946284600223380FEF7C6F932
:104EC000602CEED1504B013BFDD1504CFCF7FEFF66
:104ED0002068FDF741F80123024603214C4800F009
:104EE000ADFC002866D01D214A4806F06BFD4A48FB
:104EF00003F016FF00214648484F494D00F0FAF9EB
:104F00002068FDF729F8002488F816000094384638
:104F10002346214643F2E429424A02F013FD234688
:104F20002146404A0094284602F00CFD57F809003B
:104F3000FDF712F888F8140055F80900FDF70CF891
:104F4000394B88F815009A7B43F2482101244FF031
:104F5000080E224344F63E1083F80FE09A737C5407
:104F60006C5405F04DFA4FF4807005F0BDFA43F231
:104F7000D40005F011FC05F0A1FC47F22F522B499B
:104F80002B4803F013FE2B4B2B482C4904605F2267
:104F90001A600C703480FCF74FFB29490F4803F06E
:104FA000DFFFFDF735F9FCF7D3FD07B0BDE8F043AF
:104FB000FEF7E8BF2121234806F004FD164803F060
:104FC000AFFE97E7A426FF1F4062FF1FD866FF1FB2
:104FD0004E65FF1FE426FF1F6465FF1F9C3FFF1FF8
:104FE000B440FF1F883EFF1FB1050000801A060075
:104FF000390600003051FF1F21090000353F000035
:105000006D0400003D060000808D5B006017FF1FEF
:105010007051FF1F081E0100A833FF1F0467FF1F08
:10502000EC99FF1FD4CCFF1F8851FF1F71040000B3
:105030000865FF1F3C17FF1F0065FF1F1963FF1F57
:10504000041C0100E41D01008062FF1F10B5002157
:105050000446C07C05F08EF8094B1A684FF00041F9
:10506000C023D1625363D36A002BFCDAE07C936BDC
:10507000012105F07FF80120BDE8104005F0B8B827
:10508000A426FF1F38B504460D46C07C002105F05C
:1050900071F8114B1B684FF000410322D9625A632B
:1050A000DA6A002AFCDA4FF00042996BDA625D633B
:1050B000DA6A002AFCDA4FF000415522986BD96277
:1050C0005A63DA6A002AFCDA9D6BE07C012105F064
:1050D00051F8E8B238BD00BFA426FF1F2DE9F0410A
:1050E0001A4F05468846C07C002114461E4605F02E
:1050F00041F839684FF000420323CA624B63CA6A21
:10510000002AFCDA4FF000438A6BCB62C1F834808E
:10511000CA6A002AFCDA8B6B96B1701E54FA80F0D2
:10512000621E4FF000465524CE624C63CB6A002BC2
:10513000FCDA8B6B02F8013F824201D03968F3E759
:10514000E87C0121BDE8F04105F014B8A426FF1F5A
:1051500070B504460E46C07C0021154605F00AF8DD
:10516000114B1B684FF000410222D9625A63D96A81
:105170000029FCDA4FF00042996BDA625E63D96A6B
:105180000029FCDA4FF00042996BDA625D63DA6A5B
:10519000002AFCDAE07C9B6B012104F0EBFF43F674
:1051A0009823013BFDD170BDA426FF1FF8B505462D
:1051B0000F46C07C002114461E4604F0DBFF164B50
:1051C00019684FF000420223CA624B63CA6A002A80
:1051D000FCDA4FF000438A6BCB624F63CA6A002A45
:1051E000FCDA8B6B7EB1701E54FA80F0621E4FF0B9
:1051F000004412F8013FCC624B63CB6A002BFCDA0F
:1052000082428B6BF5D1E87C012104F0B3FF43F6B9
:105210009823013BFDD1F8BDA426FF1FF8B5044635
:105220000F46C07C002116461D4604F0A3FF164B16
:1052300019684FF000420523CA624B63C86A002810
:10524000FCDA4FF000438A6BCB624F63C86A0028D8
:10525000FCDA4FF000438A6BCB624E63CA6A002AC5
:10526000FCDA4FF000438A6BCB624D63CB6A002BB4
:10527000FCDA8B6BE07C012104F07CFF43F6982381
:10528000013BFDD1F8BD00BFA426FF1F38B50021AA
:105290000446C07C04F06EFF0C4B1B684FF00041CD
:1052A000A022D9625A63DA6A002AFCDA4FF0004180
:1052B0005522986BD9625A63DA6A002AFCDA9D6B30
:1052C000E07C012104F056FFE8B238BDA426FF1FA0
:1052D00038B5E0220B460C4605460F21FFF79EFF2E
:1052E00028460F21FFF7CEFE00F0E000001B18BF9C
:1052F000012038BD0175FFF7EBBF00BF70B5032A71
:105300003DD8DFE802F0322518020C2937D1832579
:10531000E42641231A4604462A21FFF719FF3246A4
:1053200020462921FFF714FF20462A462821FFF7AF
:105330000FFF002070BD01390E2920D8DFE801F0F1
:10534000789C949884888C90A4A8ACB07C80A000B1
:1053500001390E2913D8DFE801F0386748124C50A4
:1053600054401444575B5F633C000639082906D853
:10537000DFE801F00B170F1F072327131B00012085
:1053800070BD8725FA260323C4E78725FF26092356
:10539000C0E78725FF260423BCE78725FA260023DC
:1053A000B8E78725FA260923B4E78225D926002302
:1053B000B0E78725FA260423ACE78725FF260123DB
:1053C000A8E78625FB264123A4E78725FF263F2360
:1053D000A0E78325E12640239CE78725FF260323BA
:1053E00098E78625F026032394E78725FF260F23D9
:1053F00090E78525F1264E238CE78725FF26072396
:1054000088E78725FA2685E78725FA26012381E79D
:105410008525F12641237DE78625F026002379E7BF
:105420008225D026002375E78725FF261F2371E7F5
:105430008725BF261F236DE782259026002369E775
:1054400080252E46002365E78525E226472361E770
:105450008725BF2603235DE78625B426032359E766
:105460008725BF26012355E78725BF26072351E758
:105470008425A42607234DE78725BF260F2349E768
:105480008125C826002345E78625B426012341E768
:105490008525B12601233DE78625B426002339E77B
:1054A0008525B126002335E730B5012A83B012D017
:1054B000C3F3CC0400225B018DF804408DF8053065
:1054C0008DF807208DF8062004230DEB0302FFF76B
:1054D0006DFE03B030BD1A0CD40024F01F0502F09D
:1054E00003042C4444F008041D1252118DF80730B7
:1054F0008DF806508DF805408DF80420E4E700BFD4
:1055000030B5012A83B04FEA134211D054011D1265
:10551000D2108DF807308DF806508DF805408DF8C3
:10552000042004230DEB0302FFF740FE03B030BD5F
:10553000D40024F01F0502F003042C4444F00804B6
:105540001D1252118DF807308DF806508DF8054068
:105550008DF80420E5E700BF38B501220546002399
:105560002021FFF7CDFF2846002301222421FFF749
:10557000C7FF0023194628460122FFF7C1FF002379
:105580001A4628460421FFF7BBFF284600230122C4
:105590000821FFF7B5FF00231A4628461021FFF720
:1055A000AFFF2846002301221421FFF7A9FF0023A3
:1055B00028461A461821FFF7A3FF3024214600226F
:1055C0002846FFF7C5FD04F11001C9B200222846A4
:1055D000FFF7BEFD04F120010134C9B200222846C4
:1055E000E4B2FFF7B5FD3E2CE8D128460022602149
:1055F000FFF7AEFD284600227021BDE83840FFF7D6
:10560000A7BD00BF2DE9F04104460E461746984657
:10561000FFF71CFD4023237520468021FFF758FE2D
:10562000054698BB29212A4806F0CCF9424639465E
:105630002046FFF763FE10BB1E21264806F0C2F984
:105640002046FFF789FF03222B212046FFF780FD2C
:1056500056B3032E21D164231A4660212046FFF75A
:10566000DDFD60231A4670212046FFF7D7FD217D1E
:105670002046FFF72DFE054618BBBDE8F0811D2131
:10568000154806F09FF92846BDE8F0812821134807
:1056900006F098F92846BDE8F0811D21104806F073
:1056A00091F90120BDE8F0812046042364226021A5
:1056B000FFF7B4FD3346602270212046FFF7AEFDB0
:1056C000D5E72721074806F07DF92846BDE8F08197
:1056D000A02A0100EC2A0100CC2A0100742A010052
:1056E0000C2B01002C2B010030B51C46154683B055
:1056F000002204232A7022600DEB0302FFF7EEFC68
:105700009DF805309DF804105A1102EBC1021907EB
:1057100022600ED503F003039DF806009DF80710E4
:1057200003EB820300EB032301EB0323012223603D
:105730002A7003B030BD00BF70B504460D46053178
:10574000037A00F10902C9B2FFF730FD637C227AC7
:10575000012B08BF42F0400205F1040108BF22728C
:105760002046C9B2FFF7F4FC294663682278204638
:10577000BDE87040FFF798BE70B5031D02460D46A8
:105780000446FFF7B1FF691EC9B22046FFF77AFC55
:10579000291D0646C9B22046FFF774FC06F008032F
:1057A000207273B903F0FF02627400F00F03691DE9
:1057B000237204F109022046C9B2BDE87040FFF728
:1057C0008DBC01236374F0E72DE9F041134B82B0E7
:1057D00088461A889B78ADF80420002188F80010CC
:1057E00006468DF8063001AC0DF1070714F8015B91
:1057F00030462946FFF746FC00F0080303F0FF009F
:105800002BB1BC42F2D1022002B0BDE8F0810135DB
:1058100088F8005002B0BDE8F08100BF702A010096
:1058200010B50446C1740846012104F0B7FCE07CC1
:10583000012104F09FFC204610BD00BFF8B50446CE
:105840000D4616461F46064800F0EEF93B46324626
:1058500029462046FFF7D6FE003018BF0120F8BDCC
:10586000A426FF1F30B5054683B0002401E0322C8A
:105870000AD00DF107012846FFF7A6FF01340228E0
:10588000A4B2F4D0322C02D1062003B030BD9DF872
:1058900007102846FFF750FF9DF80710082301392D
:1058A000C9B21A462846FFF7B9FC002401E0322CA1
:1058B00010D09DF807100139C9B22846FFF7E2FB66
:1058C00001340307A4B2F2D4322C0CBF072000200D
:1058D00003B030BD072003B030BD00BF70B4039DDE
:1058E0004160044600260270467400F1100104F87D
:1058F000083F6B1E13F8012F04F8012F8C42F9D1D9
:1059000070BCFFF7AFBF00BF38B50546FFF7BEFC60
:1059100010F0010403D183070DD4042038BD2846BC
:105920006121FFF729FF2846002301222C21FFF7E0
:1059300075FC002038BD28467121FFF71DFF284661
:10594000234602222C21FFF769FC204638BD00BF08
:10595000F8B50F4616461C460546FFF7D5FF042846
:105960001AD02B78CBB96B686A7C12B143F08043B4
:105970006B603B602B7A33702B7A5BB1631E05F151
:105980000801002211F8010F03F8010F287A0132F3
:105990009042F7DC0020F8BDF8BD6B6843F000438F
:1059A0006B60E1E710B4047F4160022CC26003D059
:1059B0005DF8044B03F00CB883685DF8044B18479E
:1059C000F0B4464B464A986B5C6B017911704549BF
:1059D00022790A701A6B00790870002A46D059683B
:1059E000C9688A423ED82168CC8B240402F1FF307A
:1059F00065D4C0F30E00C883C88B80B2C882996B8F
:105A00000968C88B000452D4C2F30E00C883C88B47
:105A1000002480B212F1FF32C88218BF01221C6339
:105A2000596B2E4809680D6800F12C04A54236D048
:105A30000068C46814F0804F0C680D6815BF248896
:105A400024780235013544F000440D604463996BBD
:105A5000254B09791970214912B14A6B12791A70D4
:105A6000F0BC7047521A1A630122D9E7D86B196843
:105A700005681E4C0A63CC62CC682D681C4E24F06D
:105A800080440327B542CC6083F82D701FD1037F7B
:105A90004260022BC2601ED0F0BC02F099BF0168C8
:105AA00090F82C00CC6840F000404863CFE7CC8BE6
:105AB000C2F3080004F47E442043C883A7E7CC8BDC
:105AC000C0F3080004F47E442043C88394E72B46C7
:105AD0001146F0BC18478368F0BC1847E426FF1F46
