:1000000000000320D10100000D9C0000C59B0000F2
:10001000C59B0000C59B0000C59B0000C59B000060
:10002000C59B0000C59B0000C59B00000D9C000007
:100030000D9C0000C59B0000B18D0000B58E000036
:100040000D9C00000D9C00000D9C00000D9C00000C
:100050000D9C00000D9C00000D9C00000D9C0000FC
:100060000D9C00000D9C00000D9C00000D9C0000EC
:100070000D9C00000D9C00000D9C00000D9C0000DC
:100080000D9C00000D9C00000D9C00000D9C0000CC
:100090000D9C00000D9C00000D9C00000D9C0000BC
:1000A00095760000A17600000D9C00000D9C0000DC
:1000B0000D9C00000D9C00000D9C0000D9BF0000AD
:1000C0000D9C0000A9A900000D9C0000FDAB0000E4
:1000D0000D9C000005C100000D9C00000D9C00005F
:1000E0000D9C00000D9C00000D9C00000D9C00006C
:1000F0000D9C00000D9C00000D9C00000D9C00005C
:10010000A18F0000B58F0000C98F0000DD8F0000B7
:100110000D9C000089AE00000D9C00000D9C0000AD
:100120000D9C00000D9C00000D9C00000D9C00002B
:100130000D9C00000D9C00000D9C00000D9C00001B
:100140000D9C00000D9C0000FDC100000D9C0000F6
:100150000D9C00000D9C00000D9C00000D9C0000FB
:100160000D9C00000D9C0000AD760000598400003D
:10017000898400006584000085840000818400007B
:10018000718400000D9C00000D9C00000D9C00007F
:100190000D9C00000D9C0000F5C200000D9C0000AD
:1001A0000D9C00000D9C00000D9C0000B976000025
:1001B0000D9C00000D9C00008D840000BD8400009B
:1001C00099840000B9840000B5840000A584000073
:1001D0005C4B4CF2205210B51A804DF628121A8052
:1001E00000BF00BF09F016FD574B4FF030621A6098
:1001F000564A9A60564ADA60564B4FF470021A60BB
:10020000554B564A1A60564B1A78110703D51A787F
:1002100042F008021A70534B5349AA221A70534AEB
:10022000534B8B4204D252F8040F43F8040BF8E707
:10023000504B514900228B4202D243F8042BFAE77B
:100240004E494F4A002352F8230041F8230001335E
:10025000742BF8D14B4B4C4A802103F8011B93427D
:10026000FBD14A4B454A1A60494B8A221A70A3F5C2
:10027000805324225A70A0221A709A799207FCD5D2
:100280009A79D406FCD4434A937903F00C03082BE3
:10029000FAD1414B60221A7002331A78802AFCD1BD
:1002A0003C4B01221A715D225A719A799006FCD555
:1002B0009979384A4906FBD5384B394919600021EC
:1002C000596020231370937903F00C030C2BFAD19F
:1002D000344B354A1A60354A354C136813F4807331
:1002E00003D123604FF4A8531360324B324A1A6093
:1002F00000225A60072243F8042C304AC3F80C2D20
:1003000062B60AF055F92368DA0705D52C4809F0DA
:1003100057FE2C4B2C4A1A602C4B1B785B0609D5D8
:10032000284C294B22689A4204D1254809F048FEFE
:10033000002323600CF014FD09F072FC09F0A0FB0F
:10034000FEE700BF0E20054030800440823F0400DD
:100350000100002B88ED00E0002008E0030000858C
:1003600002D0074000E00740E045FF1F14390100BC
:100370003007FF1FE045FF1F10D9FF1F0002FF1FBE
:100380000000000000E400E064E400E008ED00E0AC
:10039000005006400040064001E007404480044011
:1003A0000000060204800440C010070010D0034083
:1003B00014D0034014E000E01FBF02000000202022
:1003C000C8DBAA5D1CE00340A5C3945A00F00740B7
:1003D000FFFFFFFFFFFFFFFFFFFFFFFFFFFFFFFF2D
:1003E000FFFFFFFFFFFFFFFFFFFFFFFFFFFFFFFF1D
:1003F000FFFFFFFFFFFFFFFFFFFFFFFFFFFFFFFF0D
:10040000FFFFFFFFFFFFFFFFFFFFFFFFDEF9FFFF23
:1004100010B5054C237833B9044B13B10448AFF33E
:1004200000800123237010BDE045FF1F0000000085
:1004300010390100084B10B51BB108490848AFF34B
:1004400000800848036803B910BD074B002BFBD0A0
:10045000BDE81040184700BF00000000E445FF1F42
:1004600010390100E045FF1F00000000704700BF89
:10047000014808F0EBBA00BF5848FF1F10B504460A
:1004800008F06CFD204610BD38B5054CA4F5A875E4
:100490002046103C08F040FEAC42F9D138BD00BF08
:1004A000086CFF1F10B5044B044640F81C3B08F0D5
:1004B00033FE204610BD00BF2433010030B5044692
:1004C000543094F85D2002F5067102F10B0354F8E4
:1004D0002110616404EBC30383B053F8065F5B68CB
:1004E0006565436094F8343013B1284B1B780BBB1F
:1004F00094F85C10E36B914298BF002203F1010372
:1005000098BF84F85D208B4224BF002284F83420F9
:100510006268A16BE36302FB03F38B4204D3002206
:100520000123E26384F83430204603B0BDE8304054
:1005300008F042BA94F840305BB1012B11D0022B85
:1005400017D0236B0132D2B2013384F85D202363CC
:10055000CEE704F144010E4807F06AFD94F85D20EF
:10056000EFE704F144010B4807F062FD94F85D20C9
:10057000E7E794F8522094F85330009002F001021B
:10058000054805F039FB94F85D20DAE7E16CFF1FC0
:100590008C6EFF1F74A1FF1FFC58FF1FC36A23B19D
:1005A000026B93429CBF0023037508F0FDB900BFA6
:1005B00008B509F087FF034B1860BDE8084009F053
:1005C000F9BC00BFB86CFF1F08B509F07BFF044BF6
:1005D0000449186003220920BDE8084009F02ABC3C
:1005E000E46CFF1FE905000008B509F06BFF0D4B37
:1005F0000D4A1B681288C01A824211D2092009F0E4
:1006000095FC0A4A0A4B106842081344B3FBF0F009
:100610000AF084F800200AF0F5F8064B01221A705F
:1006200008BD00BFE46CFF1FC46AFF1FEC1AFF1F68
:10063000002A7515FD45FF1F704700BF704700BFBA
:10064000214B10B45A6E1368506819780478507AA8
:10065000137A044201EA03011BD0937A03F00303E7
:1006600009B143F0040343F008039910013B917270
:100670000D2B0BD8DFE803F021071B070A152121FA
:10068000150A071B0721D368013BD3605DF8044BB3
:100690007047937A03F003030029E6D043F0040384
:1006A000E3E7D3685DF8044B023BD3607047D3683F
:1006B0005DF8044B0233D3607047D3685DF8044B98
:1006C0000133D360704700BF386DFF1F214B10B45A
:1006D0001A6F1368506819780478507A137A0442B4
:1006E00001EA03011BD0937A03F0030309B143F03D
:1006F000040343F008039910013B91720D2B0BD8B2
:10070000DFE803F021071B070A152121150A071B43
:100710000721D368013BD3605DF8044B7047937A9F
:1007200003F003030029E6D043F00403E3E7D368B2
:100730005DF8044B023BD3607047D3685DF8044B0F
:100740000233D3607047D3685DF8044B0133D36044
:10075000704700BF386DFF1F70B5044608460D4650
:100760000DF0EEF923680246294620465B68BDE895
:100770007040184738B5044608460D460DF0E0F9BC
:100780002368024629465B6820469847054620466E
:1007900008F054FC284438BD38B50A220023054629
:1007A00008F072FC0446284608F048FC204438BD96
:1007B00038B5054608F0A8FC0446284608F03EFC7B
:1007C000204438BD38B50121022009F075FE012111
:1007D000052009F071FE01211F2009F06DFE0121A5
:1007E0001A2009F069FE01211B2009F065FE022193
:1007F000182009F061FE0121232009F05DFE01218E
:10080000242009F059FE0121252009F055FE01217F
:10081000262009F051FE0121272009F04DFE00217C
:10082000092009F049FE0021152009F045FE0121AB
:100830001A2009F02DFE01211B2009F029FE0121BB
:10084000052009F025FE0021022009F021FE0021EB
:10085000242009F01DFE0021252009F019FE104C6E
:100860000021262009F014FE2720002109F010FEA7
:10087000651D102001E014F9010FC0B2012109F03B
:100880001BFEA542F7D1074C4220651D01E014F97B
:10089000010FC0B2002109F00FFEAC42F7D138BD04
:1008A00070160100A82D0100F8B5174E174F184D0E
:1008B000184C314638463E2208F052F82946F08757
:1008C0003E22384608F04CF82146E8873E2238465A
:1008D00008F046F84022E0871146304609F03EF81D
:1008E00028464022802109F039F820464022C021C4
:1008F00009F034F80F2108480BF0F2F90748BDE879
:10090000F84008F09BBB00BFD069FF1F2848FF1FBD
:10091000106AFF1FEC6CFF1FB4160100283BFF1F7D
:10092000FFF7C2BF2DE9F8433B4C671CC7F14106F6
:1009300004F14005301908F0C9FF04F8010FA54281
:10094000F8D1364C04F10108C8F1810604F14005E4
:10095000301908F0BBFF04F8010FA542F8D1304C64
:1009600004F10109C9F1C10604F14005301908F08C
:10097000ADFF04F8010FAC42F8D13E2229492A48C4
:1009800007F0EEFF97F83F2097F83E40C3B29A4237
:100990002AD000243E2225492348254D07F0E0FFB8
:1009A00098F83E1098F83F600346C3F30F22914237
:1009B00018BF0024DBB23E221B4829469E4218BFC6
:1009C000002407F0CDFF99F83E20C0F30F239A4290
:1009D00011D0362117480BF083F90024164808F08F
:1009E0002DFB2046BDE8F883C0F30F20041BB4FAAA
:1009F00084F46409CEE795F83F30C0B28342E8D171
:100A0000002CE6D036210D480BF06AF90A4808F0B0
:100A100015FB2046BDE8F883CF69FF1F0F6AFF1F53
:100A2000EB6CFF1FD069FF1F2848FF1F106AFF1FD4
:100A3000EC6CFF1FFC160100283BFF1FC4160100D1
:100A400000B5134A134B1268134883B00192019A00
:100A50001A6008F01DFD00280CDD104B1048012223
:100A60001D211A700BF03CF90E4808F0E7FA03B0AC
:100A70005DF804FB1E210C480BF032F9094808F020
:100A8000DDFA064B00221A7003B05DF804FB00BFCC
:100A9000D0D4FF1F8858FF1F1447FF1FB46CFF1FDF
:100AA00034170100283BFF1F541701000B4808B5FD
:100AB00083683BB90A4B0B491A680B48BDE80840EC
:100AC00008F0D4BA08F0E4FC054B084902461A6065
:100AD0000548BDE8084008F0C9BA00BF1447FF1F29
:100AE000001BFF1FAC170100283BFF1F74170100FC
:100AF00038B50B480B4C08F0CBFC0B4905460246B9
:100B0000204608F0B3FA094B53F8251020461C3153
:100B100008F06EFA2046BDE8384008F08FBA00BFF2
:100B20001447FF1F283BFF1FE81701005059FF1F04
:100B300070B500210C4808F03DF8061E12DD0B4D83
:100B4000002422460A490B4808F090FA55F8041F81
:100B500008481C3108F04CFA0134064808F06EFAD7
:100B6000A642EED170BD00BF5848FF1F4C59FF1F71
:100B7000E8170100283BFF1F08B50021044808F0D2
:100B800019F804490246BDE80840034808F06EBA67
:100B90005848FF1F00180100283BFF1F2DE9F04FA8
:100BA000B148ADF5177D08F0D9F90021AF4808F03C
:100BB00001F84FF4807216A900238346AC4808F070
:100BC000FFFB2C2311A916A8ADF844300DF05AF8FC
:100BD000014612A808F0E0FA11A900200DF052F821
:100BE000002800F001820CF0A7F80028C0F29981DB
:100BF0005845A8BF5846074611A900200DF042F8F5
:100C0000002800F0D3810CF097F8002840F38B8186
:100C1000FF28A8BFFF20C3B281460E9311A9002070
:100C20000DF030F8002800F0CB810CF085F800289A
:100C3000C0F27D8109F1FF388045A8BF804611A927
:100C400000200DF01FF8002800F09C810CF074F8D3
:100C50000228034611A9A8BF0223002023EAE37A51
:100C60000DF010F8002800F0B58100210A220DF0E7
:100C7000A9F9804B1B68834238BF034611A90020A5
:100C80000B930CF0FFFF002800F0868100210A2260
:100C90000DF098F911A90C9000200CF0F3FF00283A
:100CA00000F0AC8100210A220DF08CF911A90D9001
:100CB00000200CF0E7FF002800F046810CF03CF823
:100CC0006D4EB37B80F3010060F3000311A9002097
:100CD000B3730CF0D7FF002800F0498110220021E7
:100CE0000DF0A6F8306011A900200CF0CBFF002811
:100CF00000F020810CF020F80828A8BF082020EA86
:100D0000E070F07310B35D4D00240AE00DF090F830
:100D100080F308002870F37B0134A34205F101053C
:100D200014DD11A900200CF0ADFF102200210028D5
:100D3000ECD1FF232B7022465149524808F096F916
:100D4000F37B0134A34205F10105EADC149A56A9AC
:100D50000132002312A808F033FB5F4580F2A28025
:100D600056AB3A4648494748484C08F07FF90D9A37
:100D7000B37B05920C9AF07B3168049203F0010377
:100D80000B9A03920693089007913B46CDF808A072
:100D9000CDF80480CDF8009056AA3D49394808F0B6
:100DA00065F9F37B013B002B0DDDDFF8F0900025AA
:100DB00019F8012F3749334808F058F9F37B01350A
:100DC000013BAB42F4DC334433491A7C2D4808F034
:100DD0004DF954F8273096F80EE093F85210F57B51
:100DE000306883F840A008F506726EF3000183F8BE
:100DF000521083F8535043F8220075B127494FEA47
:100E0000C808002254F8273011F8010F4344134456
:100E10000132954283F85E00F4D154F827009DF822
:100E2000382080F85C200023026880F85D300D9D3A
:100E300012680B990363C363C562904754F8270097
:100E40000C9B836312A91C3008F008FA47F22F525A
:100E50001349054808F038F812A808F05DF938463B
:100E60000DF5177DBDE8F08F9C6CFF1F5848FF1FE4
:100E70001447FF1F001BFF1F1C6CFF1F2C6CFF1F64
:100E8000301A0100283BFF1F8C1A01005059FF1F28
:100E9000A81A0100041B01000C1B01002B6CFF1F92
:100EA0007104000056AB5A4659495A485A4C08F04A
:100EB000DDF84FF4466008F01DFF4FF44662002154
:100EC00005460CF0DBFA0022114628460F9207F087
:100ED00085FD0F9B514A2A60012219462B63AB63A3
:100EE000EB6385F8403085F85D3085F8342085F86F
:100EF0005C2005F15E004FF400620CF0BFFA0F9B1E
:100F00004FF48062194605F506600CF0B7FA2946E1
:100F1000434807F00FFE0F9B2B755F4644F82B509C
:100F200025E7002768E601230E93994676E64FF001
:100F3000000884E638213B480AF0D2FE354808F024
:100F40007DF80823F373DEE63221374E37480AF086
:100F5000C7FE304808F072F8B37B11A943F00103D3
:100F60000020B3730CF08EFE00287FF4B7AE36215C
:100F70002F480AF0B5FE274808F060F86FF04043AC
:100F80003360B0E62D212B480AF0AAFE214808F074
:100F900055F86FF003075FE7332127480AF0A0FEFA
:100FA0001C4808F04BF86FF0050755E7422123482D
:100FB0000AF096FE174808F041F86FF001074BE77A
:100FC00023211F480AF08CFE124808F037F86FF012
:100FD000020741E734211B480AF082FE0D4808F061
:100FE0002DF86FF0040737E7262117480AF078FE3E
:100FF000084808F023F84FF0FF372DE73821134851
:101000000AF06EFE034808F019F86FF0060723E7B0
:10101000741A0100283BFF1F5059FF1F641601007E
:101020005848FF1FF41901001C6CFF1F88190100AC
:10103000BC190100B018010018190100481801007E
:101040008C180100E0180100201801004C19010063
:1010500008B500210D4807F0ADFD00280CDD00F1BA
:1010600080410B4B013903EB81010020043B53F815
:10107000042F8B421075FAD1222106480AF030FE67
:101080000548BDE8084007F0D9BF00BF5848FF1F1A
:101090005059FF1F141B0100283BFF1F2DE9F04191
:1010A0000021134807F086FD012814DD114EDFF8FA
:1010B00050800746012556F8044F0135204644B1BB
:1010C00040F81C8B08F028F820464FF4466108F0E1
:1010D00013FEAF42EFD1064807F058FD48210648FD
:1010E0000AF0FEFD0548BDE8F04107F0A7BF00BFCC
:1010F0005848FF1F5059FF1F381B0100283BFF1F96
:101100002433010010B500210F4807F053FD0028DB
:1011100011DD0E4A00F18040013802EB800001240D
:10112000043A002152F8043F82421C75196383F887
:101130005D10D963F6D1232105480AF0D1FD054899
:10114000BDE8104007F07ABF5848FF1F5059FF1FF5
:10115000841B0100283BFF1FF0B5002185B0274804
:1011600007F028FD051E31DD0A2201A900232448CD
:1011700004AE08F025F92C2326F8103D01A83146CD
:101180000CF080FD0BF0D8FD002835DB013DA842B6
:10119000A8BF28460446314600200CF073FD0BF032
:1011A000CBFD0028174B1ADD53F824501649D5F80B
:1011B000603816480026012722462F752E6385F8D1
:1011C0005D60EE6307F052FF05B0F0BD27211048C7
:1011D0000AF086FD0D4807F031FF05B0F0BD53F869
:1011E00024500C49D5F860380848002622462E7550
:1011F00007F03CFF05B0F0BD0024CCE75848FF1FC6
:101200001447FF1F5059FF1FA81B0100283BFF1F59
:10121000F81B0100D01B010010B5014604460A4826
:1012200007F072FF34B9094A094B92E803001860CD
:10123000998010BD074A064B07CA03C323F8022B47
:10124000120C1A7010BD00BF283BFF1F2C1C0100A0
:101250006869FF1F201C0100013830B406282DD812
:10126000DFE800F00F171F21282A0400144D154C49
:101270000FCD0FC495E8030044F8040B217030BC77
:101280007047114D0F4C0FCD0FC42B68237030BC2D
:1012900070470E4D0B4C0FCD0FC42B68236030BC34
:1012A00070470B4DE3E70B4B064C0FCB84E80F0068
:1012B00030BC7047084DE5E7084DD8E7084DE9E731
:1012C000B01C01006869FF1F341C0100481C0100AC
:1012D0005C1C0100741C0100841C0100981C0100AE
:1012E000C81C01001A4B1B4A18781B4B127819783E
:1012F0001A4B70B51A4C1B7826781A4D1A4C2D785B
:101300002478800040EA42020A4342EAC60242EAE6
:10131000031242EA431343EA851300211A2043EAE9
:10132000C41409F0B5F8114B1A68E4B24FF0004349
:10133000D3625463D36A002BFCDA01211A20936B29
:1013400009F0A6F80A4B83F83440204670BD00BF70
:101350008C58FF1FEA6CFF1F5C6AFF1FD46CFF1FD5
:10136000866CFF1FE86CFF1F5069FF1F242EFF1FB4
:10137000D069FF1FF0B50E4F0E4D0F490F4E104CA8
:10138000104A114B00F0010E87F800E0C0F340074F
:101390002F70C0F38005C0F3C0070D70C0F30015B7
:1013A000C0F38011C0093770257011701870F0BD3E
:1013B0005C6AFF1FEA6CFF1F8C58FF1F866CFF1FC3
:1013C000D46CFF1FE86CFF1F5069FF1FF8B51B4B63
:1013D0001B4A19781B4B17781B4A18781B4B12783D
:1013E0001B4C1B781B4D24781B4E2D78890041EA3D
:1013F0004701014341EAC20242EA031242EA4413AE
:10140000347843EA851300211B2043EAC41409F011
:101410003FF8124B1A68E4B24FF00043D3625463B2
:10142000D36A002BFCDA01211B20936B09F030F802
:101430000B4B83F82F402046F8BD00BFF12DFF1F56
:10144000241BFF1FF01AFF1F656AFF1F2447FF1FA1
:101450003559FF1F092EFF1FE06CFF1F242EFF1FB1
:10146000D069FF1FF0B5DFF860E0104F104D114953
:10147000114E124C124A134B00F0010C8EF800C0B2
:10148000C0F3400E87F800E0C0F380072F70C0F370
:10149000C005C0F300170D70C0F34015C0F38011F4
:1014A000C0093770257011701870F0BD241BFF1F24
:1014B000F12DFF1F656AFF1F2447FF1F3559FF1FCE
:1014C000092EFF1FE06CFF1FF01AFF1FF0B5234F1E
:1014D000234E244DDFF8C0E0234B244C244A2549F9
:1014E00000F0010C87F800C0C0F3C00CC0F3400747
:1014F00086F800C0C0F3801C2F70C0F30016C0F344
:1015000080051D4F8EF800C0C0F3C01E1D702670F0
:1015100082F800E0C0F34014184B194D0C70C0F372
:10152000402EC0F30022174987F800E0C0F380275F
:101530001A702F70144E154C154A164BC0F3C02567
:10154000C0F300370D70C0F34035C0F38031C00BDD
:101550003770257011701870F0BD00BFA558FF1FBF
:101560006469FF1FF02DFF1FCC69FF1F0C1BFF1FBD
:101570003659FF1FF81AFF1FD56CFF1F346DFF1F70
:10158000F858FF1FB858FF1F2C59FF1FE96CFF1FA9
:10159000986CFF1F1247FF1F082EFF1F431E0F2BC3
:1015A00030B445D9A0F11103072B35D9A0F11903A7
:1015B000072B48D9A0F12103032B4ED9A0F1250315
:1015C0000B2B40D9312833D032283CD0A0F1330343
:1015D0000F2B4DD9A0F14303072B34D9A0F14B03B6
:1015E000022B25D9A0F14D03032B41D9A0F15103C2
:1015F000012B52D9A0F15303022B43D957380128AC
:1016000021D8284C2849294B002541F28830012255
:10161000256008601A6009E0224C2349234B00250D
:1016200041F28D301422256008601A6030BC70478A
:101630001C4C1D491D4B0025FF2001222560086020
:101640001A6030BC704717481749184A0024012314
:1016500004600B60136030BC7047124C1249134B8E
:10166000002541F28D300122256008601A60DDE717
:101670000C4C0D490D4B0025072001222560086008
:101680001A60D3E7074C0849084B00254FF6FF7056
:101690000122256008601A60C8E7024C0249034B2A
:1016A000F525F3E7946CFF1FFC1AFF1F281BFF1F93
:1016B00030B50E4D0E4CC1B0002328466946FF22BE
:1016C00007F07EFE4FF4807268464FF47A7108F09E
:1016D00045F9062107480AF003FB2946204607F092
:1016E00087FC204607F0AAFC41B030BD5469FF1FBB
:1016F000283BFF1FDC1C0100F0B5C5B004AFC7F5E7
:101700007A7501350DF10F040DF20F16281908F046
:10171000DDF804F8010FB442F8D13B78FF2B17D065
:101720003946684607F038FD69460B4807F09EFDCC
:10173000684607F0F1FC072108480AF0D1FA06498B
:10174000074807F055FC064807F078FC45B0F0BDA7
:10175000FFF7AEFF45B0F0BD5469FF1FE41C010068
:10176000283BFF1F10B50948094C07F091FE094BB3
:10177000003018BF0120187009F02EFA0023064827
:10178000064A237001210370117010BD1447FF1F1A
:10179000646AFF1FA458FF1FEB6CFF1F0D1BFF1F88
:1017A0002DE9F04F88488268AFB0002A52D000235C
:1017B00015A907F005FE9DF85430312B64D0302B6D
:1017C00065D0322B14BF4FF0FF394FF002092C21A6
:1017D0007D4807F00FFE451C04462A462C217A4816
:1017E00007F018FE002C074645DD012843DD2A4698
:1017F00008A83B46744907F01FFE08A805A9002366
:10180000092207F0DDFD05A80CF09AF90024054631
:10181000264607E012F8A40C0BF0CAFA01340126A0
:10182000002837D0E3B22EAA9D421A44F2D88EB3D4
:1018300010220DEB020105A80CF0C4FB634DC20A97
:10184000AB7B00F0A48020F0404043F0010328600F
:10185000AB7328E026215E485C4D0AF041FA5D48F2
:1018600007F0ECFBAB7B082243F00103AB73EA7398
:101870002FB0BDE8F08F554D57487A210AF030FA65
:10188000544807F0DBFBEDE74FF001099FE74FF00D
:1018900000099CE7172151484C4D0AF021FA4D48A8
:1018A00007F0CCFB00267A1C0CA847490DF1400834
:1018B00007F0E6FD0CA841460023112207F080FD49
:1018C00040460CF03DF940085FFA80FAE8734FEAB1
:1018D0004A07BAF1000F6FD000231C4601E0BC425A
:1018E00018DA2EAA1344013413F8780C0BF060FABE
:1018F000E4B223460028F2D1432139480AF0F0F936
:10190000344807F09BFB0CA807F006FC08A807F07A
:1019100003FCB1E7BAF1000F1BD00024DFF8D8A018
:10192000A346474618F814007B788DF80C00102267
:101930000DEB020103A88DF80D308DF80EB00CF000
:1019400077FA0AF8010FEB7B0134A34207F1020793
:10195000E8DC0CA807F0E0FB08A807F0DDFB002E90
:101960008AD0B9F1000F0DD0B9F1010F1FD0B9F134
:10197000020F11D022211B480AF0B2F9154807F0D6
:101980005DFB6FE71149184806F052FB6AE762F306
:1019900000032860AB7386E7AA7B1448EB7B2968B9
:1019A000009002F00102124804F026F95AE70749B4
:1019B000104806F03DFB55E70CA807F0ADFB08A862
:1019C00007F0AAFB58E700BF1447FF1F1459FF1F79
:1019D000AC1E0100283BFF1F301E0100B01D01009E
:1019E000C81D01000C1E01008C6EFF1F2459FF1F33
:1019F000FC58FF1F74A1FF1F2359FF1F2DE9F04F53
:101A00007148724B84681B68704AADF21C7DB4F556
:101A1000E06F01934FF00103136080F0C58006AFC3
:101A2000E2183946002307F0CBFC694B2546A4B2E7
:101A3000A3FB0423E21A03EB52039B08C3EBC3028C
:101A4000A21A1FFA83FA92B25FFA8AF3002A40F0D0
:101A5000B7802A465F4905A80BF06CFF52465D49E6
:101A600003A80BF067FF5C495C4807F007FC5C4B80
:101A70005C491A7804A80BF05DFF04A9574807F0E9
:101A80003FFC5949554807F03BFC05A9534807F06E
:101A900037FC5649514807F033FC03A94F4807F07B
:101AA0002FFC53494D4807F02BFC4C49514807F097
:101AB0009FFA504807F0C2FAFFF770F8BAF1000F2A
:101AC0006AD04FF0000846460AF101094A494348E6
:101AD00007F0D4FB4A46494904A80BF02BFF013616
:101AE00004A93E4807F00CFC3246444904A80BF018
:101AF00021FF04A9394807F003FC4149374807F0A2
:101B0000FFFB4A463D4904A80BF014FF04A93348E3
:101B100007F0F6FB3B49314807F0F2FB304B314907
:101B20001A7804A80BF006FF04A92C4807F0E8FB7C
:101B300035492A4807F0E4FB32462A4904A80BF04D
:101B4000F9FEC6EBC60B04A9244807F0D9FBC34530
:101B5000444612DDAC422349A8BF22494FF0FF02A0
:101B600004A8B4BF3A5D04A80BF0E4FE013404A954
:101B70001A4807F0C5FBA345ECD118491D4807F0EA
:101B800037FA1C4807F05AFAFFF708F81F4BB2451E
:101B900008F10708186099D19DF804300B4A1360CA
:101BA0000DF21C7DBDE8F08F06AF394600234FF4DF
:101BB000E06207F005FC4FF0000A40F2FF6548E7DD
:101BC00001335FFA83FA44E75469FF1F001BFF1FCC
:101BD00025499224D41E0100DC1E01001447FF1F7A
:101BE0002D1BFF1FB0220100001F0100241F010058
:101BF000081F0100283BFF1F181F0100281F0100BC
:101C00002C1F0100341F0100401F0100A46CFF1FA6
:101C100070B5FFF7F3FE0C4C4BF6803604F5A87553
:101C200021460A4807F01AFBFEF7B8FF3346013B8E
:101C3000FDD11034AC42F3D10549044807F01EFB36
:101C4000BDE87040FFF75EBAC86AFF1F1447FF1F68
:101C5000582A010084B0F8B506AC84E80F009DF85E
:101C60003070384E044606F021FD03210546364803
:101C70000AF036F8280E0AF0BBF8C5F307400AF060
:101C8000B7F8C5F307200AF0B3F8E8B20AF0B0F8E5
:101C900038460AF0ADF808F015FC3368C01AC0F3F6
:101CA00007400AF0A5F808F00DFC3368C01AC0F32D
:101CB00007200AF09DF808F005FC3368C01AC0B28E
:101CC0000AF096F89DF82630200E03F0010340EA52
:101CD000C3100AF08DF8C4F307400AF089F8C4F382
:101CE00007200AF085F8E0B20AF082F89DF8270094
:101CF0000AF07EF89DF828000AF07AF89DF829008D
:101D00000AF076F89DF82A000AF072F89DF82B0088
:101D10000AF06EF89DF82C000AF06AF89DF82D0084
:101D20000AF066F89DF82E000AF062F89DF82F0080
:101D30000AF05EF8BDE8F8400121044804B009F05B
:101D4000CFBF00BFB86CFF1FE42C0100A82F01001B
:101D50002DE9F043002489B0234604A90F221E4830
:101D6000069404940594CDF81B4007F029FB04A8C1
:101D70000AF0E6FF0A28054608D858B11C21174882
:101D800009F0AEFF164807F059F92546284609B074
:101D9000BDE8F08306F02AFD044606F017FD06466E
:101DA00006F004FD814606F0D1FC074606F0DEFC95
:101DB000804606F0EBFCCDF800900390CDF808804B
:101DC0000197334622460749054807F04FF9284650
:101DD00009B0BDE8F08300BF1447FF1F701F01006A
:101DE000283BFF1F441F01002DE9F04184B0FFF79D
:101DF000AFFF08B3044608F0E3F8204606F008FDFC
:101E000006F0F4FC044606F0E1FC054606F0CEFCC4
:101E1000804606F09BFC064606F0A8FC074606F046
:101E2000B5FCCDF800800390029701962B46224620
:101E30000349044807F01AF904B0BDE8F08100BF77
:101E4000901F0100283BFF1F08B506F035FD034930
:101E50000246BDE80840024807F008B9BC1F01006F
:101E6000283BFF1F84B070B584B008AC84E80F0035
:101E70000B9C0A980E990D9A03918DE8110002921D
:101E80009DF820302E9A1449144807F0EFF808AC5A
:101E900026AE25462A6A12491048083507F0E6F8AA
:101EA000B542F7D10F9A0F490C4807F0DFF8626A84
:101EB0000B490A48083407F0D9F8A642F7D10121A6
:101EC000094809F00DFF054807F0B8F804B0BDE86F
:101ED000704004B0704700BFC41F0100283BFF1FC3
:101EE0003C200100442001005C20010070B5F0B0EE
:101EF00024AC98252A4688262046124907F0C8FDBA
:101F000028A9324600236846229307F0C1FD94E8D1
:101F10000F00FFF7A7FF2A464AA80B4907F0B8FDB4
:101F20002A464AA9204607F0B3FD324628A90123D4
:101F30006846229307F0ACFD94E80F00FFF792FF8C
:101F400070B070BDD4A0FF1FBCD3FF1F38B50B4DC0
:101F50000B4C284605F0FAFF204605F0F7FF43F248
:101F6000482301221C210748EA54E25409F0B8FE34
:101F70000548BDE8384007F061B800BF8C6EFF1F10
:101F800074A1FF1F60200100283BFF1F10B5074C04
:101F90000748312109F0A4FE2046064907F028F839
:101FA0002046BDE8104007F049B800BF283BFF1F9E
:101FB000802001005469FF1F124908B58B680B2B64
:101FC00013D9114807F04AF9FFF772FB17210F48A0
:101FD00009F086FE0C490E4807F00AF80C4807F095
:101FE0002DF8BDE80840FFF709BD1821094809F0A0
:101FF00077FE0549064806F0FBFF0548BDE80840A6
:1020000007F01CB81447FF1F5469FF1FD0200100C0
:10201000283BFF1FB42001002A4B984248D011D81A
:1020200044F62063984241D01BD841F2883398424D
:1020300036D042F2107398423CD0B0F5805F31D078
:10204000FF207047204B984238D018D81F4B984239
:1020500024D01F4B984227D01E4B9842F0D1092024
:10206000704749F64043984214D04CF2503398429E
:1020700026D047F612239842E2D104207047164B2F
:10208000984209D0154B984216D0154B9842D7D19B
:102090000D207047062070470F2070470A207047B8
:1020A00001207047002070470B20704703207047C5
:1020B00008207047022070470E2070470C207047A0
:1020C000072070478038010090D0030048E80100E5
:1020D000400D0300A08601002A2C0A0040420F0098
:1020E00020A10700F0B5104D104A114F83B0002415
:1020F00023462846214643F2E426009405F0B0FD2D
:1021000019210C4809F0ECFD2346A9590A2238464A
:1021100006F0BAFF384606F091FFA859FFF77CFF9A
:10212000054B187503B0F0BD8C6EFF1F5CD4FF1F0C
:10213000283BFF1FE8200100106AFF1FF0B5104D7B
:10214000104A114F83B0002423462846214643F20B
:10215000E426009405F084FD19210C4809F0C0FD27
:102160002346A9590A22384606F08EFF384606F063
:1021700065FFA859FFF750FF054B587503B0F0BD38
:1021800074A1FF1F5CD4FF1F283BFF1F0421010027
:10219000106AFF1F10B52648836884B06BBB254CBE
:1021A0002068FFF739FF012302460321224803F08C
:1021B000D3FCD0B11D21214809F092FD204806F042
:1021C0003DFF1B211F4809F08BFD00230A222168D7
:1021D0001B4806F059FF1A4806F030FF2068FFF749
:1021E0001BFF194B987504B010BD2121174809F049
:1021F00077FD134806F022FFE3E7002301A9092237
:1022000007F0DEF80A22002101A80BF0DBFE104BDC
:10221000104A014603F1380003E08342BFD053F86F
:10222000042F9142F9D1034C08462160B9E700BF61
:102230001447FF1F201BFF1FFC58FF1F44210100F4
:10224000283BFF1F64210100106AFF1F20210100AD
:102250007816010090D0030010B513211548164CD4
:1022600009F03EFD154B0A2219682046002306F0AE
:102270000BFF204606F0E2FE1321114809F030FD65
:10228000104B0A2219682046002306F0FDFE204666
:1022900006F0D4FE15210C4809F022FD0B4B204618
:1022A00019680A22002306F0EFFE2046BDE8104020
:1022B00006F0C4BE80210100283BFF1F041BFF1F46
:1022C00094210100081BFF1FA8210100201BFF1FF4
:1022D00030B5214883B007F0DBF800282ADDFFF78E
:1022E0008DFB1E4B1E482B2101241C7009F0F8FCAD
:1022F0001C4806F0A3FE1C491C4A0B680093009B77
:10230000156841F288305B1B834211D9184809686F
:10231000184B0068019153F8203001991160002298
:102320001C7583F834401A639A63DA6383F85D207E
:1023300003B030BD094B104800242C211C7009F05B
:10234000CFFC084806F07AFE094A0A4B126853F897
:1023500022301C7503B030BD1447FF1F846CFF1F73
:10236000C0210100283BFF1FD0D4FF1FD06CFF1FEE
:10237000A46CFF1F5059FF1FEC21010008B506F0A7
:1023800095F903490246BDE80840024806F06EBED2
:102390001C220100283BFF1F08B50E4807F078F803
:1023A00000280BDD0C4B0D48012217211A7009F093
:1023B00097FC0B48BDE8084006F040BE18210948CC
:1023C00009F08EFC064806F039FE034B00221A7015
:1023D00008BD00BF1447FF1FAC6CFF1F4422010063
:1023E000283BFF1F5C22010008B50E4807F050F89B
:1023F00000280BDD0C4B0D48012215211A7009F045
:102400006FFC0B48BDE8084006F018BE16210948CD
:1024100009F066FC064806F011FE034B00221A7014
:1024200008BD00BF1447FF1F261BFF1F78220100B5
:10243000283BFF1F902201002DE9F04F83B008F0E8
:102440006FFA18B3AA4B1C786CB10022A94D1A7010
:1024500008F038F82B68C01AB0F57A6F46D3A64C4E
:102460000123237014E0A54D2E78002E48D1A44CF2
:102470002778002F65D1A34B1A78002A40F0888076
:10248000A14B1B78002B72D108F05AFA994D9A4C47
:1024900008F018F82B684CF25032C01A90421FD93D
:1024A0000123237008F00EF82B6842F22832C01A7C
:1024B000904212D90021092007F0FEFF0222934921
:1024C000904D092007F0B6FC8D4889498B4A0023BE
:1024D0002B70237003700B70137003B0BDE8F08F86
:1024E0002378002BDED103B0BDE8F08F08F028FA86
:1024F000C0B25528ACD1814B7F4C01221A70C7E77E
:1025000008F01EFA824ADFF838E2824E7C492C70CD
:10251000C0B200F0200300F00F0701251470C206BE
:102520008EF80000DBB237700D702AD5002B00F05A
:10253000C080794B08221A70202800F081806D4DF0
:102540008DE7734D2F7808F0FBF92B78724A7349A9
:102550001278C8550133DBB29A422B7096D1694B81
:10256000267001222E701A70624D634C90E708F0BD
:10257000E7F96B495F4D604C02466A4806F076FD0C
:1025800086E7002B00F09580634B04221A70D3E796
:10259000DFF8ACB1604E019308F0D2F9DFF8A491F6
:1025A0005B4D9BF8004096F800E089F8000004F0CD
:1025B0003F042F70019BBEF1000F0CD0574F0EF15E
:1025C000FF307A1E57FA80F012F8011F90420C4437
:1025D000FAD185F800E054484B4FDFF86CA13A7807
:1025E00084FB00016018E117C1EBE011C1EB012190
:1025F000611A414CC94301204FF000088AF80010CD
:10260000207083F80080002A57D12A70BEF1000F95
:102610000CD0DFF80881002352B92B7831780133D0
:10262000DBB299422B70F7D8002A56D1314D2FE7F3
:1026300018F803203D493B4806F018FD3A78ECE7CE
:102640003B4DDFF808812B783A4A190101332B7092
:1026500098F800300D270446013114204FF0020E87
:10266000D7701646517082F802E010701546D71CDC
:10267000044433B9AF4209D015F8010F0444002BCC
:10268000F8D008F0F5F898F80030F3E7264884FB16
:1026900000016018E217C2EBE010C0EB0020201A26
:1026A000C043C0B23071002B3FF449AF08F0E0F8EE
:1026B00045E7194B02221A703EE707F003FF9BF82B
:1026C00000301D490246174806F0D0FC337885F8E3
:1026D00000803A78002B9CD1A6E79AF8003099F850
:1026E000002016490F48034D06F0C0FCD0E600BF9D
:1026F000FD45FF1FE46CFF1FA96AFF1FF958FF1F6C
:10270000546AFF1F1047FF1FAC6CFF1FC905000074
:102710005169FF1FFA58FF1F1B6CFF1FD86CFF1F6A
:10272000C4220100283BFF1F81808080B02201006D
:102730003459FF1F2847FF1FA8220100B8220100BB
:10274000906CFF1F876CFF1FBC6CFF1F261BFF1FB9
:1027500010B5074C0748092109F0C2FA204606497E
:1027600006F046FC2046BDE8104006F067BC00BFFE
:10277000283BFF1FD42201003859FF1FF0B5AB4999
:10278000AB48AC4DAC4C8BB006F006FDAB4AAC4947
:10279000A7480AF0CBFAAB49AB4806F0FDFCA74AC4
:1027A000A749A9480AF0C2FAA849A94806F0F4FCCA
:1027B000A24AA349A6480AF0B9FAA649A64806F0D3
:1027C000EBFC9E4A9E49A4480AF0B0FA06A8984934
:1027D00006F008FD06A8A14906F0BCFD9A4906F0DE
:1027E000B1FD9F4906F0B6FD994906F0ABFD9B4946
:1027F00006F0B0FD984906F0A5FD9A4906F0AAFD3D
:102800000146994806F0EEFC06A806F085FC8B4AC6
:102810008B4995480AF08AFA07F00CF8934806F0BD
:10282000B5F8934B854A934980261E7118460026B9
:102830001E600AF07BFA1F218F4803F07FF93146B2
:102840008E4806F0A9FC7D4A7D498C480AF06EFA54
:1028500031468B4806F0A0FC784A794988480AF04E
:1028600065FA2B68019301992B680293029A2B68F1
:102870000393844B03981960834B2F6883491A6034
:102880000497834B049A1A60086007F01BFE814B83
:10289000186007F017FE2B687F4A05937F4B106086
:1028A0000221059A1A601C2007F006FE0221192059
:1028B00007F002FE7A4A7B4BD2F8E010D2F8C8202B
:1028C000E66001F5007002F5007620600120666088
:1028D00020726072013BFDD191F8003292F8002223
:1028E000714F72493C67D20703EA000344BF43F0CB
:1028F0000203DBB204221C20A372012607F09AFA1D
:1029000004226B497C661920267407F093FA227C16
:10291000684969483244227406F052FC67496848A5
:1029200006F04EFC6749684806F04AFC674968486B
:1029300006F046FC6749684806F042FC674968486B
:1029400006F03EFC6749684806F03AFC674968486B
:1029500006F036FC6749684806F032FC674968486B
:1029600006F02EFC6749684806F02AFC674968486B
:1029700006F026FC6749684806F022FC674968486B
:1029800006F01EFC6749684806F01AFC674968486B
:1029900006F016FC6749684806F012FC674968486B
:1029A00006F00EFC6749684806F00AFC674968486B
:1029B00006F006FC6749684806F002FC1F4A6749B2
:1029C00000200AF0B3F90021654806F07BF81B4AA5
:1029D000644963480AF0AAF933463246182162482E
:1029E00003F0EEFA07F06EFD604B61491B68614A27
:1029F000086003EB430103EB810306A85E491380E3
:102A000006F0CAFB124906A806F09CFC134906F022
:102A1000A1FC5A4906F09EFC0146594806F0E2FB2B
:102A200006A806F079FB054AACE000BFE0220100F1
:102A30004848FF1FD0D4FF1F9058FF1F0C08FF1FEE
:102A400019910000E8220100346CFF1FF022010000
:102A5000A858FF1FF4220100C06CFF1FFC220100D8
:102A600000230100042301005469FF1F2848FF1FB1
:102A70009C6CFF1F7D040000FC58FF1F2C48FF1FAB
:102A80001447FF1FA86CFF1F306DFF1F506AFF1F08
:102A90008858FF1FB06CFF1FB86CFF1FD06CFF1F62
:102AA000BC330100C0D40100386DFF1FCD0600000B
:102AB0004106000010230100C86AFF1F68230100BF
:102AC000D86AFF1FC0230100E86AFF1F1824010015
:102AD000F86AFF1F70240100086BFF1FC824010063
:102AE000186BFF1F20250100286BFF1F78250100B0
:102AF000386BFF1FD0250100486BFF1F28260100FF
:102B0000586BFF1F80260100686BFF1FD82601004D
:102B1000786BFF1F30270100886BFF1F882701009B
:102B2000986BFF1FE0270100A86BFF1F38280100EA
:102B3000B86BFF1F90280100C86BFF1FE828010039
:102B4000D86BFF1F40290100E86BFF1F9829010087
:102B5000F86BFF1FF0290100086CFF1F89040000BB
:102B60005848FF1FA5040000BC58FF1FF41AFF1FA0
:102B7000E46CFF1FC46AFF1F482A0100542A0100A9
:102B80003859FF1F054906480AF0D0F82B6806930C
:102B9000069A044B1A600BB0F0BD00BF19910000FB
:102BA0003859FF1F606AFF1F2DE9F0437E4E7F4CAE
:102BB00083B007463A217E4809F092F8002310229C
:102BC0003946304606F060FA304606F037FA3946A4
:102BD000204603F0B3FE2046802103F0D7FA2046BA
:102BE0000021002503F0D2FA2046102103F0CEFA8E
:102BF000627B216900950123204604F0B1F9394632
:102C0000204603F09BFE2046802103F0BFFA4FF0E0
:102C10000108627B216900952046012304F0A0F998
:102C2000617B206901953A460223CDF8008004F0CB
:102C3000ADF9206904F0C4F9206904F0C1F91F213D
:102C400081465C4809F04CF82B4610225FFA89F166
:102C5000304606F019FA304606F0F0F916215648CB
:102C600009F03EF8304606F0E9F93946204603F00F
:102C700065FE2046602103F089FA2046FF2103F01B
:102C800085FA2046FF2103F081FA627B21690095D5
:102C90004346204604F064F93946204603F04EFED0
:102CA0002046602103F072FA627B21690095434659
:102CB000204604F055F9617B206901953A460223CC
:102CC000CDF8008004F062F9206904F079F92069F8
:102CD00004F076F90F218146384809F001F82B46B7
:102CE00010225FFA89F1304606F0CEF9304606F040
:102CF000A5F92621324808F0F3FF304606F09EF988
:102D00003946204603F01AFE2046402103F03EFAE1
:102D100020461F2103F03AFA2046FF2103F036FA3D
:102D2000627B216900954346204604F019F9394633
:102D3000204603F003FE2046402103F027FA627B81
:102D4000216900954346204604F00AF9617B206919
:102D500001953A460223CDF8008004F017F9206966
:102D600004F02EF9206904F02BF9102104461548CF
:102D700008F0B6FF2B46E1B20222304606F084F995
:102D8000304606F05BF91B210F4808F0A9FF2B46DF
:102D900039463046102206F077F9304603B0BDE8D8
:102DA000F04306F04BB900BF283BFF1F606EFF1FCA
:102DB0005C2A0100982A0100B82A0100D02A0100EB
:102DC000E02A0100082B01001C2B0100F0B507EEE2
:102DD000900A2DED028B374C9FED378AF8EEE77A9B
:102DE00087B00E4620461146174627EE888A03F024
:102DF000A5FD06F12001C9B2204603F0C7F9FCEE9B
:102E0000C87A2046CDED037ABDF80C50C5F3071102
:102E100003F0BCF9290101F0F0010025204603F080
:102E2000B5F9627B216900950123204604F098F8EA
:102E30003946204603F082FD06F11001C9B2204652
:102E400003F0A4F9627B216900952046012304F078
:102E500087F801233A46617B01950093206902239C
:102E600004F094F8206904F0ABF80546206904F0FA
:102E7000A7F82D01C0F3031005F47F652B1807EEAA
:102E8000903A9FED0E7A0E4BF8EEE77A06AA67EEBF
:102E9000877A03EB4606FCEEE77ACDED037ABDF8C0
:102EA0000C0022F8020D1388A6F8113007B0BDEC13
:102EB000028BF0BD606EFF1F8DC34F3FAFB79D3FCC
:102EC000D069FF1F394B3A4A18783A4B1278197873
:102ED000394BF0B5394C3A4D27781B78394C2E7860
:102EE000394D2478800040EA42020A4342EAC70290
:102EF00042EA031343EA46132A78344E344D43EA38
:102F0000841485B044EAC2143046232103F016FD30
:102F1000E4B23046122103F039F900272146304649
:102F200003F034F9727B316900973046012304F0D5
:102F300017F8284B284A1878284B12781978284B0C
:102F400095F800E01B78800040EA420225480A43D9
:102F5000254905782548097842EACE0242EA03135A
:102F600043EA4513027843EA811545EAC215304623
:102F7000232103F0E3FCEDB23046132103F006F900
:102F80002946304603F002F9727B316900973046DA
:102F9000012303F0E5FF04AB04EB052423F8024D05
:102FA000134A1B88A2F8213005B0F0BDCC69FF1F81
:102FB000F02DFF1FA558FF1F0C1BFF1F6469FF1F8B
:102FC000F81AFF1F082EFF1F3659FF1F606EFF1FE4
:102FD000B858FF1FF858FF1FD56CFF1F346DFF1F37
:102FE0002C59FF1FE96CFF1F986CFF1F1247FF1F32
:102FF000D069FF1FF0B53D4C072805460E4683B04B
:103000004FF02701204661D803F098FC01271221D8
:10301000204603F0BBF807FA05F1C943C9B22046C0
:1030200003F0B4F84FF0000E627B2169CDF800E0A8
:103030003B46204603F094FF012007F067FA2C4B33
:103040001B684FF000414022D9625A63DA6A002AB5
:10305000FCDA06F10801C9B24FF00042986BDA625F
:103060005963DA6A002AFCDA4FF000414C22986B6F
:10307000D9625A63DA6A002AFCDA4FF00041FF2273
:10308000986BD9625A63DA6A002AFCDA986B072DCA
:10309000C6B24FF02701154824D903F04FFC132185
:1030A000124803F073F8FF21104803F06FF8002373
:1030B0000093627B21690D48012303F051FF0D4B02
:1030C0001D4406F00700687003B0F0BD03F036FC45
:1030D0001321204603F05AF80127A5F1080107FA49
:1030E00001F19AE703F02AFC1221D9E7606EFF1F75
:1030F000242EFF1F106AFF1FF0B53B4C0728054622
:103100000E4683B04FF0270120465DD803F016FC31
:1031100001271221204603F039F807FA05F1C943C7
:10312000C9B2204603F032F84FF0000E627B2169ED
:10313000CDF800E03B46204603F012FF012007F0E7
:10314000E5F92A4B1B684FF000410022D9625A630F
:10315000DA6A002AFCDA4FF00042996BDA625E63A9
:10316000DA6A002AFCDA4FF000410C22986BD9622F
:103170005A63DA6A002AFCDA4FF00041FF22986BAA
:10318000D9625A63DA6A002AFCDA9E6B1648072D68
:10319000F6B24FF0270123D903F0D0FB13211248D8
:1031A00002F0F4FFFF21104802F0F0FF002300932B
:1031B000627B21690C48012303F0D2FE0C4B1D44B5
:1031C00030466E7003B0F0BD03F0B8FB132120460B
:1031D00002F0DCFF0127A5F1080107FA01F19EE7E3
:1031E00003F0ACFB1221DAE7606EFF1F242EFF1FF5
:1031F000D069FF1F70B51E4C054682B00E462046B2
:10320000294603F09BFB4021204602F0BFFF46F019
:10321000F8012046002602F0B9FF627B2169009682
:103220000123204603F09CFE0123617B00932A4684
:1032300002232069019603F0A9FE206903F0C0FE75
:10324000206903F0BDFE3C2D00F0070007D03F2DA4
:1032500009D03D2D04BF074BD87402B070BD054B9B
:10326000587402B070BD034B987402B070BD00BFBB
:10327000606EFF1F106AFF1F70B5224C054682B0BA
:103280000E462046294603F059FB0021204602F055
:103290007DFF31462046002602F078FF627B2169DF
:1032A00000960123204603F05BFE0123617B00931F
:1032B0002A4602232069019603F068FE206903F084
:1032C0007FFE206903F07CFE3C2DC0B20AD03F2D6A
:1032D0000DD03D2D10D03E2D04BF0B4B83F8300098
:1032E00002B070BD084B83F8310002B070BD064BD0
:1032F00083F8320002B070BD034B83F8330002B094
:1033000070BD00BF606EFF1FD069FF1F2DE9F04F39
:10331000054685B00C461646002A40F090806F1E88
:10332000F8B20F2823D8002CC0F2B280DFF8C88290
:10333000E1B208F80710FFF7DFFE04469EB1002354
:103340000A2218F807109A4805F09EFE02219948B3
:1033500008F0C6FC00230A222146954805F094FE99
:10336000934805F06BFE20B205B0BDE8F08FA5F1E3
:103370001107FFB2072F12D8002CC0F2D7808E4D54
:10338000A0B225F8170049223946FFF71FFD002E8D
:1033900040F0858035F9170005B0BDE8F08F192D94
:1033A00000F086801A2D00F09E801B2D00F0B58065
:1033B0001C2D00F0C8801D2D00F09D801E2D00F0FA
:1033C000CB801F2D00F0D180202D00F07281A5F15F
:1033D0002107FBB2032B00F21381002C774BDFF89F
:1033E000E081C0F2C781B4F5805FA8BF4FF480547C
:1033F00003EB470928F8174009F12309704DDFF85E
:10340000FCA10024102001E01AF9010F35F8021B7D
:10341000C0B2013406F0E6FD062CF5D138F81740AD
:10342000ADF80E4036B12146614805F06DFE6048AA
:1034300005F004FEBDF80E30A9F8003093E70A222B
:10344000002301465A4805F01FFE0221594808F0A2
:1034500047FC32275B4B07FB05F703EB07084046A9
:103460000AF06EFB0146404608F03AFC0221514842
:1034700008F036FC544B1F4438460AF061FB014605
:10348000384608F02DFC0321504808F029FC46E797
:103490004A4BDFF86481595D08F807104BE735F8AF
:1034A0001710434805F030FE414805F0C7FD71E7AD
:1034B000002C74DB464C14BF012300232370FFF75C
:1034C00001FD66B12078FDF7A7FE42480AF038FBFF
:1034D0000146404808F004FC354805F0AFFD20786F
:1034E00005B0BDE8F08F002C0EDB3B4C14BF012370
:1034F00000232370E3E7002CC0F20981374C14BF8E
:10350000012300232370DAE7354A364B12881A80EC
:103510001888314CFDF7DAFFD1E7002CC0F2D180DA
:10352000314C14BF012300232370C8E7234B224DE5
:1035300003EB4703B3F81130ADF80E30BDF80E00C1
:1035400025F817001FE7002CC0F2C480274C14BFD9
:10355000012300232370B2E7002CC0F2E180244C49
:1035600014BF012300232370A9E7002CC0F2F980C7
:103570000034204D18BF01242C70FFF7A3FC66B166
:103580002878FDF749FE13480AF0DAFA0146114897
:1035900008F0A6FB064805F051FD2878E4E6104A3D
:1035A000104B12881A801888094CFDF78FFF86E7A8
:1035B000283BFF1F081B0100F42DFF1FD069FF1FD0
:1035C000D01AFF1F1008FF1F301BFF1F382B0100F0
:1035D000346DFF1F6869FF1FD56CFF1F2C59FF1F3B
:1035E000F169FF1F2C6DFF1FF858FF1FB858FF1F10
:1035F000E96CFF1F986CFF1F102EFF1F7016010053
:10360000252D70D0262D00F09480272D00F0A1806C
:10361000282D00F096805C2D00F09380292D00F07D
:10362000BB802A2D00F0C5802B2D00F0D4802C2DDE
:1036300000F0E6802D2D00F00781452D00F05D8122
:103640002E2D00F03B812F2D00F0BF81302D00F09A
:103650009B81312D00F0BE82322D00F0A382A5F1B6
:1036600033085FFA88F00F2800F22F82002CC0F296
:103670002382A74F3D4405F8334C17F80810A44D9A
:10368000FFF7B8FC04468EB100230A2215F8081093
:10369000A04805F0F9FCA0499E48FDF75DF82046DA
:1036A000FDF7DAFD9D499B48FDF764F817F808001F
:1036B0005AE6002C67DB9A4C14BF012300232370C9
:1036C000FDE6984A984B12881A801888974CFDF7A7
:1036D000FDFEF4E6934A944B12881A801888944CA5
:1036E000FDF7F4FEEBE6002C6CDB924C14BF0123DB
:1036F00000232370FFF7E6FB002E3FF4F0AE2078A6
:10370000FDF78AFD85498348FDF734F8E7E6854AE9
:10371000854B12881A801888874CFDF7D7FECEE6B5
:10372000804A814B12881A801888844CFDF7CEFE9F
:10373000C5E6002C7FDB824C14BF012300232370DD
:10374000D8E7002C6EDB7F4C14BF012300232370CD
:10375000D0E7002C5DDB7C4C14BF012300232370D9
:10376000C8E7704A704B12881A801888774DFDF7A9
:10377000ADFE02E703EB470909F12309B9F8003070
:1037800028F817303AE6674A674B12881A8018887B
:10379000634CFDF79BFE92E6002C7EDB6C4C14BF65
:1037A000012300232370FDF711FE002E3FF497AE96
:1037B000A5E7002CC0F26381664C14BF01230023EF
:1037C0002370F0E7574A584B12881A801888594CD2
:1037D000FDF77CFE8EE7002CC0F2678100345E4D61
:1037E00018BF01242C70FDF7F1FD002E3FF4D5AE7B
:1037F0002878FDF711FD49494648FCF7BBFFCCE6A8
:10380000002CC0F24B81554C14BF012300232370C0
:10381000C9E7444A444B12881A8018884A4CFDF77D
:1038200055FE67E73F4A404B12881A801888454C7E
:10383000FDF74CFE5EE73B4A3B4B12881A80188826
:103840003F4CFDF743FE55E7002CC0F21F81444C6E
:10385000444F14BF012300232370237823B397F828
:103860003C30414A43F00103002187F83C3011709D
:10387000FDF7ACFD012006F049FE2178384D2320EC
:1038800006F006FE002E3FF42AAE2878FDF7C4FCB1
:1038900022492048FCF76EFF21E6324B2C4C93F86E
:1038A0002F00FDF7DFFD7EE797F83C302E4A23F02E
:1038B0000103012187F83C301170D9E7002CC0F2D8
:1038C000BA802A4C274F14BF01230023237023788A
:1038D000002B4DD000210A20FFF78CFB97F83C30DD
:1038E00043F0020387F83C302178204D242006F075
:1038F000CFFD002E3FF4F3ADC7E7002CC0F2A3804C
:10390000174C184F0CBF012300232370A5E700BFFD
:10391000DC1AFF1F283BFF1F081B01006869FF1FFF
:103920001247FF1FF169FF1F2C6DFF1FF858FF1F83
:10393000B858FF1FCC69FF1F2C59FF1FE96CFF1FF0
:103940006469FF1F3659FF1F082EFF1F986CFF1F69
:10395000F01AFF1F241BFF1FF12DFF1F656AFF1FB9
:103960002948FF1FD069FF1F092EFF1F886CFF1F0A
:10397000C14B0A20997AFFF73DFB97F83C3023F0C2
:10398000020387F83C30AFE7002C4CDBBB4CBC4F4C
:1039900014BF0123002323702378002B37D000218C
:1039A0000B20FFF727FB97F83C3043F0080387F81C
:1039B0003C30012006F0AAFD2178B04D262006F00B
:1039C00067FD002E3FF48BAD5FE7002C4FDBAD4C65
:1039D000AB4F14BF0123002323702378002B3CD06E
:1039E00097F83C30A84A43F00403002187F83C30A4
:1039F0001170FDF7EBFC012006F088FD2178A14D48
:103A0000252006F045FD002E3FF469AD3DE79A4BB9
:103A10000B20D97AFFF7EEFA97F83C3023F0080331
:103A200087F83C30C5E7964F944C97F83C30C3F389
:103A3000C0032370B0E7924F944C97F83C30C3F327
:103A40004003237043E78E4F914C97F83C3003F0CE
:103A5000010383F001032370FFE697F83C308A4AA4
:103A600023F00403012187F83C301170C1E7844F33
:103A7000844C97F83C30C3F380032370ADE7804B50
:103A8000844C93F82F00FDF7EDFC8CE67C4F804CC6
:103A900097F83C3003F001032370DEE6784B7E4C50
:103AA00093F82F00FDF7DEFC7DE6754B7B4D93F818
:103AB0002F00FDF7D7FC96E6794B6F4F2B443D4422
:103AC00013F8323C05F8333CD7E5432D00F036833C
:103AD000442D00F02A83462D00F00C83472D00F082
:103AE0000083482D00F0D482492D00F0C8824A2D71
:103AF00000F0AC824B2D00F09B824C2D00F05182E7
:103B00004D2D00F03F824E2D00F023824F2D00F00E
:103B10001182502D00F01681A5F1510A5FFA8AF347
:103B2000042B00F2EF80002CC0F28E80DFF894911D
:103B3000534FB4F5805FA8BF4FF4805429F81A4062
:103B400039F81A30574CDFF8808114F80A0000EE7B
:103B5000103AB8EE400A06F0F5FB4FF0000B38F8CB
:103B60001B1014F80B000BF1010B06F03BFABBF134
:103B7000060FF4D126B139F81A104B48FCF718FE9D
:103B8000512D00F0B980522D00F0B080532D00F07F
:103B90009D80542D6AD0B9F808307B8739F91A0016
:103BA000FFF7E2BB002C414C03DB14BF01230023D1
:103BB00023702178272006F06BFC23783BBB304A2A
:103BC00092F83C3003F07F0382F83C30002E3FF443
:103BD00086AC94E5002C31DB354B1C701978344DE4
:103BE0003E20FFF749FB0446002E3FF4BCAB29788A
:103BF0002D4800230A2205F047FA2E492A48FCF7EF
:103C0000ABFD21462848FCF7C7FDFFF7ACBB1C4FB6
:103C1000294A97F83C102948002561F07F0100955A
:103C20002B4687F83C10294604F01AF800952B46DD
:103C30002946214A224804F013F8C7E7104A1C4BD2
:103C400092F830201A70C9E7512D0D4FDFF87490AB
:103C500048D0522D42D0532D3CD0542D0BBF3B8F1A
:103C60007B8FA9F80630A9F8083069E7B9F8063063
:103C7000A9F804303B8791E7DC1AFF1F2E6DFF1F68
:103C8000D069FF1F2C1BFF1FE06CFF1F886CFF1FFC
:103C90002948FF1F241BFF1F656AFF1FF12DFF1F0F
:103CA000106AFF1F70160100283BFF1FE16CFF1F09
:103CB000251BFF1F081B01005CD4FF1F8C6EFF1F1C
:103CC00074A1FF1F141BFF1FD01AFF1FB9F8043087
:103CD0003B8763E73B8FA9F8043031E7FB8EA9F8F7
:103CE00002302DE7FB8EA9F8003029E7B9F8023041
:103CF000A9F80030FB8651E7B9F80030A9F8023086
:103D0000FB864BE7562D00F0FF80572D00F0DD803D
:103D1000582D00F0A480592D00F099805A2D76D0AE
:103D20005B2D62D05D2D45D05E2D3BD05F2D30D117
:103D3000002C27DBA84C14BF012300232370FDF7C0
:103D4000D1FA43E7002C28DBA44B9C709978A34D53
:103D50003D20FFF74FFA0446002E3FF404ABA9784C
:103D60009F4800230A2205F08FF99E499C48FCF7E2
:103D7000F3FC2046FDF770FA9B499948FCF7FAFCE2
:103D8000FFF7F1BA994B944C93F83400FDF7F2FA2F
:103D9000D5E74FF0FF30FFF7E7BA954A8F4BD27C5B
:103DA0009A70D3E7002C12DB924C14BF012300233E
:103DB0002370C4E7002C11DB00348F4D18BF0124A1
:103DC0002C70FDF78FFA002E3FF4E7AB10E5874B20
:103DD000884C93F83400FDF7CDFAB0E7834B864D5D
:103DE00093F83400FDF7C6FAEBE7002C21DB834C97
:103DF00014BF012300232370237883B10021022004
:103E0000FFF7F8F800210320FFF7F4F897E7002CFC
:103E100016DB7B4C14BF0123002323708FE7794D01
:103E20000220A978FFF7E6F8E9780320FFF7E2F827
:103E300085E76E4B714C93F83400FDF79BFADBE796
:103E40006A4B6F4C93F83400FDF794FA77E7002C37
:103E50002DDB6D4C14BF0123002323706FE7002C72
:103E60002CDBDFF8B081A8F80A40684B684C1B894E
:103E700000EE103A1E20B8EE400A06F063FA002564
:103E800038F81510605D634F013506F0ABF8062D6C
:103E9000F6D11EB179895248FCF78AFC5E4A534B31
:103EA0001288B8F90A00A3F82D20FFF75DBA4F4B2E
:103EB000554C93F83400FDF75DFA40E7574BDFF8B7
:103EC00054811B88A8F80A30CFE7002C24DBDFF8E8
:103ED0004481A8F808404E4C002538F81510605D64
:103EE0004C4F013506F07EF8062DF6D11EB139890A
:103EF0003B48FCF75DFC4A4A3C4B1288B8F9080085
:103F0000A3F82B20FFF730BA002C0CDB454C14BF74
:103F100001230023237012E7434BDFF8F8801B884E
:103F2000A8F80830D7E7314B3E4C93F83400FDF742
:103F300021FA04E7002C1BDB284B5C705978274DD5
:103F40003F20FFF757F90446002E3FF40CAA69788A
:103F500006E7002C11DB214B1C7019781F4D3C200B
:103F6000FFF748F90446002E3FF4FDA92978F7E64B
:103F70001F4A1A4B927C5A70E0E71D4A174B527C3D
:103F80001A70EAE7002C1BDB284B9C709978274DB0
:103F90003D20FFF771F90446002E3FF4E4A9A9780B
:103FA00026E6002C12DB214B5C7059781F4D3F2018
:103FB000FFF762F90446002E3FF4D5A9697817E6A9
:103FC0000A4A1A4B92F833209A70DFE7074A174BD8
:103FD00092F832205A70E8E78C58FF1F101BFF1F21
:103FE000283BFF1F081B01006869FF1FD069FF1FE6
:103FF000106AFF1FEA6CFF1F5C6AFF1FD46CFF1F73
:104000005069FF1FDC1AFF1FE86CFF1F141BFF1F06
:1040100070160100D01AFF1FDA1AFF1FFD69FF1F7B
:10402000D81AFF1F866CFF1FFB69FF1F0C2EFF1F96
:10403000002C14DB4E4B1C7019784D4D3C20FFF7C3
:104040001BF90446002E3FF48EA9D0E5002C0CDBB2
:10405000484C14BF012300232370FFF74BBB464A93
:10406000434B92F831201A70E6E7444A444B1288D9
:104070001A8018883F4CFDF729FAFFF73BBB002C4C
:1040800016DB404C14BF012300232370FFF732BB23
:10409000002C1DDB3C4C14BF012300232370FEF7D2
:1040A00011FF237873B100210F20FEF7A3FF8DE5E8
:1040B000324A334B12881A801888324CFDF706FAC0
:1040C000FFF718BB314B0F20D97BFEF793FF7DE53F
:1040D0002A4A2B4B12881A8018882B4CFDF7F6F9C8
:1040E000DDE7002C0FDB2A4C14BF012300232370D3
:1040F000FFF700BB002C10DB264C14BF012300236C
:104100002370FFF750BB1D4A1D4B12881A80188878
:104110001F4CFDF7DBF9FFF7EDBA174B1D4C93F879
:104120002F00FDF79FF9FFF73EBB002C0FDB1A4C69
:1041300014BF012300232370FFF735BB002C0EDBD7
:104140000034164D18BF01242C70FFF74CBB0A4BEE
:10415000114C93F82F00FDF785F9FFF724BB064BB0
:104160000E4D93F82F00FDF77DF9FFF73CBB00BF24
:104170000C2EFF1FF81AFF1FD069FF1FF169FF1FE8
:104180002C6DFF1F0C1BFF1FF02DFF1FDC1AFF1FE4
:10419000A558FF1FE06CFF1F3559FF1F2447FF1F65
:1041A00038B52248224C05F073F983B25A1E5E2AB4
:1041B000238020D8C0B2FDF7F1F91E4882681ABBEF
:1041C0004FF0FF312078FFF7A1F885B204211A489B
:1041D00007F086FD2188194804F096FF0121184850
:1041E00007F07EFD2946154804F08EFF1348BDE810
:1041F000384004F023BF1721124807F071FD0F4823
:10420000BDE8384004F01ABF05F042F90E4A0F4BE2
:1042100011681B68884203DB98420146A8BF194613
:1042200000222078FFF772F885B2CFE72C48FF1FF5
:10423000D66CFF1F1447FF1FE82B0100283BFF1F10
:10424000041F0100F02B0100946CFF1FFC1AFF1FDC
:1042500010B50D4C0D4923780D4883F001032370F0
:1042600005F00CF823783BB90A490B4805F006F82D
:10427000BDE81040FFF794BF0849074804F0FEFF6F
:10428000BDE81040FFF78CBFE16CFF1F082C010058
:104290002C48FF1F0C2C01001447FF1F582A010057
:1042A00010B519210A4807F01BFD0A4804F0C6FEA4
:1042B00001240521084807F013FD0122E0B24FF068
:1042C000FF311444FFF722F8602CF2D110BD00BF7B
:1042D0003C2C0100283BFF1F342C01002DE9F04F3E
:1042E000A348A3B003F024FE002840F00282A14BB3
:1042F000DFF8A0820593A04803F01AFE002840F0E2
:10430000CF81DFF8C0B29D4C9D4D9E4E9E48234606
:104310002A46314601F0AAFC002800F0938106F0FD
:1043200017FC002840F06681DFF8C09299F8003051
:10433000002B40F0E083D8F80030944E0893944A64
:10434000089B3068126893491B1A9A4215D80B686B
:104350000993914C099B3360904D671D422012AE2A
:1043600001E014F9010FC0B205F0AAF9ADF8480058
:10437000338825F8023BBC42F3D1FEF75DF807F025
:104380007DFC012840F3DB81854D40222846002139
:1043900009F074F810232B7007F026FCC3B20A2B27
:1043A0002C46184605F13F050BD004F8013F07F0F5
:1043B0001FFDA54208D007F017FCC3B20A2B184610
:1043C000F3D1184607F014FD754D764E0FCD3446E7
:1043D0000FC40FCD0FC40FCD0FC495E80F0084E8B4
:1043E0000F0031463E22704804F0BAFAF0876D495A
:1043F0006D4896F83F5096F83E403E2204F0B0FAE1
:10440000337803F0F003102B00F0D081674801F0FF
:1044100079FE674A137C012B40F2868272B6D3681C
:1044200062B664490868834213D063480468A342B3
:10443000C0F2868072B6D46062B603680B605F4AD1
:104440001278002A73D05E4A194610780122FEF7CE
:104450005DFFD8F800300A93059B4E481A680A9B06
:1044600044499B1AC72B76D8D8F800300C93DBF858
:1044700000200C9B474853499B1AC72B0DD9524B20
:1044800002680D921B780D9A0A60002B5FD14F4A8B
:1044900019461370022005F0FBFFD8F800304C4A93
:1044A0000E930E9B11683B485B1AC72B3CD9494EB3
:1044B000016896F83D3012911299116001333E2245
:1044C0003146394886F83D3004F04AFADFF8208159
:1044D000414DF08798F80010404F414C304607F0AE
:1044E00037FB95F83D30387001333E2229462E487F
:1044F00085F83D3004F034FA98F80010E887284633
:1045000007F026FB94F83D303870013321463E22F7
:10451000254884F83D3004F023FA98F80010E0872D
:10452000204607F015FB387023B0BDE8F08F244C0F
:10453000D8B201224FF0FF312380FEF7E7FE88E773
:1045400028480468A3427FF775AF0B6077E71F4BDD
:10455000012119709EE703680B930B9B224A0B60A5
:10456000012319460520137005F092FF7CE700BF78
:104570008C6EFF1FA86CFF1F74A1FF1F4859FF1FFF
:10458000FE45FF1F8C6CFF1FFC58FF1F506AFF1F6A
:10459000042EFF1FD0D4FF1FA82D0100F76CFF1FB2
:1045A000446CFF1F686AFF1F2848FF1FBC58FF1F8D
:1045B0009058FF1F586AFF1FFC1AFF1FFC45FF1F82
:1045C000D66CFF1F306DFF1FE16CFF1F1147FF1FEF
:1045D000606AFF1FD069FF1F106AFF1F856CFF1FF5
:1045E000EC6CFF1F946CFF1F202EFF1FEB6CFF1F56
:1045F000556AFF1FA84EA94C3578DFF81C9306F0CA
:10460000B7FAA74B585505F05DFF337820600133AA
:104610000122337089F8002005F054FF236840F22E
:104620007E42C01A90427FF686AE9E4B1A78002AD0
:1046300000F08F800022984E1A700023337089F8A2
:10464000003078E6984B994A1F68994912780137EB
:104650001F601868C1F82500002A3FF460AE326878
:104660002B78944D22F060422A60EB735BB1013BE2
:1046700054FA83F005F10F02631E13F8011F02F8CC
:10468000011F9842F9D18C4B039793E803008DE802
:1046900003000223029395E80F00FDF7DBFA3EE6E4
:1046A000844C8648DFF874B2814D214603F064FCE7
:1046B000834A84491368D8F80000079001331360D7
:1046C00009781068079AC5F82100CBF80020002966
:1046D00040F062817C4B1B78002B3FF414AE7B4A88
:1046E000137883F0010319460220137005F0D0FE01
:1046F00009E6704C764B7748059321461E4603F039
:104700003BFC754ADFF8188213687449D8F800003A
:10471000069001331360664D09781068069AC5F853
:104720001D003260002940F045816D4A137883F006
:10473000010319460520137005F0AAFEDBE50021F0
:10474000684807F0BFF910F0FF0F3FF45FAE654E09
:104750004DE6654F3978002977D14F4E3378002BDD
:1047600000F09A810025DFF8BCA12C4602E03278E7
:10477000AA420EDD1AF8012F14440135E4B20029D3
:10478000F5D05A495A4804F071FC32783978AA4277
:10479000F0DC002C6CD000293FF44FAF10215548BD
:1047A00007F09EFA524804F049FC46E704EB052363
:1047B0009BB283427FF42AAE4F4C12AE04F1300E0E
:1047C000354620686168A268E3682F460FC7103439
:1047D00074453D46F5D120686168A268247B3B465C
:1047E00007C330461C70454909F04CFA00250446C1
:1047F00000283FF40BAE21460EA804F0CDFC0EA914
:104800003F4804F033FD0EA804F086FC3B4900202D
:1048100009F038FA01460EA804F0BEFC0EA939488A
:1048200004F024FD0EA804F077FC3449002009F0C0
:1048300029FA0446324804F02BFE002840F3E080B9
:10484000FFF7AEFC002CD6D1E0E503F02FFF0446C5
:1048500005F038FE2C4B104E1B682C49C31A22461B
:10486000234804F003FC33783978002B7FF47AAFC7
:10487000274B0F481A6801321A601B88A0F83530A0
:1048800000293FF4DAAE0221224807F029FA18483D
:1048900004F0D4FBD1E600BF646AFF1FB06CFF1FB9
:1048A0001046FF1F0D1BFF1F4448FF1F1A6CFF1F00
:1048B000106AFF1FAC6AFF1FBC6AFF1F74A1FF1FB5
:1048C0004048FF1F196CFF1FE16CFF1F1147FF1FBE
:1048D000A86CFF1F8C6EFF1F3C48FF1F186CFF1F4A
:1048E000202EFF1F686AFF1FA458FF1F842C0100A1
:1048F000283BFF1F902C0100696AFF1FA42C0100B8
:104900002C48FF1F1447FF1FB86CFF1F702C0100BD
:104910003059FF1F8C2C0100EB6CFF1F306DFF1F07
:10492000D0D4FF1F0F46FF1F72B613685068197866
:104930000478507A137A044201EA030148D0937A4A
:1049400003F0030309B143F0040343F00803991093
:10495000013B91720D2B3FF662AD01A151F823F09E
:10496000F9490000F1490000E9490000F14900005F
:104970001F440000E1490000F9490000F949000026
:10498000E14900001F440000F1490000E94900002E
:10499000F1490000F949000004F1100292E8030017
:1049A0008DE8030001220393029294E80F00FDF7C3
:1049B00051F98FE604F1100292E803008DE803003C
:1049C00000220393029294E80F00FDF743F9ACE64E
:1049D000937A03F003030029B9D043F00403B6E748
:1049E000D368023BD3601BE5D3680233D36017E57D
:1049F000D368013BD36013E5D3680133D3600FE57F
:104A0000A5490EA804F0C8FB0EA9A44804F0B6FC02
:104A100006460EA804F080FB2EB1FCF711F8002C1E
:104A20007FF4E9AEF2E49E490EA804F0B5FB0EA9AE
:104A30009A4804F0A3FC06460EA804F06DFB2EB1C4
:104A4000FDF750FB002C7FF4D6AEDFE495490EA8AD
:104A500004F0A2FB0EA9914804F090FC06460EA8B3
:104A600004F05AFB2EB1FDF769FB002C7FF4C3AEB6
:104A7000CCE48D490EA804F08FFB0EA9874804F002
:104A80007DFC06460EA804F047FB76B1FDF782FBDD
:104A9000002C7FF4B0AEB9E4844B85491A6801322A
:104AA0001A601B88A1F83530C7E582490EA804F0CA
:104AB00073FB0EA9794804F061FC06460EA804F0C9
:104AC0002BFB2EB1FDF7C8FB002C7FF494AE9DE4C8
:104AD00079490EA804F060FB0EA9704804F04EFC62
:104AE00006460EA804F018FB3EB1FDF7F1FB002CC2
:104AF0007FF481AE8AE4714C8EE571490EA804F012
:104B00004BFB0EA9654804F039FC06460EA804F0DC
:104B100003FB2EB1FDF798F9002C7FF46CAE75E421
:104B200068490EA804F038FB0EA95C4804F026FC86
:104B300006460EA804F0F0FA5EB1634804F0A8FC43
:104B40000028624B18DD01221A70002C7FF453AE4E
:104B50005CE45F490EA804F01FFB0EA94F4804F067
:104B60000DFC06460EA804F0D7FA56B1564804F0DC
:104B70008FFC0028574BE6DC1D70002C7FF43BAE09
:104B800044E455490EA804F007FB0EA9434804F07D
:104B9000F5FB06460EA804F0BFFA36B14A4804F009
:104BA00077FC00284D4BCEDCE6E74D490EA804F01B
:104BB000F3FA0EA9394804F0E1FB06460EA804F00A
:104BC000ABFA2EB1FCF7C8FA002C7FF414AE1DE44A
:104BD00044490EA804F0E0FA0EA9304804F0CEFBD8
:104BE00006460EA804F098FA2EB1FBF75FFF002CE2
:104BF0007FF401AE0AE43C490EA804F0CDFA0EA9F8
:104C0000264804F0BBFB06460EA804F085FA36B130
:104C1000FCF71EFA002C7FF4EEADFFF7F7BB33492B
:104C20000EA804F0B9FA0EA91C4804F0A7FB06462A
:104C30000EA804F071FA36B1FCF764FA002C7FF488
:104C4000DAADFFF7E3BB2A490EA804F0A5FA0EA9D6
:104C5000124804F093FB06460EA804F05DFA36B144
:104C6000FCF71CFA002C7FF4C6ADFFF7CFBB21493F
:104C70000EA804F091FA0EA9084804F07FFB06463E
:104C80000EA804F049FABEB3FDF730F9002C7FF40A
:104C9000B2ADFFF7BBBB00BFA82C01002C48FF1F23
:104CA000AC2C0100B02C0100B42C01003059FF1FC6
:104CB000106AFF1FBC2C0100C02C0100B06CFF1F4C
:104CC000C82C0100CC2C01001447FF1F186CFF1FDB
:104CD000D02C0100196CFF1FD42C01001A6CFF1F8F
:104CE000D82C0100DC2C0100E02C0100E82C010094
:104CF000F42C0100002D0100AA490EA804F04CFA82
:104D00000EA9A94804F03AFB06460EA804F004FADE
:104D100036B1FDF71BF9002C7FF46DADFFF776BBC4
:104D2000A2490EA804F038FA0EA99F4804F026FB09
:104D300006460EA804F0F0F936B1FDF73DF9002C57
:104D40007FF459ADFFF762BB99490EA804F024FA2D
:104D50000EA9954804F012FB06460EA804F0DCF9F3
:104D600036B1FFF79DFA002C7FF445ADFFF74EBB3F
:104D700090490EA804F010FA0EA98B4804F0FEFA30
:104D800006460EA804F0C8F946B18B498B48FBF7DC
:104D9000F1FC002C7FF42FADFFF738BB88490EA83B
:104DA00004F0FAF90EA9804804F0E8FA06460EA8C5
:104DB00004F0B2F936B1FBF79BFE002C7FF41BAD7B
:104DC000FFF724BB7F490EA804F0E6F90EA9764848
:104DD00004F0D4FA06460EA804F09EF936B1FBF7AB
:104DE000CBFE002C7FF407ADFFF710BB76490EA871
:104DF00004F0D2F90EA96C4804F0C0FA06460EA8D9
:104E000004F08AF936B1FBF793FE002C7FF4F3AC83
:104E1000FFF7FCBA6D490EA804F0BEF90EA962486E
:104E200004F0ACFA06460EA804F076F936B1FDF7A8
:104E30008FFC002C7FF4DFACFFF7E8BA64490EA8C2
:104E400004F0AAF90EA9584804F098FA06460EA8EC
:104E500004F062F936B1FCF785FC002C7FF4CBAC92
:104E6000FFF7D4BA5B490EA804F096F90EA94E4894
:104E700004F084FA06460EA804F04EF936B1FBF7AA
:104E80008DFE002C7FF4B7ACFFF7C0BA52490EA8D4
:104E900004F082F90EA9444804F070FA06460EA800
:104EA00004F03AF936B1FCF77BFC002C7FF4A3AC9C
:104EB000FFF7ACBA49490EA804F06EF90EA93A48BA
:104EC00004F05CFA06460EA804F026F936B1FCF7A9
:104ED0009FFE002C7FF48FACFFF798BA40490EA8D4
:104EE00004F05AF90EA9304804F048FA06460EA814
:104EF00004F012F936B1FCF777FF002C7FF47BAC9D
:104F0000FFF784BA37490EA804F046F90EA92648DF
:104F100004F034FA06460EA804F0FEF836B1FDF7A8
:104F20002DFA002C7FF467ACFFF770BA2E490EA85B
:104F300004F032F90EA91C4804F020FA06460EA827
:104F400004F0EAF836B1FDF727FA002C7FF453ACF1
:104F5000FFF75CBA25490EA804F01EF90EA9124805
:104F600004F00CFA06460EA804F0D6F836B1FDF7A8
:104F70003BFA002C7FF43FACFFF748BA1C490EA85F
:104F800004F00AF90EA9084804F0F8F906460EA83C
:104F900004F0C2F876B3FBF7C5FC002C7FF42BAC11
:104FA000FFF734BA082D01002C48FF1F142D010013
:104FB000182D01008C2C010030220100283BFF1F1E
:104FC0001C2D0100242D01002C2D0100342D010089
:104FD0003C2D0100442D0100482D0100502D010001
:104FE000582D0100602D01006C2D0100682D01007D
:104FF000702D01000E490EA804F0CEF80EA90D4840
:1050000004F0BCF906460EA804F086F836B1FBF7AA
:105010004BFC002C7FF4EFABFFF7F8B906490748CB
:10502000FBF7A8FB002C7FF4E6ABFFF7EFB900BF5E
:10503000782D01002C48FF1F802D0100283BFF1F09
:105040002DE9F043A648A74FDFF81883A64DA74ED9
:1050500087B000F077FFA64800F074FFA54B03224D
:105060000124022144F63E101A703C7088F80010AA
:1050700005F054FB4FF480719F4804F055F814215B
:105080009E4804F051F89E4803F000FCFCF7DCFE5B
:105090000C2005F047F99B4803F0DCFB204603F0A9
:1050A000E7FBFBF78FFB4FF0120E0027697B2869A7
:1050B000954BCDF808E04FF0130ECDF804E03A46DA
:1050C000049305943B460397009701F0FDFA2B6982
:1050D0004FF4FA69C3F878922846272101F02EFC94
:1050E0003946284601F052F83946284601F04EF874
:1050F0006A7B296900972346284601F031FF28463C
:10510000272101F01BFC2146284601F03FF83946D3
:10511000284601F03BF86A7B296900972346284618
:1051200001F01EFF2846232101F008FC39462846DD
:1051300001F02CF83946284601F028F86A7B2969E5
:1051400000972346284601F00BFF2846232101F053
:10515000F5FB2146284601F019F83946284601F0AA
:1051600015F86A7B296900972346284601F0F8FE66
:10517000FCF7B8F8FCF72AF9FDF7A4FE6349644888
:1051800000F04AFF6349624800F048FF6249604806
:1051900000F046FF61495E4800F044FF60495C480A
:1051A00000F042FF49465A4800F034FFFA215848BF
:1051B00000F02EFF4920FDF7F7FCFBF7B3FBE5B24B
:1051C00000224FF0FF312846FEF7A0F883B20134E9
:1051D0001946284600223380FEF798F8602CEED15D
:1051E000504B013BFDD1504CFCF7D0FE2068FCF742
:1051F00013FF0123024603214C4800F0ADFC0028B8
:1052000066D01D214A4806F06BFD4A4803F016FFA0
:1052100000214648484F494D00F0FAF92068FCF754
:10522000FBFE002488F816000094384623462146E9
:1052300043F2E429424A02F013FD23462146404A44
:105240000094284602F00CFD57F80900FCF7E4FE34
:1052500088F8140055F80900FCF7DEFE394B88F891
:1052600015009A7B43F2482101244FF0080E224397
:1052700044F63E1083F80FE09A737C546C5405F0AA
:105280004DFA4FF4807005F0BDFA43F2D40005F0FA
:1052900011FC05F0A1FC47F22F522B492B4803F0DB
:1052A00013FE2B4B2B482C4904605F221A600C70B4
:1052B0003480FCF721FA29490F4803F0DFFFFDF79E
:1052C00007F8FCF7A5FC07B0BDE8F043FEF7E8BF20
:1052D0002121234806F004FD164803F0AFFE97E7AE
:1052E000242EFF1FD069FF1F606EFF1FD66CFF1FAB
:1052F000642EFF1FEC6CFF1F1447FF1F2C48FF1F7D
:105300000046FF1FB1050000801A060039060000A4
:10531000BC58FF1F21090000514200006D0400002D
:105320003D060000808D5B00201BFF1FFC58FF1F07
:1053300044210100283BFF1F8C6EFF1F74A1FF1F3B
:105340005CD4FF1F1459FF1F710400009C6CFF1FE9
:10535000FC1AFF1F946CFF1FA96AFF1F582A010047
:1053600020210100106AFF1F10B500210446C07CF7
:1053700005F08EF8094B1A684FF00041C023D16246
:105380005363D36A002BFCDAE07C936B012105F0B8
:105390007FF80120BDE8104005F0B8B8242EFF1FAB
:1053A00038B504460D46C07C002105F071F8114B5C
:1053B0001B684FF000410322D9625A63DA6A002A5F
:1053C000FCDA4FF00042996BDA625D63DA6A002A18
:1053D000FCDA4FF000415522986BD9625A63DA6AC1
:1053E000002AFCDA9D6BE07C012105F051F8E8B25F
:1053F00038BD00BF242EFF1F2DE9F0411A4F05468E
:105400008846C07C002114461E4605F041F83968E4
:105410004FF000420323CA624B63CA6A002AFCDAD7
:105420004FF000438A6BCB62C1F83480CA6A002A0D
:10543000FCDA8B6B96B1701E54FA80F0621E4FF04E
:1054400000465524CE624C63CB6A002BFCDA8B6B92
:1054500002F8013F824201D03968F3E7E87C01217C
:10546000BDE8F04105F014B8242EFF1F70B50446C6
:105470000E46C07C0021154605F00AF8114B1B684A
:105480004FF000410222D9625A63D96A0029FCDA3E
:105490004FF00042996BDA625E63D96A0029FCDA48
:1054A0004FF00042996BDA625D63DA6A002AFCDA37
:1054B000E07C9B6B012104F0EBFF43F69823013B5A
:1054C000FDD170BD242EFF1FF8B505460F46C07CE8
:1054D000002114461E4604F0DBFF164B19684FF0FE
:1054E00000420223CA624B63CA6A002AFCDA4FF008
:1054F00000438A6BCB624F63CA6A002AFCDA8B6B6B
:105500007EB1701E54FA80F0621E4FF0004412F813
:10551000013FCC624B63CB6A002BFCDA82428B6B7F
:10552000F5D1E87C012104F0B3FF43F69823013B59
:10553000FDD1F8BD242EFF1FF8B504460F46C07CF0
:10554000002116461D4604F0A3FF164B19684FF0C4
:1055500000420523CA624B63C86A0028FCDA4FF098
:1055600000438A6BCB624F63C86A0028FCDA4FF0B5
:1055700000438A6BCB624E63CA6A002AFCDA4FF0A2
:1055800000438A6BCB624D63CB6A002BFCDA8B6BDA
:10559000E07C012104F07CFF43F69823013BFDD120
:1055A000F8BD00BF242EFF1F38B500210446C07C83
:1055B00004F06EFF0C4B1B684FF00041A022D96233
:1055C0005A63DA6A002AFCDA4FF000415522986BE0
:1055D000D9625A63DA6A002AFCDA9D6BE07C012109
:1055E00004F056FFE8B238BD242EFF1F38B5E02284
:1055F0000B460C4605460F21FFF79EFF28460F215C
:10560000FFF7CEFE00F0E000001B18BF012038BD00
:105610000175FFF7EBBF00BF70B5032A3DD8DFE887
:1056200002F0322518020C2937D18325E4264123C4
:105630001A4604462A21FFF719FF3246204629213F
:10564000FFF714FF20462A462821FFF70FFF00200E
:1056500070BD01390E2920D8DFE801F0789C9498BC
:1056600084888C90A4A8ACB07C80A00001390E295D
:1056700013D8DFE801F0386748124C505440144406
:10568000575B5F633C000639082906D8DFE801F064
:105690000B170F1F072327131B00012070BD872541
:1056A000FA260323C4E78725FF260923C0E78725B9
:1056B000FF260423BCE78725FA260023B8E78725C1
:1056C000FA260923B4E78225D9260023B0E78725E7
:1056D000FA260423ACE78725FF260123A8E78625C1
:1056E000FB264123A4E78725FF263F23A0E7832548
:1056F000E12640239CE78725FF26032398E786259C
:10570000F026032394E78725FF260F2390E78525BE
:10571000F1264E238CE78725FF26072388E7872578
:10572000FA2685E78725FA26012381E78525F126D4
:1057300041237DE78625F026002379E78225D026C0
:10574000002375E78725FF261F2371E78725BF26DE
:105750001F236DE782259026002369E780252E46CA
:10576000002365E78525E226472361E78725BF26D5
:1057700003235DE78625B426032359E78725BF2643
:10578000012355E78725BF26072351E78425A42653
:1057900007234DE78725BF260F2349E78125C82624
:1057A000002345E78625B426012341E78525B12658
:1057B00001233DE78625B426002339E78525B12658
:1057C000002335E730B5012A83B012D0C3F3CC04EF
:1057D00000225B018DF804408DF805308DF807201C
:1057E0008DF8062004230DEB0302FFF76DFE03B0D6
:1057F00030BD1A0CD40024F01F0502F003042C4421
:1058000044F008041D1252118DF807308DF806502F
:105810008DF805408DF80420E4E700BF30B5012A7B
:1058200083B04FEA134211D054011D12D2108DF8EB
:1058300007308DF806508DF805408DF804200423BC
:105840000DEB0302FFF740FE03B030BDD40024F09F
:105850001F0502F003042C4444F008041D125211E9
:105860008DF807308DF806508DF805408DF804202E
:10587000E5E700BF38B50122054600232021FFF7E8
:10588000CDFF2846002301222421FFF7C7FF002374
:10589000194628460122FFF7C1FF00231A46284671
:1058A0000421FFF7BBFF2846002301220821FFF750
:1058B000B5FF00231A4628461021FFF7AFFF284600
:1058C000002301221421FFF7A9FF002328461A46CE
:1058D0001821FFF7A3FF3024214600222846FFF7B6
:1058E000C5FD04F11001C9B200222846FFF7BEFD34
:1058F00004F120010134C9B200222846E4B2FFF7C6
:10590000B5FD3E2CE8D1284600226021FFF7AEFD10
:10591000284600227021BDE83840FFF7A7BD00BF30
:105920002DE9F04104460E4617469846FFF71CFD48
:105930004023237520468021FFF758FE054698BB7B
:1059400029212A4806F0CCF9424639462046FFF77D
:1059500063FE10BB1E21264806F0C2F92046FFF761
:1059600089FF03222B212046FFF780FD56B3032E2B
:1059700021D164231A4660212046FFF7DDFD602314
:105980001A4670212046FFF7D7FD217D2046FFF7FC
:105990002DFE054618BBBDE8F0811D21154806F017
:1059A0009FF92846BDE8F0812821134806F098F9B0
:1059B0002846BDE8F0811D21104806F091F901202C
:1059C000BDE8F0812046042364226021FFF7B4FD86
:1059D0003346602270212046FFF7AEFDD5E7272130
:1059E000074806F07DF92846BDE8F081E02D01006A
:1059F0002C2E01000C2E0100B42D01004C2E0100B4
:105A00006C2E010030B51C46154683B000220423DD
:105A10002A7022600DEB0302FFF7EEFC9DF80530C3
:105A20009DF804105A1102EBC102190722600ED52D
:105A300003F003039DF806009DF8071003EB8203B3
:105A400000EB032301EB0323012223602A7003B040
:105A500030BD00BF70B504460D460531037A00F134
:105A60000902C9B2FFF730FD637C227A012B08BF1F
:105A700042F0400205F1040108BF22722046C9B27B
:105A8000FFF7F4FC2946636822782046BDE87040A1
:105A9000FFF798BE70B5031D02460D460446FFF79A
:105AA000B1FF691EC9B22046FFF77AFC291D0646E0
:105AB000C9B22046FFF774FC06F00803207273B9E0
:105AC00003F0FF02627400F00F03691D237204F1FA
:105AD00009022046C9B2BDE87040FFF78DBC012322
