:1000000000000320D10100002D860000E5850000DE
:10001000E5850000E5850000E5850000E585000038
:10002000E5850000E5850000E58500002D860000DF
:100030002D860000E58500003DA6000041A70000D8
:100040002D8600002D8600002D8600002D860000E4
:100050002D8600002D8600002D8600002D860000D4
:100060002D8600002D8600002D8600002D860000C4
:100070002D8600002D8600002D8600002D860000B4
:100080002D8600002D8600002D8600002D860000A4
:100090002D8600002D8600002D8600002D86000094
:1000A0008D680000996800002D8600002D860000F4
:1000B0002D8600002D8600002D86000089AF0000EF
:1000C0002D860000519300002D860000A5950000AC
:1000D0002D860000B5B000002D8600002D860000A2
:1000E0002D8600002D8600002D8600002D86000044
:1000F0002D8600002D8600002D8600002D86000034
:100100002DA8000041A8000055A8000069A8000023
:100110002D860000ED9700002D8600002D86000042
:100120002D8600002D8600002D8600002D86000003
:100130002D8600002D8600002D8600002D860000F3
:100140002D8600002D860000ADB100002D86000038
:100150002D8600002D8600002D8600002D860000D3
:100160002D8600002D860000A56800004576000061
:100170007576000051760000717600006D76000003
:100180005D7600002D8600002D8600002D86000083
:100190002D8600002D860000A5B200002D860000EF
:1001A0002D8600002D8600002D860000B16800001D
:1001B0002D8600002D86000079760000A9760000CB
:1001C00085760000A5760000A176000091760000FB
:1001D0005C4B4CF2205210B51A804DF628121A8052
:1001E00000BF00BF08F026FA574B4FF030621A608C
:1001F000564A9A60564ADA60564B4FF470021A60BB
:10020000554B564A1A60564A136813F4807304D14A
:1002100054490B604FF4A8531360534B1A781107DD
:1002200003D51A7842F008021A70504B5049AA229E
:100230001A70504A504B8B4204D252F8040F43F8C4
:10024000040BF8E74D4B4E4900228B4202D243F893
:10025000042BFAE74B494C4A002352F8230041F89B
:1002600023000133742BF8D1484B494A802103F80D
:10027000011B9342FBD1474B424A1A60464B8A22EC
:100280001A70A3F5805324225A70A0221A709A790A
:100290009207FCD59A79D406FCD4404A937903F0AE
:1002A0000C03082BFAD13E4B60221A7002331A78E5
:1002B000802AFCD1394B01221A715D225A719A7938
:1002C0009006FCD59979354A4906FBD5354B364918
:1002D00019600021596020231370937903F00C03F7
:1002E0000C2BFAD1314B324A1A60324B324A1A6027
:1002F00000225A60072243F8042C304AC3F80C2D20
:1003000062B608F029FE174B1B68DA0705D52C48A2
:1003100008F02AFB2B4B2C4A1A602C4B1B785B06EF
:1003200009D5284C284B22689A4204D1244808F069
:100330001BFB002323600BF0F7FC08F081F90AF0A7
:1003400057FDFEE70E20054030800440823F040048
:100350000100002B88ED00E0002008E0030000858C
:1003600010D0034014D0034002D0074000E0074003
:10037000103DFF1F442B01003007FF1F103DFF1FE2
:10038000F8CEFF1F0002FF1F0000000000E400E0A5
:1003900064E400E008ED00E0005006400040064044
:1003A00001E007404480044000000602048004404D
:1003B000C010070014E000E01FBF02000000202072
:1003C000676A515C1CE00340A5C3945A00F00740E3
:1003D000FFFFFFFFFFFFFFFFFFFFFFFFFFFFFFFF2D
:1003E000FFFFFFFFFFFFFFFFFFFFFFFFFFFFFFFF1D
:1003F000FFFFFFFFFFFFFFFFFFFFFFFFFFFFFFFF0D
:10040000FFFFFFFFFFFFFFFFFFFFFFFFDEF9FFFF23
:1004100010B5054C237833B9044B13B10448AFF33E
:1004200000800123237010BD103DFF1F000000005D
:10043000402B0100084B10B51BB108490848AFF329
:1004400000800848036803B910BD074B002BFBD0A0
:10045000BDE81040184700BF00000000143DFF1F1A
:10046000402B0100103DFF1F00000000704700BF3F
:1004700008B508F0FBFC044B04491860032209206E
:10048000BDE8084008F0AAB90863FF1FE9050000AD
:10049000014807F07DBB00BFA43FFF1F10B5044615
:1004A0000AF0A2F9204610BD38B5054CA4F5A87590
:1004B0002046103C0AF0B8FAAC42F9D138BD00BF72
:1004C0006862FF1F10B5044B044640F81C3B0AF05D
:1004D000ABFA204610BD00BF8425010030B50446AC
:1004E000543094F85D2002F5067102F10B0354F8C4
:1004F0002110616404EBC30383B053F8065F5B68AB
:100500006565436094F8343013B1284B1B780BBBFE
:1005100094F85C10E36B914298BF002203F1010351
:1005200098BF84F85D208B4224BF002284F83420D9
:100530006268A16BE36302FB03F38B4204D30022E6
:100540000123E26384F83430204603B0BDE8304034
:1005500007F0D4BA94F840305BB1012B11D0022BD4
:1005600017D0236B0132D2B2013384F85D202363AC
:10057000CEE704F144010E4806F052FE94F85D20E7
:10058000EFE704F144010B4806F04AFE94F85D20C1
:10059000E7E794F8522094F85330009002F00102FB
:1005A000054804F061FC94F85D20DAE70563FF1F5D
:1005B0006864FF1F5097FF1F3050FF1FC36A23B1AD
:1005C000026B93429CBF0023037507F08FBA00BFF4
:1005D00008B508F04BFC034B1860BDE8084008F074
:1005E000BDB900BFDC62FF1F08B508F03FFC0D4B32
:1005F0000D4A1B681288C01A824211D2092008F0E5
:1006000069F90A4A0A4B106842081344B3FBF0F038
:1006100008F058FD002008F0C9FD064B01221A70B1
:1006200008BD00BF0863FF1FDA4FFF1FB416FF1F8E
:10063000002A75152D3DFF1F704700BF704700BF92
:10064000214B10B45A6E1368506819780478507AA8
:10065000137A044201EA03011BD0937A03F00303E7
:1006600009B143F0040343F008039910013B917270
:100670000D2B0BD8DFE803F021071B070A152121FA
:10068000150A071B0721D368013BD3605DF8044BB3
:100690007047937A03F003030029E6D043F0040384
:1006A000E3E7D3685DF8044B023BD3607047D3683F
:1006B0005DF8044B0233D3607047D3685DF8044B98
:1006C0000133D360704700BF1863FF1F214B10B484
:1006D0001A6F1368506819780478507A137A0442B4
:1006E00001EA03011BD0937A03F0030309B143F03D
:1006F000040343F008039910013B91720D2B0BD8B2
:10070000DFE803F021071B070A152121150A071B43
:100710000721D368013BD3605DF8044B7047937A9F
:1007200003F003030029E6D043F00403E3E7D368B2
:100730005DF8044B023BD3607047D3685DF8044B0F
:100740000233D3607047D3685DF8044B0133D36044
:10075000704700BF1863FF1F70B5044608460D467A
:100760000CF02EFB23680246294620465B68BDE854
:100770007040184738B5044608460D460CF020FB7B
:100780002368024629465B6820469847054620466E
:100790000AF09AF8284438BD38B50A2200230546E5
:1007A0000AF0B8F8044628460AF08EF8204438BD0E
:1007B00038B505460AF0EEF8044628460AF084F8F3
:1007C000204438BD38B50121022008F049FB012141
:1007D000052008F045FB01211F2008F041FB012105
:1007E0001A2008F03DFB01211B2008F039FB0221F3
:1007F000182008F035FB0121232008F031FB0121EE
:10080000242008F02DFB0121252008F029FB0121DF
:10081000262008F025FB0121272008F021FB0021DC
:10082000092008F01DFB0021152008F019FB01210B
:100830001A2008F001FB01211B2008F0FDFA01211C
:10084000052008F0F9FA0021022008F0F5FA00214D
:10085000242008F0F1FA0021252008F0EDFA104CD0
:100860000021262008F0E8FA2720002108F0E4FA09
:10087000651D102001E014F9010FC0B2012108F03C
:10088000EFFAA542F7D1074C4220651D01E014F9AB
:10089000010FC0B2002108F0E3FAAC42F7D138BD35
:1008A000F00801000820010008B50E480AF09AFA85
:1008B00000280BDD0C4B0D48012217211A7009F09E
:1008C000D5FC0B48BDE8084009F0FEBF18210948D7
:1008D00009F0CCFC064809F0F7FF034B00221A7020
:1008E00008BD00BF4C3EFF1FD062FF1F340901004E
:1008F000B432FF1F4C09010008B50E480AF072FA25
:1009000000280BDD0C4B0D48012215211A7009F04F
:10091000ADFC0B48BDE8084009F0D6BF16210948D8
:1009200009F0A4FC064809F0CFFF034B00221A701F
:1009300008BD00BF4C3EFF1FF216FF1F68090100F3
:10094000B432FF1F800901002DE9F04F83B008F099
:10095000BBFC18B3AA4B1C786CB10022A94D1A70CD
:1009600008F084FA2B68C01AB0F57A6F46D3A64C0B
:100970000123237014E0A54D2E78002E48D1A44CFD
:100980002778002F65D1A34B1A78002A40F0888081
:10099000A14B1B78002B72D108F0A6FC994D9A4C04
:1009A00008F064FA2B684CF25032C01A90421FD9FA
:1009B0000123237008F05AFA2B6842F22832C01A39
:1009C000904212D90021092008F04AFA02229349E4
:1009D000904D092007F002FF8D4889498B4A00237A
:1009E0002B70237003700B70137003B0BDE8F08F91
:1009F0002378002BDED103B0BDE8F08F08F074FC43
:100A0000C0B25528ACD1814B7F4C01221A70C7E788
:100A100008F06AFC824ADFF838E2824E7C492C708A
:100A2000C0B200F0200300F00F0701251470C206C9
:100A30008EF80000DBB237700D702AD5002B00F065
:100A4000C080794B08221A70202800F081806D4DFB
:100A50008DE7734D2F7808F047FC2B78724A734965
:100A60001278C8550133DBB29A422B7096D1694B8C
:100A7000267001222E701A70624D634C90E708F0C8
:100A800033FC6B495F4D604C02466A4809F034FF05
:100A900086E7002B00F09580634B04221A70D3E7A1
:100AA000DFF8ACB1604E019308F01EFCDFF8A491B2
:100AB0005B4D9BF8004096F800E089F8000004F0D8
:100AC0003F042F70019BBEF1000F0CD0574F0EF169
:100AD000FF307A1E57FA80F012F8011F90420C4442
:100AE000FAD185F800E054484B4FDFF86CA13A7812
:100AF00084FB00016018E117C1EBE011C1EB01219B
:100B0000611A414CC94301204FF000088AF80010D7
:100B1000207083F80080002A57D12A70BEF1000FA0
:100B20000CD0DFF80881002352B92B7831780133DB
:100B3000DBB299422B70F7D8002A56D1314D2FE7FE
:100B400018F803203D493B4809F0D6FE3A78ECE717
:100B50003B4DDFF808812B783A4A190101332B709D
:100B600098F800300D270446013114204FF0020E92
:100B7000D7701646517082F802E010701546D71CE7
:100B8000044433B9AF4209D015F8010F0444002BD7
:100B9000F8D008F041FB98F80030F3E7264884FBD2
:100BA00000016018E217C2EBE010C0EB0020201A31
:100BB000C043C0B23071002B3FF449AF08F02CFBAA
:100BC00045E7194B02221A703EE708F04FF99BF8EF
:100BD00000301D490246174809F08EFE337885F82B
:100BE00000803A78002B9CD1A6E79AF8003099F85B
:100BF000002016490F48034D09F07EFED0E600BFE5
:100C00002D3DFF1F0863FF1F0F61FF1F2D50FF1FAA
:100C10000561FF1F483EFF1FD062FF1F71040000E7
:100C20008160FF1F6250FF1F7B62FF1FFC62FF1F7E
:100C3000B4090100B432FF1F81808080A009010047
:100C40006150FF1F743EFF1F98090100A8090100B1
:100C5000B062FF1FAA62FF1FE062FF1FF216FF1FB4
:100C600000B5134A134B1268134883B00192019ADE
:100C70001A600AF0B7F800280CDD104B104801226A
:100C80001D211A7009F0F2FA0E4809F01DFE03B09A
:100C90005DF804FB1E210C4809F0E8FA094809F048
:100CA00013FE064B00221A7003B05DF804FB00BF70
:100CB0008CCAFF1FD44FFF1F4C3EFF1FD862FF1F7F
:100CC000C4090100B432FF1FE40901000B4808B554
:100CD00083683BB90A4B0B491A680B48BDE80840CA
:100CE00009F00ABE0AF07EF8054B084902461A6070
:100CF0000548BDE8084009F0FFBD00BF4C3EFF1F9E
:100D0000C416FF1F3C0A0100B432FF1F040A010091
:100D100038B50B480B4C0AF065F80B4905460246FE
:100D2000204609F0E9FD094B53F8251020461C31F7
:100D300009F0A4FD2046BDE8384009F0C5BD00BF5C
:100D40004C3EFF1FB432FF1F780A01008050FF1F86
:100D500070B500210C4806F0CFFF061E12DD0B4DCA
:100D6000002422460A490B4809F0C6FD55F8041F25
:100D700008481C3109F082FD0134064809F0A4FD41
:100D8000A642EED170BD00BFA43FFF1F7C50FF1FE5
:100D9000780A0100B432FF1F08B50021044806F0AC
:100DA000ABFF04490246BDE80840034809F0A4BD72
:100DB000A43FFF1F900A0100B432FF1F2DE9F04F3E
:100DC000B248ADF5157D09F00FFD0021B04806F0E1
:100DD00093FF4FF480720C9014A900230446AD4891
:100DE00009F098FF2C230FA914A8ADF83C300CF0A3
:100DF00089F8014610A809F057FE0FA900200CF051
:100E000081F8002800F000820AF07AFF0028C0F282
:100E10003B8184422346A8BF03461F460FA90020FA
:100E20000CF070F8002800F0F9810AF069FF002842
:100E300040F38981FF28A8BFFF20C3B281460D93EC
:100E40000FA900200CF05EF8002800F0B5810AF030
:100E500057FF0028C0F27B8109F1FF388045A8BF09
:100E600080460FA900200CF04DF8002800F09A8170
:100E70000AF046FF022803460FA9A8BF022300205C
:100E800023EAE37B0CF03EF8002800F0B381002158
:100E90000A220CF0D7F9804B1B68834238BF034607
:100EA0000FA900209A460CF02DF8002800F0988138
:100EB00000210A220CF0C6F90FA90A9000200CF0BC
:100EC00021F8002800F0828100210A220CF0BAF9F2
:100ED0000FA90B9000200CF015F8002800F04481B9
:100EE0000AF00EFF6D4EB37B80F3010060F3000348
:100EF0000FA90020B3730CF005F8002800F047811B
:100F0000102200210CF0D4F830600FA900200BF063
:100F1000F9FF002800F01E810AF0F2FE0828A8BFA1
:100F2000082020EAE070F07310B35D4D00240AE061
:100F30000CF0BEF880F308002870F37B0134A34264
:100F400005F1010514DD0FA900200BF0DBFF1022D5
:100F500000210028ECD1FF232B7022465149524832
:100F600009F0CAFCF37B0134A34205F10105EADC78
:100F7000129A54A90132002310A809F0CBFEB37BCA
:100F80000B9AF07B3168059203F001030A9A0492F0
:100F90000693089007913B46CDF80CA0CDF808B019
:100FA000CDF80480CDF8009054AA40493E4809F09D
:100FB000A3FCF37B013B002B0CDD3D4D002415F819
:100FC000012F3C49384809F097FCF37B0134013B81
:100FD000A342F4DC334438491A7C334809F08CFCD2
:100FE0000C9B9F4270D0354C35492F4854AB3A4644
:100FF00009F082FC54F8275095F85220B37BF07B1F
:10100000316885F840B063F3000208F5067385F88F
:10101000530085F8522045F8231070B124494FEA57
:10102000C808002254F8273011F8015F43441344E4
:101030000132904283F85E50F4D154F827009DF8B5
:10104000342080F85C200023026880F85D300B9D1E
:101050001268C5620363C3635146904754F8270082
:101060000A9B836310A91C3009F06EFD47F22F52D2
:101070001449064809F06EFB10A809F0D5FC384663
:101080000DF5157DBDE8F08F0027C7E6BC62FF1F98
:10109000A43FFF1F4C3EFF1FC416FF1F7C62FF1FB3
:1010A0008C62FF1F1C0D0100B432FF1F840C010075
:1010B0008B62FF1F600D0100680D01008050FF1F53
:1010C000880D01009104000054AB3A465849594834
:1010D000594C09F011FC4FF4466009F091FE4FF4B1
:1010E0004662002105460BF0ADF900221146284664
:1010F000914606F015FD514B2B60012385F83430E5
:1011000085F85C3049464FF4006205F15E00C5F891
:101110003090C5F83890C5F83C9085F8409085F837
:101120005D900BF08FF949464FF4806205F506603B
:101130000BF088F92946424806F09EFD85F8149088
:1011400044F8275058E701230D93994678E64FF06D
:10115000000886E638213B4809F088F8354809F050
:10116000B3FB0823F373E0E63221374E374809F02A
:101170007DF8304809F0A8FBB37B0FA943F00103C9
:101180000020B3730BF0BEFE00287FF4B9AE362109
:101190002F4809F06BF8274809F096FB6FF04043A1
:1011A0003360B2E62D212B4809F060F8214809F0A0
:1011B0008BFB6FF003075FE72321274809F056F800
:1011C0001C4809F081FB6FF0020755E738212348DE
:1011D00009F04CF8174809F077FB6FF006074BE76A
:1011E00033211F4809F042F8124809F06DFB6FF0F7
:1011F000050741E734211B4809F038F80D4809F08C
:1012000063FB6FF0040737E72621174809F02EF833
:10121000084809F059FB4FF0FF372DE742211348EA
:1012200009F024F8034809F04FFB6FF0010723E7AA
:10123000700D0100B432FF1F8050FF1FE408010051
:10124000A43FFF1FE00C01007C62FF1F180C01008F
:101250004C0C0100400B01001C0B0100DC0B0100D9
:10126000A80B0100700B0100B00A0100D80A0100B0
:1012700008B500210D4806F03FFD00280CDD00F107
:1012800080410B4B013903EB81010020043B53F8F3
:10129000042F8B421075FAD12221064808F0E6FF90
:1012A0000548BDE8084009F00FBB00BFA43FFF1F81
:1012B0008050FF1FA40D0100B432FF1F2DE9F04143
:1012C0000021134806F018FD012814DD114EDFF847
:1012D00050800746012556F8044F0135204644B199
:1012E00040F81C8B09F0A0FB20464FF4466109F042
:1012F00089FDAF42EFD1064806F0EAFC48210648D6
:1013000008F0B4FF0548BDE8F04109F0DDBA00BFC0
:10131000A43FFF1F8050FF1FC80D0100B432FF1F04
:101320008425010010B500210F4806F0E5FC0028D7
:1013300011DD0E4A00F18040013802EB80000124EB
:10134000043A002152F8043F82421C75196383F865
:101350005D10D963F6D12321054808F087FF0548C1
:10136000BDE8104009F0B0BAA43FFF1F8050FF1F36
:10137000140E0100B432FF1FF0B5002185B02748DC
:1013800006F0BAFC051E31DD0A2201A9002324481B
:1013900004AE09F0BFFC2C2326F8103D01A831460D
:1013A0000BF0B0FD0AF0ACFC002835DB013DA84293
:1013B000A8BF28460446314600200BF0A3FD0AF0E2
:1013C0009FFC0028174B1ADD53F824501649D5F816
:1013D000603816480026012722462F752E6385F8AF
:1013E0005D60EE6309F088FA05B0F0BD2721104872
:1013F00008F03CFF0D4809F067FA05B0F0BD53F85E
:1014000024500C49D5F860380848002622462E752D
:1014100009F072FA05B0F0BD0024CCE7A43FFF1F2D
:101420004C3EFF1F8050FF1F380E0100B432FF1FDB
:10143000880E0100600E010010B5014604460A48FE
:1014400009F0A8FA34B9094A094B92E80300186078
:10145000998010BD074A064B07CA03C323F8022B25
:10146000120C1A7010BD00BFB432FF1FBC0E010079
:101470009860FF1FB00E0100013830B406282DD847
:10148000DFE800F00F171F21282A0400144D154C27
:101490000FCD0FC495E8030044F8040B217030BC55
:1014A0007047114D0F4C0FCD0FC42B68237030BC0B
:1014B00070470E4D0B4C0FCD0FC42B68236030BC12
:1014C00070470B4DE3E70B4B064C0FCB84E80F0046
:1014D00030BC7047084DE5E7084DD8E7084DE9E70F
:1014E000400F01009860FF1FC40E0100D80E0100DC
:1014F000EC0E0100040F0100140F0100280F010081
:10150000580F0100184B194A1878194B127819789E
:10151000184B70B5184C1B782678184D184C2D7840
:101520002478800040EA42020A4342EAC60242EAC4
:10153000031242EA431343EA851300211A2043EAC7
:10154000C41407F079FC0F4B1A68E4B24FF0004363
:10155000D3625463D36A002BFCDA01211A20936B07
:1015600007F06AFC204670BDD84FFF1F0D63FF1FB8
:101570000C61FF1FF862FF1FA962FF1F843FFF1F5E
:101580008060FF1FBC25FF1FF8B5194B194A197859
:10159000194B1778194A1878194B1278194C1B787F
:1015A000194D2478194E2D78890041EA47010143ED
:1015B00041EAC20242EA031242EA4413347843EA9F
:1015C000851300211B2043EAC41407F035FC104B9F
:1015D0001A68E4B24FF00043D3625463D36A002B1D
:1015E000FCDA01211B20936B07F026FC2046F8BD96
:1015F0008525FF1FF016FF1FB816FF1F0E61FF1F86
:10160000703EFF1F0461FF1FA025FF1F0463FF1F23
:10161000BC25FF1FF8B5244B24491A78244B0F78BA
:1016200024481B7824490578244C087824492478D8
:101630000E782449920042EA4702134343EAC50365
:1016400043EA8015204B08781A782049204B097806
:101650001F78204B45EAC41545EA062444EA402495
:1016600044EA82201C4D1A781C4C1D4B2E781D4DCF
:101670001B78247840EAC12040EA073141EA423130
:1016800041EA86322978184842EAC33284F00104DC
:1016900042EA041381F0010443EA4414A4B221464F
:1016A00006F0F2FB2046F8BDFC60FF1F8425FF1FFB
:1016B000DD4FFF1F9460FF1F9825FF1F6450FF1F21
:1016C0001463FF1FF962FF1F2C50FF1F6350FF1FA1
:1016D0006050FF1F0C63FF1FB862FF1FC916FF1F7A
:1016E0004A3EFF1FC016FF1FA462FF1F38B5012529
:1016F00005FA00F0C3430C461A4899B206F0C4FB41
:10170000284607F0D7FB184B1B684FF000414022DA
:10171000D9625A63DA6A002AFCDA0834E4B24FF07C
:101720000042996BDA625C63DA6A002AFCDA4FF0F5
:1017300000414C22986BD9625A63DA6A002AFCDABB
:101740004FF00041FF22986BD9625A63DA6A002A8F
:10175000FCDA9C6B0348FF2106F096FB04F00700BF
:1017600038BD00BFA862FF1FBC25FF1F38B501248C
:1017700004FA00F0C3430D46184899B206F084FB02
:10178000204607F097FB164B1B684FF000410022E4
:10179000D9625A63DA6A002AFCDA4FF00042996B88
:1017A000DA625D63DA6A002AFCDA4FF000410C224B
:1017B000986BD9625A63DA6A002AFCDA4FF000416A
:1017C000FF22986BD9625A63DA6A002AFCDA9C6BB2
:1017D0000248FF2106F058FBE0B238BDA862FF1FA7
:1017E000BC25FF1F431E0F2B30B441D9A0F11103BC
:1017F000072B31D9A0F11903072B44D9A0F12103FC
:10180000032B4AD9A0F125030B2B3CD931282FD02B
:10181000322838D0A0F133030F2B49D9A0F143036C
:10182000072B30D9A0F14B03022B21D9A0F14D0396
:10183000032B3DD9A0F15103042B43D9573801287C
:1018400021D8264C2649274B002541F28830012219
:10185000256008601A6009E0204C2149214B0025D1
:1018600040F6FF701422256008601A6030BC704793
:101870001A4C1B491B4B0025FF20012225600860E4
:101880001A6030BC704715481549164A00240123D8
:1018900004600B60136030BC7047104C1049114B52
:1018A00000254FF480500122256008601A60DDE7B2
:1018B0000A4C0B490B4B00250720012225600860CC
:1018C0001A60D3E7054C0649064B00254FF6FF701A
:1018D0000122256008601A60C8E700BFB462FF1FDC
:1018E000E816FF1FF416FF1F30B50E4D0E4CC1B0A9
:1018F000002328466946FF2209F00CFA4FF4807253
:1019000068464FF47A7106F0DBFD0621074808F0BF
:10191000ADFC2946204608F0B1FF204608F0D4FF70
:1019200041B030BD8460FF1FB432FF1F6C0F010057
:10193000F0B5C5B004AFC7F57A7501350DF10F04E8
:101940000DF20F16281906F073FD04F8010FB442CA
:10195000F8D13B78FF2B17D03946684609F0A4F838
:1019600069460B4809F0F8F8684609F05DF8072168
:10197000084808F07BFC0649074808F07FFF064846
:1019800008F0A2FF45B0F0BDFFF7AEFF45B0F0BDD7
:101990008460FF1F740F0100B432FF1F10B50948A7
:1019A000094C09F01FFA094B003018BF01201870CC
:1019B00007F0E6FD00230648064A23700121037064
:1019C000117010BD4C3EFF1F0D61FF1FDC4FFF1F4C
:1019D0000E63FF1FD416FF1F08B50B4B0B480022E8
:1019E00062211A7008F042FC094808F06DFF094BAB
:1019F0001A8872B6084BDA6062B60849084B0120B3
:101A00005C2208601A6008BD2C3DFF1FDC0F01003E
:101A1000B432FF1FFA62FF1F5C3EFF1FB462FF1F5C
:101A2000E816FF1FFFF7D8BF2DE9F04F88488268FE
:101A3000AFB0002A52D0002315A909F06BF99DF828
:101A40005430312B64D0302B65D0322B14BF4FF083
:101A5000FF394FF002092C217D4809F075F9451C2A
:101A600004462A462C217A4809F07EF9002C0746C4
:101A700045DD012843DD2A4608A83B46744909F0A4
:101A800085F908A805A90023092209F043F905A84A
:101A90000BF096F900240546264607E012F8A40C40
:101AA0000AF06AF901340126002837D0E3B22EAAE1
:101AB0009D421A44F2D88EB310220DEB020105A804
:101AC0000BF0C0FB634DC20AAB7B00F0A48020F09A
:101AD000404043F001032860AB7328E026215E48B4
:101AE0005C4D08F0C3FB5D4808F0EEFEAB7B0822BE
:101AF00043F00103AB73EA732FB0BDE8F08F554D8F
:101B000057487A2108F0B2FB544808F0DDFEEDE7B3
:101B10004FF001099FE74FF000099CE7172151485A
:101B20004C4D08F0A3FB4D4808F0CEFE00267A1C71
:101B30000CA847490DF1400809F04CF90CA84146A2
:101B40000023112209F0E6F840460BF039F940086D
:101B50005FFA80FAE8734FEA4A07BAF1000F6FD0D4
:101B600000231C4601E0BC4218DA2EAA13440134BB
:101B700013F8780C0AF000F9E4B223460028F2D1F9
:101B80004321394808F072FB344808F09DFE0CA848
:101B900008F04AFF08A808F047FFB1E7BAF1000FC4
:101BA0001BD00024DFF8D8A0A346474618F814003D
:101BB0007B788DF80C0010220DEB020103A88DF844
:101BC0000D308DF80EB00BF073FA0AF8010FEB7BB5
:101BD0000134A34207F10207E8DC0CA808F024FF57
:101BE00008A808F021FF002E8AD0B9F1000F0DD00F
:101BF000B9F1010F1FD0B9F1020F11D022211B48FA
:101C000008F034FB154808F05FFE6FE711491848EB
:101C100005F006FB6AE762F300032860AB7386E712
:101C2000AA7B1448EB7B2968009002F0010212485D
:101C300003F01AF95AE70749104805F0F1FA55E799
:101C40000CA808F0F1FE08A808F0EEFE58E700BF67
:101C50004C3EFF1F4850FF1F3C110100B432FF1FD4
:101C6000C010010040100100581001009C1001003C
:101C70006864FF1F5850FF1F3050FF1F5097FF1F11
:101C80005750FF1F2DE9F04F7148724B84681B6855
:101C9000704AADF21C7DB4F5E06F01934FF0010383
:101CA000136080F0C58006AFE2183946002309F0C2
:101CB00031F8694B2546A4B2A3FB0423E21A03EBD7
:101CC00052039B08C3EBC302A21A1FFA83FA92B213
:101CD0005FFA8AF3002A40F0B7802A465F4905A8D8
:101CE0000AF00CFE52465D4903A80AF007FE5C4963
:101CF0005C4808F039FF5C4B5C491A7804A80AF08C
:101D0000FDFD04A9574808F071FF5949554808F0EE
:101D10006DFF05A9534808F069FF5649514808F07E
:101D200065FF03A94F4808F061FF53494D4808F08B
:101D30005DFF4C49514808F0A1FD504808F0C4FD32
:101D4000FFF73CF8BAF1000F6AD04FF000084646A2
:101D50000AF101094A49434808F006FF4A46494941
:101D600004A80AF0CBFD013604A93E4808F03EFF66
:101D70003246444904A80AF0C1FD04A9394808F0D4
:101D800035FF4149374808F031FF4A463D4904A82C
:101D90000AF0B4FD04A9334808F028FF3B49314854
:101DA00008F024FF304B31491A7804A80AF0A6FD48
:101DB00004A92C4808F01AFF35492A4808F016FFF4
:101DC00032462A4904A80AF099FDC6EBC60B04A9BD
:101DD000244808F00BFFC345444612DDAC422349BA
:101DE000A8BF22494FF0FF0204A8B4BF3A5D04A87F
:101DF0000AF084FD013404A91A4808F0F7FEA3454F
:101E0000ECD118491D4808F039FD1C4808F05CFD6C
:101E1000FEF7D4FF1F4BB24508F10708186099D1AF
:101E20009DF804300B4A13600DF21C7DBDE8F08F65
:101E300006AF394600234FF4E06208F06BFF4FF025
:101E4000000A40F2FF6548E701335FFA83FA44E78E
:101E50008460FF1FC416FF1F2549922464110100EE
:101E60006C1101004C3EFF1FF916FF1FA009010075
:101E700090110100B411010098110100B432FF1F4C
:101E8000A8110100B8110100BC110100C41101002A
:101E9000D0110100C862FF1F38B5FFF7F3FE0B4CED
:101EA00004F5A87521460A4808F04EFE1034FEF7E6
:101EB00085FF012006F0FEFFAC42F3D1054904483E
:101EC00008F052FEBDE83840FFF72CBA2861FF1F2A
:101ED0004C3EFF1FD411010084B0F8B506AC84E875
:101EE0000F009DF83470384E044605F0D5FC0321F0
:101EF0000546364808F0BAF9280E08F03BFAC5F353
:101F0000074008F037FAC5F3072008F033FAE8B2C3
:101F100008F030FA384608F02DFA06F0A7FF3368CB
:101F2000C01AC0F3074008F025FA06F09FFF336897
:101F3000C01AC0F3072008F01DFA06F097FF3368B7
:101F4000C01AC0B208F016FA9DF82630200E03F031
:101F5000010340EAC31008F00DFAC4F3074008F08B
:101F600009FAC4F3072008F005FAE0B208F002FA13
:101F70009DF8270008F0FEF99DF8280008F0FAF90E
:101F80009DF8290008F0F6F99DF82A0008F0F2F90A
:101F90009DF82B0008F0EEF99DF82C0008F0EAF906
:101FA0009DF82D0008F0E6F99DF82E0008F0E2F902
:101FB0009DF82F0008F0DEF9BDE8F8400121044843
:101FC00004B008F053B900BFDC62FF1F201F0100FE
:101FD000082201002DE9F043002489B0234604A91A
:101FE0000F221E48069404940594CDF81B4008F077
:101FF00091FE04A809F088FE0A28054608D858B1C1
:102000001C21174808F032F9164808F05DFC2546F7
:10201000284609B0BDE8F08305F0DEFC044605F073
:10202000CBFC064605F0B8FC814605F085FC07466A
:1020300005F092FC804605F09FFCCDF800900390DF
:10204000CDF808800197334622460749054808F035
:1020500053FC284609B0BDE8F08300BF4C3EFF1F8B
:1020600004120100B432FF1FD81101002DE9F04124
:1020700084B0FFF7AFFF08B3044606F075FC2046B6
:1020800005F0BCFC05F0A8FC044605F095FC0546EF
:1020900005F082FC804605F04FFC064605F05CFC2E
:1020A000074605F069FCCDF8008003900297019681
:1020B0002B4622460349044808F01EFC04B0BDE844
:1020C000F08100BF24120100B432FF1F08B505F0F3
:1020D000E9FC03490246BDE80840024808F00CBC90
:1020E00050120100B432FF1F84B070B584B008AC48
:1020F00084E80F000B9C0A980E990D9A03918DE8C5
:10210000110002929DF820302E9A1449144808F0CC
:10211000F3FB08AC26AE25462A6A1249104808355A
:1021200008F0EAFBB542F7D10F9A0F490C4808F0C6
:10213000E3FB626A0B490A48083408F0DDFBA6425B
:10214000F7D10121094808F091F8054808F0BCFBD7
:1021500004B0BDE8704004B0704700BF58120100E1
:10216000B432FF1FD0120100D8120100F01201009A
:1021700070B5F0B024AC98252A468826204612492E
:1021800005F0A4FE28A9324600236846229305F0F4
:102190009DFE94E80F00FFF7A7FF2A464AA80B49C7
:1021A00005F094FE2A464AA9204605F08FFE3246E5
:1021B00028A901236846229305F088FE94E80F00C1
:1021C000FFF792FF70B070BDB096FF1F98C9FF1F58
:1021D00038B50B4D0B4C284604F0B0FF204604F0F8
:1021E000ADFF43F2482301221C210748EA54E25480
:1021F00008F03CF80548BDE8384008F065BB00BF72
:102200006864FF1F5097FF1FF4120100B432FF1FD4
:1022100010B5074C0748312108F028F82046064938
:1022200008F02CFB2046BDE8104008F04DBB00BF75
:10223000B432FF1F141301008460FF1F124908B558
:102240008B680B2B13D9114808F07EFCFFF74CFB71
:1022500017210F4808F00AF80C490E4808F00EFB49
:102260000C4808F031FBBDE80840FFF70BBD182112
:10227000094807F0FBFF0549064808F0FFFA054842
:10228000BDE8084008F020BB4C3EFF1F8460FF1FE4
:1022900064130100B432FF1F481301004CF25033A5
:1022A000984248D00ED9264B98422DD01DD8254BA8
:1022B000984225D0244B98423BD0244B984227D0BB
:1022C0000C20704742F2107398422CD022D947F666
:1022D000122398421AD049F64043984227D044F638
:1022E00020639842ECD103207047194B984209D0E3
:1022F000184B984221D0184B9842E1D10D207047DD
:10230000092070470F2070470B207047042070474A
:1023100008207047B0F5805F07D041F288339842BB
:10232000CED1012070470220704700207047062060
:1023300070470A207047072070470E20704700BF83
:10234000400D0300A086010048E80100803801002C
:102350002A2C0A0040420F0020A1070030B51F4878
:10236000836887B003BB1E4D29681E4A1E480023A0
:10237000009304F071FD0424224601341B491A48DD
:10238000E4B204F001FD102CF6D11921184807F031
:102390006DFF2968174800230A2208F0BBFA154888
:1023A00008F092FA07B030BD002303A9092208F013
:1023B000B1FC0A22002103A80AF044FF0E4B0F4A89
:1023C00003F1380103E08B42CDD053F8042F904243
:1023D000F9D1034D01462860C7E700BF4C3EFF1FFF
:1023E000CC16FF1F38CAFF1F6864FF1F303DFF1F58
:1023F0007C130100B432FF1FF808010090D00300E5
:1024000030B51F48836887B003BB1E4D29681E4A3C
:102410001E480023009304F01FFD042422460134CB
:102420001B491A48E4B204F0AFFC102CF6D1192174
:10243000184807F01BFF2968174800230A2208F0F4
:1024400069FA154808F040FA07B030BD002303A927
:10245000092208F05FFC0A22002103A80AF0F2FE1C
:102460000E4B0F4A03F1380103E08B42CDD053F8F5
:10247000042F9042F9D1034D01462860C7E700BF01
:102480004C3EFF1FD016FF1F38CAFF1F5097FF1F7B
:10249000303DFF1F98130100B432FF1FF808010000
:1024A00090D0030010B52348836884B043BB224C0E
:1024B0002068FFF7F3FE0123024603211F4802F0C4
:1024C00083FCA8B11D211E4807F0D0FE1D4808F06E
:1024D000FBF91B211C4807F0C9FE2168194800239D
:1024E0000A2208F017FA174808F0EEF904B010BDF8
:1024F0002121164807F0BAFE124808F0E5F9E8E78E
:10250000002301A9092208F005FC0A22002101A8E4
:102510000AF098FE0E4B0F4A014603F1380003E023
:102520008342C4D053F8042F9142F9D1024C08469B
:102530002160BEE74C3EFF1FEC16FF1F3050FF1F0F
:10254000D8130100B432FF1FF8130100B4130100C7
:10255000F808010090D0030010B513211548164C5F
:1025600007F084FE154B0A2219682046002308F064
:10257000D1F9204608F0A8F91321114807F076FE9A
:10258000104B0A2219682046002308F0C3F92046A0
:1025900008F09AF915210C4807F068FE0B4B20460D
:1025A00019680A22002308F0B5F92046BDE810405A
:1025B00008F08AB914140100B432FF1FCC16FF1FB3
:1025C00028140100D016FF1F3C140100EC16FF1F59
:1025D00030B5214883B008F005FC00282ADDFFF75C
:1025E00051FB1E4B1E482B2101241C7007F03EFEA0
:1025F0001C4808F069F91C491C4A0B680093009BB1
:10260000156841F288305B1B834211D9184809686C
:10261000184B0068019153F8203001991160002295
:102620001C7583F834401A639A63DA6383F85D207B
:1026300003B030BD094B104800242C211C7007F05A
:1026400015FE084808F040F9094A0A4B126853F889
:1026500022301C7503B030BD4C3EFF1FC816FF1F53
:1026600054140100B432FF1F8CCAFF1FF462FF1F15
:10267000C862FF1F8050FF1F8014010000B585B0A5
:1026800005F010FA0146684608F00EFA69460F4850
:1026900008F010FB60B909210D4807F0E7FD0D486F
:1026A00008F012F9684608F0BFF905B05DF804FBC0
:1026B0001021094807F0DAFD064808F005F96846D8
:1026C00008F0B2F905B05DF804FB00BF4C3EFF1FF7
:1026D000C4140100B432FF1FB014010010B5074C40
:1026E0000748092107F0C2FD2046064908F0C6F850
:1026F0002046BDE8104008F0E7B800BFB432FF1F25
:10270000D01401006850FF1FF0B5AA49AA48AB4D8C
:10271000AB4C8BB008F0C8F9AA4AAB49A64809F0FF
:10272000E9FAAA49AA4808F0BFF9A64AA649A84862
:1027300009F0E0FAA749A84808F0B6F9A14AA24969
:10274000A54809F0D7FAA549A54808F0ADF99D4A72
:102750009D49A34809F0CEFA06A8974908F0B8F9B0
:1027600006A8A04908F07CFA994908F071FA9E4938
:1027700008F076FA984908F06BFA9A4908F070FA6E
:10278000974908F065FA994908F06AFA01469848AD
:1027900008F09EF906A808F047F98A4A8A49944841
:1027A00009F0A8FA05F0F8FD924B864A9249802676
:1027B0001E71184600261E6009F09CFA1F218F48E2
:1027C00002F0F4FA31468E4808F06EF97D4A7E49EF
:1027D0008B4809F08FFA31468A4808F065F9794A42
:1027E0007949884809F086FA2B68019301992B688A
:1027F0000293029A2B680393834B03981960834BCF
:102800002F6883491A600497824B049A1A60086003
:1028100006F02CFB804B186006F028FB2B687F4AE3
:1028200005937F4B10600221059A1A601C2006F068
:1028300017FB0221192006F013FB7A4A7A4BD2F8D3
:10284000E010D2F8C820E660012001F5007602F51C
:1028500000752660656020726072013BFDD191F8C1
:10286000003292F80022714E71493467D20703EAB0
:10287000000344BF43F00203DBB204221C20012505
:10288000A37205F0ABFF04226A497466192025740F
:1028900005F0A4FF237C2B44237406F0E7FA664B73
:1028A00066491B68664A086003EB430103EB81033A
:1028B00064486549138008F0F7F86449644808F0F3
:1028C000F3F86449644808F0EFF86449644808F094
:1028D000EBF86449644808F0E7F86449644808F094
:1028E000E3F86449644808F0DFF86449644808F094
:1028F000DBF86449644808F0D7F86449644808F094
:10290000D3F86449644808F0CFF86449644808F093
:10291000CBF86449644808F0C7F86449644808F093
:10292000C3F86449644808F0BFF86449644808F093
:10293000BBF86449644808F0B7F86449644808F093
:10294000B3F86449644808F0AFF86449644808F093
:10295000ABF86449644808F0A7F81A4A63490020B4
:1029600009F0C8F90021624805F04EF9154A61499D
:102970005F4809F0BFF92B462A4618215E4802F04D
:1029800057FC5E4906A808F08FF8134906A808F01E
:102990005FF95B4908F064F901465A4808F098F875
:1029A00006A808F041F8074A0749564809F0A2F975
:1029B0000BB0F0BDDC140100943FFF1F8CCAFF1F59
:1029C0005C3EFF1F0C08FF1F29AA0000E414010051
:1029D0009462FF1FEC140100E04FFF1FF014010090
:1029E000E462FF1FF8140100FC140100001501004F
:1029F0008460FF1FBC62FF1F9D0400003050FF1F5A
:102A0000743FFF1F4C3EFF1FCC62FF1F1063FF1F70
:102A10000061FF1FD44FFF1FD462FF1FDC62FF1F46
:102A2000F462FF1F18260100C0D401001863FF1FC5
:102A3000CD06000041060000BC16FF1F0863FF1F03
:102A4000DA4FFF1F2861FF1F0C15010064150100FC
:102A50003861FF1FBC1501004861FF1F14160100FB
:102A60005861FF1F6C1601006861FF1FC41601004A
:102A70007861FF1F1C1701008861FF1F7417010098
:102A80009861FF1FCC170100A861FF1F24180100E7
:102A9000B861FF1F7C180100C861FF1FD418010036
:102AA000D861FF1F2C190100E861FF1F8419010084
:102AB000F861FF1FDC1901000862FF1F341A0100D2
:102AC0001862FF1F8C1A01002862FF1FE41A010020
:102AD0003862FF1F3C1B01004862FF1F941B01006E
:102AE0005862FF1FEC1B01006862FF1FA904000071
:102AF000A43FFF1FC5040000F04FFF1F441C01004E
:102B0000501C01006850FF1F2DE9F0437E4E7F4CA2
:102B100083B007463A217E4807F0A8FB0023102225
:102B20003946304607F0F6FE304607F0CDFE39460E
:102B3000204602F0F9FF2046802102F05FFC20468B
:102B40000021002502F05AFC2046102102F056FC1C
:102B5000627B216900950123204603F0F7FA39468C
:102B6000204602F0E1FF2046802102F047FC4FF0B2
:102B70000108627B216900952046012303F0E6FAF3
:102B8000617B206901953A460223CDF8008003F06D
:102B9000F3FA206903F00AFB206903F007FB1F2109
:102BA00081465C4807F062FB2B4610225FFA89F1F0
:102BB000304607F0AFFE304607F086FE1621564835
:102BC00007F054FB304607F07FFE3946204602F0FE
:102BD000ABFF2046602102F011FC2046FF2102F0ED
:102BE0000DFC2046FF2102F009FC627B2169009563
:102BF0004346204603F0AAFA3946204602F094FFE5
:102C00002046602102F0FAFB627B21690095434671
:102C1000204603F09BFA617B206901953A46022326
:102C2000CDF8008003F0A8FA206903F0BFFA20690C
:102C300003F0BCFA0F218146384807F017FB2B46FA
:102C400010225FFA89F1304607F064FE304607F043
:102C50003BFE2621324807F009FB304607F034FEE0
:102C60003946204602F060FF2046402102F0C6FBB4
:102C700020461F2102F0C2FB2046FF2102F0BEFBCE
:102C8000627B216900954346204603F05FFA39468E
:102C9000204602F049FF2046402102F0AFFB627B54
:102CA000216900954346204603F050FA617B206974
:102CB00001953A460223CDF8008003F05DFA2069C1
:102CC00003F074FA206903F071FA102104461548E4
:102CD00007F0CCFA2B46E1B20222304607F01AFE8A
:102CE000304607F0F1FD1B210F4807F0BFFA2B46D5
:102CF00039463046102207F00DFE304603B0BDE8DD
:102D0000F04307F0E1BD00BFB432FF1F4064FF1F76
:102D1000881C0100C41C0100E41C0100FC1C010013
:102D20000C1D0100341D0100481D0100F0B5254CAB
:102D300083B006460D4620461146174602F0F4FEC3
:102D400005F12001C9B2204602F058FBC6F3071175
:102D5000204602F053FB310101F0F001002620462D
:102D600002F04CFB627B216900960123204603F0B0
:102D7000EDF93946204602F0D7FE05F11001C9B23F
:102D8000204602F03BFB627B21690096204601232E
:102D900003F0DCF90123617B00933A4602232069AA
:102DA000019603F0E9F9206903F000FA054620696D
:102DB00003F0FCF9EDB2C0F3031000EB051003B013
:102DC000F0BD00BF4064FF1F70B5164C054682B0D1
:102DD0000E462046294602F0A7FE2046402102F07A
:102DE0000DFB46F0F8012046002602F007FB627B4F
:102DF000216900962046012303F0A8F90123617B95
:102E000000932A4602232069019603F0B5F9206950
:102E100003F0CCF9206903F0C9F900F0070002B013
:102E200070BD00BF4064FF1F70B5154C054682B0F1
:102E30000E462046294602F077FE2046002102F089
:102E4000DDFA31462046002602F0D8FA627B21697D
:102E500000962046012303F079F90123617B00935A
:102E60002A4602232069019603F086F9206903F0BF
:102E70009DF9206903F09AF9C0B202B070BD00BF9D
:102E80004064FF1F2DE9F84305460C461746002A0B
:102E900063D16E1E5FFA86F8B8F10F0F13D8BD4DDF
:102EA000002CAABFE1B2A95DA9554046FEF75EFC21
:102EB000B94B0446995D4046FEF718FC002F75D1CA
:102EC000A85DBDE8F883A5F11106F1B2072910D875
:102ED000B24D002CAABFA0B235F8160025F8160096
:102EE0004922FFF723FF002F76D135F91600BDE800
:102EF000F883192D79D01A2D00F091801B2D00F048
:102F000096801C2D00F097801D2D00F08C801E2DCA
:102F100000F095801F2D00F09680202D00F0148188
:102F2000A5F121085FFA88F3032B00F2B380DFF8E4
:102F300070929B4D9B4E002CA8BF29F81840102082
:102F40000024C0B2013435F8021B05F01FFD042C2B
:102F500000F0938016F9010FF3E70A2200230146DF
:102F6000914807F0D7FC0221904807F07FF905EB64
:102F700085068F4BF60003EB0608404609F020FF5C
:102F80000146404607F072F90221884807F06EF9C1
:102F9000884B1E44304609F013FF0146304607F0C7
:102FA00065F90321844807F061F972E700230A22DA
:102FB000A95D7D4807F0AEFC02217C4807F056F978
:102FC000214600230A22784807F0A4FC764807F03F
:102FD0007BFCA85DBDE8F88335F81610724807F051
:102FE000D9FC714807F070FC7FE7002C734C03DBC1
:102FF00014BF012300232370FEF70CFB67B1207878
:10300000FEF71AFA6E4809F0DBFE01466C4807F03D
:103010002DF9654807F058FC2078BDE8F883002CAE
:10302000684CE5DAE8E7002C674CE1DAE4E7002CCD
:10303000664CDDDAE0E7002C654CD9DADCE7002CE1
:10304000644CD5DAD8E7002C634D03DB003418BF9D
:1030500001242C70FEF7DEFA67B12878FEF7ECF950
:10306000574809F0ADFE0146554807F0FFF84E48B5
:1030700007F02AFC2878BDE8F8833FB139F818102A
:10308000494807F087FC484807F01EFC39F918004A
:10309000BDE8F883252D5CD0262D6ED0272D74D069
:1030A000282D6ED05C2D6CD0292D00F0A1802A2D0A
:1030B00000F0AB802B2D00F0AC802C2D00F0BD80FB
:1030C0002D2D00F0BE802E2D00F0F1802F2D00F070
:1030D000D780302D00F0DA82312D00F0BB82322D06
:1030E00000F05F81A5F133065FFA86F9B9F10F0FA1
:1030F00000F20181DFF8A080264B002CA8BF4544D8
:10310000995DA8BF05F8334C4846FEF72FFB4846AB
:1031100018F80610204DFEF7E9FA044687B100239F
:103120000A22A95D204807F0F5FB20491E48FDF75B
:1031300013FB2046FEF7A0F921491B48FDF71AFBB7
:1031400018F80600BDE8F883002C244CBFF650AFF9
:1031500052E7002C224C03DB14BF01230023237011
:10316000FEF758FA002F3FF457AF2078FEF764F9C6
:1031700013490D48FDF7FEFA4EE7002C194CEBDA27
:10318000EEE7002C184CE7DAEAE7002C174CE3DAFC
:10319000E6E700BFA825FF1FA416FF1F8825FF1F15
:1031A0009816FF1FF0080100B432FF1F640D0100E4
:1031B0001008FF1FFC16FF1F641D01001463FF1F92
:1031C0009860FF1FF962FF1F6050FF1F2C50FF1F08
:1031D0006350FF1F0C63FF1FB862FF1F4A3EFF1FB3
:1031E000FC60FF1F9460FF1F6450FF1F9825FF1FA6
:1031F000002CAE4C03DB14BF012300232370FEF729
:10320000C3F9002F3FF408AFAFE7002CA84CF2DA67
:10321000F5E7002CA74D03DB003418BF01242C7008
:10322000FEF7B2F9002F3FF425AF2878FEF704F936
:10323000A149A248FDF79EFA1CE7002CA04CDADA5F
:10324000DDE7002C9F4C03DB14BF01230023237018
:103250002378002B41D09C4B00221A70FEF794F982
:103260002178984D232005F0E7FD002F3FF4D4AEE0
:103270002878FEF7E1F890499048FDF77BFACBE615
:10328000002C924C03DB14BF01230023237023780E
:103290003BB38F4B00221A70FEF776F921788B4DE5
:1032A000252005F0C9FD002F3FF4B6AEE0E7002C65
:1032B000884C03DB14BF0123002323702378A3B1C0
:1032C00000210B20FEF712FA2178824D242005F010
:1032D000B3FD002F3FF4A0AECAE77B4B01221A706A
:1032E000BCE77B4B01221A70D6E77B4B0B20997A07
:1032F000FEF7FCF9E8E7432D00F0A781442D00F02C
:103300009F81452D00F09781462D00F08F81472D3C
:1033100000F08181482D00F06E81492D00F066811A
:103320004A2D00F05E814B2D00F04D814C2D00F0B8
:103330003C814D2D00F01E814E2D00F00D814F2D52
:1033400000F0EA80502D00F0D980A5F15106F3B2CB
:10335000042B36D8614DDFF89C91002CA8BF25F8CE
:10336000164035F816305E4C00EE103AA05DB8EE0F
:10337000400A05F0BBFC4FF0000839F8181014F8AB
:10338000080008F1010805F001FBB8F1060FF4D1BF
:10339000002F3FF4AAAD35F816104848FDF708FA9B
:1033A000A3E5002C4F4C03DB14BF01230023237043
:1033B00021784C4D272005F03FFD002F3FF42CAE27
:1033C00056E7562D6ED0572D52D0582D36D0592D48
:1033D00030D05A2D1CD05B2D16D1002C424C03DB73
:1033E00014BF0123002323702378CBB100210220D6
:1033F000FEF77CF900210320FEF778F9FEF782F84A
:10340000002F3FF409AEB0E64FF0FF30BDE8F8837F
:10341000002C364CF2DB14BF012300232370EDE7B0
:103420002D4D0220A978FEF761F9E9780320FEF717
:103430005DF9E3E7002C2E4CEDDADFE7DFF8B4901E
:10344000002CA8BFA9F80A40254C002539F8151012
:10345000605D284E013505F099FA062DF6D11FB1B1
:1034600071891648FDF7A4F9B9F90A00BDE8F88397
:10347000DFF88090002CA8BFA9F80840184C002560
:1034800039F81510605D1B4E013505F07FFA062DE9
:10349000F6D11FB131890948FDF78AF9B9F9080059
:1034A000BDE8F883002C144CB5DAA7E7B816FF1F67
:1034B000F016FF1F8525FF1F9860FF1FB432FF1F06
:1034C0000E61FF1F853FFF1FA025FF1FF816FF1F7E
:1034D0000463FF1FAB62FF1FA416FF1FDC16FF1F54
:1034E000F00801000563FF1FF862FF1F8060FF1FE7
:1034F000843FFF1F9816FF1FA962FF1F714B714D7C
:10350000002CA8BF9C7099783D20FFF75DFC044615
:1035100007BB20B2BDE8F8836A4B6A4D002CA8BFF8
:103520005C7059783F20FFF74FFC0446002FF0D025
:103530006978654800230A2207F0ECF9634962487C
:10354000FDF70AF92046FDF797FF61495E48FDF750
:1035500011F9DEE7A978ECE75A4B5A4D002CA8BFC9
:103560001C7019783C20FFF72FFC0446002FD0D0A8
:103570002978DEE7574B574D002CA8BF9C709978EF
:103580003D20FFF751FC0446002FC2D0A9784E48D9
:1035900000230A2207F0BEF94C494B48FDF7DCF83E
:1035A00021464948FDF7F8F8B3E74A4B494D002C4E
:1035B000A8BF5C7059783F20FFF736FC0446002F07
:1035C000A7D06978E3E7434B424D002CA8BF1C709D
:1035D00019783C20FFF728FC0446002F99D0297861
:1035E000D5E7002C3C4CBFF6B7ADB9E5002C3B4C01
:1035F000BFF6B2ADB4E5002C394C03DB14BF012398
:1036000000232370FEF706F823784BB100210F202A
:10361000FEF76CF8F4E6002C324CBFF69DAD9FE54A
:10362000314B0F20D97BFEF761F8E9E6002C2F4CD7
:10363000BFF6E1ADE3E5002C2D4CBFF6DCADDEE5D9
:10364000002C2C4DBFF6E8ADEAE5002C2A4CBFF665
:10365000D2ADD4E5294B294D002CA8BF1C70197898
:103660003E20FFF7E1FB0446002F3FF452AF00235A
:103670000A220146144807F04DF914491248FDF793
:103680006BF829781048FDF787F842E7002C1C4CAE
:1036900003DB14BF012300232370237863B10021CF
:1036A0000C20FEF723F82178154D262005F0C4FBE9
:1036B000002F3FF4B1ACDBE50B4B0C20D97AFEF7C1
:1036C00015F8F0E7D816FF1FB432FF1F640D010094
:1036D0009860FF1FA425FF1FC016FF1FC916FF1FFC
:1036E0008425FF1FDD4FFF1FA416FF1F0463FF1F6C
:1036F000A025FF1F0461FF1F703EFF1FF116FF1F73
:103700000F63FF1F38B52248224C07F06BFB83B2D2
:103710005A1E5B2A238020D8C0B2FEF763F81E48E9
:1037200082681ABB4FF0FF312078FFF7ABFB0546EC
:1037300004211A4806F09AFD2188194807F02AF951
:103740000121184806F092FD2946154807F022F994
:103750001348BDE8384007F0B7B81721124806F003
:1037600085FD0F48BDE8384007F0AEB807F03AFBDA
:103770000E4A0F4B11681B68884203DB98420146D2
:10378000A8BF194600222078FFF77CFB0546CFE74B
:10379000743FFF1FFA62FF1F4C3EFF1F141E010003
:1037A000B432FF1F941101001C1E0100B462FF1F00
:1037B000E816FF1F10B50D4C0D4923780D4883F016
:1037C0000103237007F0D0F923783BB90A490B486D
:1037D00007F0CAF9BDE81040FFF794BF0849074851
:1037E00007F0C2F9BDE81040FFF78CBF0563FF1F6B
:1037F000341E0100743FFF1F381E01004C3EFF1FA6
:10380000D411010010B519210A4806F02FFD0A480D
:1038100007F05AF801240521084806F027FD012287
:10382000E0B24FF0FF311444FFF72CFB5D2CF2D1D6
:1038300010BD00BF681E0100B432FF1F601E0100F2
:10384000F0B58B4887B001F0B5FC8A4801F0B2FCB6
:10385000894B1868FEF722FD0123024603218748A1
:1038600001F0B2FA002840F0FB802121844806F0E4
:10387000FDFC844807F028F800218048824D00F0C4
:10388000FFFF44F63E1005F01DFC4FF480717F48A9
:1038900007F0D2F814217E4807F0CEF87D4804F0F6
:1038A000EBF8FEF713FC0C2005F010FA7A4804F050
:1038B000C7F8012004F0D2F8FCF784FF774B697B4E
:1038C0002869049300240123122713260593224616
:1038D0002346039400940297019601F0F5FF2B69AB
:1038E0006F4844F620620721C3F8782204F098FA62
:1038F00003216C4804F094FAE5B201222946684895
:10390000144404F07FFA29460122664804F07AFA4A
:10391000102CF1D14FF6FF716148634E04F0B4FAF8
:103920004FF6FF715F4804F0AFFAFDF7EBFDFDF7CE
:103930002BFEFDF76FFE5D495D4801F0A5FC5D497A
:103940005B4801F0A3FC5C49594801F0A1FC5B49CC
:10395000574801F09FFC5A49554801F09DFC4FF42F
:10396000FA61534801F08EFCFA21514801F088FCBD
:103970004920FFF7C9F80124E5B200224FF0FF31DA
:103980002846FFF77FFA83B2013419462846012200
:103990003380FFF777FA5D2CEED1FEF739FC494F03
:1039A000494B4A4A19684A4D002423463846009438
:1039B00003F052FA474B00941968444A23462846BC
:1039C00003F04AFA444A13791460012043F2482173
:1039D000034364F34103785468541371042422466A
:1039E0003D49384803F0D0F9224601343A49384875
:1039F000E4B203F0C9F9102CF1D1384B384C9A7B62
:103A0000082142F001029A73D973FDF703FE44F6D0
:103A10003E1005F057FB4FF4807005F0C7FB43F2F2
:103A2000D40005F01BFD05F0ABFD4EF65F222D49DD
:103A30002D4806F08FFE2D4A2D4801235C2103708E
:103A4000116023603380FDF773FF2A490F4807F0A8
:103A50008BF8FEF7BDFD07B0BDE8F040FEF71CBADD
:103A60001D21254806F002FC064806F02DFF03E75D
:103A7000BC25FF1FFC25FF1FEC16FF1F3050FF1F4A
:103A8000B4130100B432FF1F4064FF1F4C3EFF1F00
:103A9000743FFF1F383DFF1FD1050000801A06004C
:103AA000A862FF1FA462FF1FFA62FF1F251A000011
:103AB000F04FFF1F39060000B53700006D0400000D
:103AC0003D0600006864FF1FCC16FF1F38CAFF1FA9
:103AD0005097FF1FD016FF1F303DFF1F4850FF1F9C
:103AE000B462FF1F91040000BC62FF1FE816FF1FB5
:103AF0000F61FF1FD4110100D81301002DE9F04F11
:103B0000A94897B003F00CFB002840F0BF81A74FF5
:103B1000DFF8D082A64803F003FB002840F0928132
:103B2000DFF8C492DFF818A39AF80030002B40F0B9
:103B3000EC8005F0E1FC002840F01F819D4B1B78D4
:103B4000002B7ED19C4B1B785BB13B689B4A0A9350
:103B50009B490A9B10680968944C1B1A994240F2D1
:103B6000B581984B1B785BB13B68974A0D93116800
:103B70000D9B8E485B1A41F288318B4200F2A58082
:103B8000FCF7E2FE06F048FB012803DD06F044FBEB
:103B9000FF2877DD8D4801F0EDFB8D4A137C012B6A
:103BA00040F2E68172B6D36862B68A4908689842E4
:103BB00012D0894804689C423DDC72B6D46062B67B
:103BC00003680B60854A1278002A2BD0844A194674
:103BD00010780122FFF756F93B680F93D8F80020C0
:103BE0000F9B72487F499B1AC72B00F282803B686B
:103BF0001193D9F80020119B6C487B499B1AC72B65
:103C00000DD97A4B026812921B78129A0A60002B27
:103C100034D1774A19461370022005F00DF917B018
:103C2000BDE8F08F6E4CD8B201224FF0FF312380F7
:103C3000FFF728F9D0E76F4804689C42BDDA0B60B3
:103C4000C0E76D4B07931B78002B3FF47BAF6B4CA9
:103C500005F00CF9236840F27E42C01A90427FF6CC
:103C600071AF674B1D78002D00F057810022654E23
:103C70001A70079A00233370137063E75C4B0121BD
:103C80001970C9E778232C2212A85F4906F0AAFE12
:103C900012A95E4806F060FF12A806F0C5FE782360
:103CA0000A2212A8584906F09DFE12A9584806F0AB
:103CB00053FF12A806F0B8FE544807F093F8002806
:103CC00040F3B081FFF71EFD64E7524900680968C0
:103CD000514B0E9053F821300E99116000220121B2
:103CE000197583F834101A639A63DA6383F85D20D8
:103CF00046E703681093109B484A0B60012319465E
:103D00000520137005F098F871E7454C454D464E77
:103D1000464823462A46314601F0E0F800287FF461
:103D200008AF4348316802682B78424D21F060416A
:103D3000561C2960EB7306605BB1013B54FA83F0BB
:103D400005F10F02631E13F8011F02F8011F8342E1
:103D5000F9D1394B049693E803008DE80300012262
:103D60004FF0FF330392029395E80F00FEF7B4F88B
:103D700005F0C2FB00283FF4E1AE224E1F4C35781F
:103D800005F0CAFB2D4B585505F070F83378094AF9
:103D900019491278206001333370012307910B70A9
:103DA000002A7FF455AFCDE66864FF1F8CCAFF1F61
:103DB0005097FF1FDC4FFF1FD862FF1F0061FF1FDE
:103DC0009C25FF1FC816FF1FF462FF1FF04FFF1F47
:103DD0005C3EFF1F0861FF1FE816FF1F2C3DFF1F01
:103DE000FA62FF1FCC62FF1F1063FF1F0563FF1FF6
:103DF000493EFF1FB462FF1F0E63FF1FD462FF1F07
:103E0000D416FF1F0D61FF1FB432FF1F743FFF1F49
:103E10004C3EFF1FC862FF1F8050FF1FB825FF1FC9
:103E20007850FF1FC462FF1FAC62FF1F3050FF1F9E
:103E3000903FFF1F1061FF1F2061FF1F483DFF1FC4
:103E40007962FF1FA84CA948DFF81093214603F0C0
:103E50008BF9A74AA7491368386809900978099827
:103E6000C9F8000001331360002940F0CA80A24B5A
:103E70001B78002B3FF456AEA04A137883F0010361
:103E800019460220137004F0D7FF4BE6964C9C486D
:103E90009C4FDFF8CC82214603F066F99A4A9B4991
:103EA00038681368089009780898C8F8000001334A
:103EB0001360002940F09480954A137883F0010341
:103EC00019460520137004F0B7FF23E623680C930E
:103ED0000C9B90481360062106F0C8F922688E4BAF
:103EE0000B920B9A1B688D4C8D498E48D21A06F0A6
:103EF00003FD651D422001E014F9010FC0B204F07A
:103F000091F989490246874806F0F6FCA542F3D1AB
:103F10000121864806F0AAF923E603F0BDFC044619
:103F200004F0A4FF824B834E1B688349C31A2246C8
:103F30007C4806F0E1FC3378002B00F09080DFF83D
:103F400024B22C461BF8012F7C497648144406F015
:103F5000D3FC32780135AA42E4B2F3DC002C7ED0E7
:103F60001021774806F082F96E4806F0ADFC80E635
:103F700072B61368506819780478507A137A04423C
:103F800001EA030173D0937A03F0030309B143F00C
:103F9000040343F008039910013B91720D2B3FF687
:103FA00002AE01A151F823F09D40000095400000B1
:103FB0008D40000095400000A73B000085400000B8
:103FC0009D4000009D40000085400000A73B000090
:103FD000954000008D400000954000009D4000008D
:103FE00004F1100292E803008DE8030000254FF071
:103FF000FF3204930395029294E80F00FDF76CFFE3
:104000005AE704F1100292E803008DE803000493DC
:1040100002224FF0FF330392029394E80F00FDF762
:104020005BFF24E7474912A806F03EFD12A9464867
:1040300006F04EFE044612A806F0F6FCFCB9434911
:1040400012A806F031FD12A93F4806F041FE0446D1
:1040500012A806F0E9FC2CB3FEF780F99AE50221DC
:104060003B4806F003F92F4806F02EFC01E6937A50
:1040700003F0030300298ED043F004038BE7FCF721
:10408000EFFD87E5D368023BD3608DE5D36802334B
:10409000D36089E5D368013BD36085E5D3680133FC
:1040A000D36081E52B4912A806F0FEFC12A9264830
:1040B00006F00EFE044612A806F0B6FC14B1FEF798
:1040C0009FF967E5244912A806F0EEFC12A91E48E4
:1040D00006F0FEFD044612A806F0A6FC002C43D014
:1040E000FEF7E0F956E500BF1061FF1F5097FF1F74
:1040F0008C3FFF1F7A62FF1F0563FF1F493EFF1FB2
:104100006864FF1F8CCAFF1F883FFF1F7862FF1F74
:10411000B825FF1FD01E0100D44FFF1F082001004B
:10412000D81E0100B432FF1FE01E0100082201006A
:10413000DC62FF1F0D61FF1F9C1E0100B41E010009
:10414000BC1E0100E41E0100743FFF1FE81E0100B9
:10415000B01E0100EC1E0100F01E01001063FF1FE5
:10416000CC62FF1F473DFF1FA44912A806F09CFC2C
:1041700012A9A34806F0ACFD044612A806F054FCB0
:1041800014B1FEF7E9F905E59E4912A806F08CFC8A
:1041900012A99B4806F09CFD044612A806F044FCB8
:1041A00014B1FEF715FAF5E4974912A806F07CFC65
:1041B00012A9934806F08CFD044612A806F034FCC0
:1041C00014B1FDF783FFE5E4904912A806F06CFCFA
:1041D00012A98B4806F07CFD054612A806F024FCC7
:1041E00045B18B4806F0FEFD00288A4B1ADD0122FE
:1041F0001A70CFE4884912A806F056FC12A980482C
:1042000006F066FD044612A806F00EFC6CB180486C
:1042100006F0E8FD0028C6BF01238AF800308AF8BE
:104220000050B7E400221A70B4E47C4912A806F0EA
:104230003BFC12A9724806F04BFD054612A806F099
:10424000F3FB3DB1724806F0CDFD0028744BCEDC87
:104250001C709FE4734912A806F026FC12A9684856
:1042600006F036FD044612A806F0DEFB14B1FDF799
:1042700083F88FE46C4912A806F016FC12A9604876
:1042800006F026FD044612A806F0CEFB14B1FCF79A
:104290001DFD7FE4654912A806F006FC12A95848E6
:1042A00006F016FD044612A806F0BEFB14B1FCF79A
:1042B000DFFF6FE45E4912A806F0F6FB12A9504832
:1042C00006F006FD044612A806F0AEFB14B1FDF799
:1042D00029F85FE4574912A806F0E6FB12A94848FE
:1042E00006F0F6FC044612A806F09EFB14B1FCF79B
:1042F000E5FF4FE4504912A806F0D6FB12A940484A
:1043000006F0E6FC044612A806F08EFB14B1FDF799
:104310002FFF3FE4494912A806F0C6FB12A938480E
:1043200006F0D6FC044612A806F07EFB14B1FDF799
:104330004FFF2FE4424912A806F0B6FB12A93048FD
:1043400006F0C6FC044612A806F06EFB14B1FDF799
:1043500075FF1FE43B4912A806F0A6FB12A92848E6
:1043600006F0B6FC044612A806F05EFB14B1FFF797
:1043700049FA0FE4344912A806F096FB12A9204826
:1043800006F0A6FC044612A806F04EFB1CB1FEF790
:1043900075F9FFF7FFBB2D4912A806F085FB12A99E
:1043A000174806F095FC044612A806F03DFB1CB128
:1043B000FCF7AEFCFFF7EEBB254912A806F074FB34
:1043C00012A90F4806F084FC044612A806F02CFB44
:1043D0001CB1FCF7E1FCFFF7DDBB1E4912A806F09B
:1043E00063FB12A9064806F073FC044612A806F007
:1043F0001BFB8CB3FCF7ACFCFFF7CCBBF81E010039
:10440000743FFF1FFC1E0100041F0100081F010074
:104410004C3EFF1F7862FF1F0C1F0100101F0100A0
:104420007A62FF1F141F0100181F01001C1F0100EA
:10443000241F0100301F01003C1F0100441F010028
:10444000501F0100541F0100B01E0100581F010041
:10445000601F0100681F0100524912A806F024FBEA
:1044600012A9514806F034FC044612A806F0DCFA02
:104470001CB1FEF733F9FFF78DBB4C4912A806F0CB
:1044800013FB12A9484806F023FC044612A806F0C4
:10449000CBFA1CB1FDF782FAFFF77CBB444912A8A6
:1044A00006F002FB12A9404806F012FC044612A8CE
:1044B00006F0BAFA1CB1FCF781FCFFF76BBB3D4973
:1044C00012A806F0F1FA12A9374806F001FC0446DA
:1044D00012A806F0A9FA1CB1FDF7A6FAFFF75ABB1D
:1044E000354912A806F0E0FA12A92F4806F0F0FBB1
:1044F000044612A806F098FA1CB1FDF7CDFCFFF7B0
:1045000049BB2E4912A806F0CFFA12A9264806F098
:10451000DFFB044612A806F087FA1CB1FDF7A6FDE2
:10452000FFF738BB264912A806F0BEFA12A91E48AA
:1045300006F0CEFB044612A806F076FA44B103F06A
:10454000ABF920490246204806F0D6F9FFF722BB16
:104550001E4912A806F0A8FA12A9134806F0B8FBE3
:10456000044612A806F060FA1CB1FCF79DF9FFF7AB
:1045700011BB174912A806F097FA12A90A4806F0CB
:10458000A7FB044612A806F04FFA1CB1FCF7B4F9D9
:10459000FFF700BB0F490C48FCF7ECF805F04AFEAA
:1045A000FFF7F8BA701F0100743FFF1F781F01006A
:1045B000801F0100841F01008C1F0100941F010057
:1045C0009C1F0100A41F0100B432FF1FBC1F01008B
:1045D000B81F0100C01F010010B500210446C07CB7
:1045E00004F02AFC094B1A684FF00041C023D16245
:1045F0005363D36A002BFCDAE07C936B012104F057
:104600001BFC0120BDE8104004F054BCBC25FF1F7A
:1046100038B504460D46C07C002104F00DFC114B5A
:104620001B684FF000410322D9625A63DA6A002AFC
:10463000FCDA4FF00042996BDA625D63DA6A002AB5
:10464000FCDA4FF000415522986BD9625A63DA6A5E
:10465000002AFCDA9D6BE07C012104F0EDFBE8B25E
:1046600038BD00BFBC25FF1F2DE9F0411A4F05469C
:104670008846C07C002114461E4604F0DDFB3968E4
:104680004FF000420323CA624B63CA6A002AFCDA75
:104690004FF000438A6BCB62C1F83480CA6A002AAB
:1046A000FCDA8B6B96B1701E54FA80F0621E4FF0EC
:1046B00000465524CE624C63CB6A002BFCDA8B6B30
:1046C00002F8013F824201D03968F3E7E87C01211A
:1046D000BDE8F04104F0B0BBBC25FF1F70B5044637
:1046E0000E46C07C0021154604F0A6FB114B1B684A
:1046F0004FF000410222D9625A63D96A0029FCDADC
:104700004FF00042996BDA625E63D96A0029FCDAE5
:104710004FF00042996BDA625D63DA6A002AFCDAD4
:10472000E07C9B6B012104F087FB43F69823013B5F
:10473000FDD170BDBC25FF1FF8B505460F46C07CF6
:10474000002114461E4604F077FB164B19684FF003
:1047500000420223CA624B63CA6A002AFCDA4FF0A5
:1047600000438A6BCB624F63CA6A002AFCDA8B6B08
:104770007EB1701E54FA80F0621E4FF0004412F8B1
:10478000013FCC624B63CB6A002BFCDA82428B6B1D
:10479000F5D1E87C012104F04FFB43F69823013B5F
:1047A000FDD1F8BDBC25FF1FF8B504460F46C07CFF
:1047B000002116461D4604F03FFB164B19684FF0CA
:1047C00000420523CA624B63C86A0028FCDA4FF036
:1047D00000438A6BCB624F63C86A0028FCDA4FF053
:1047E00000438A6BCB624E63CA6A002AFCDA4FF040
:1047F00000438A6BCB624D63CB6A002BFCDA8B6B78
:10480000E07C012104F018FB43F69823013BFDD125
:10481000F8BD00BFBC25FF1F38B500210446C07C91
:1048200004F00AFB0C4B1B684FF00041A022D96238
:104830005A63DA6A002AFCDA4FF000415522986B7D
:10484000D9625A63DA6A002AFCDA9D6BE07C0121A6
:1048500004F0F2FAE8B238BDBC25FF1F38B5E022FB
:104860000B460C4605460F21FFF79EFF28460F21F9
:10487000FFF7CEFE00F0E000001B18BF012038BD9E
:104880000175FFF7EBBF00BF70B5032A3DD8DFE825
:1048900002F0322518020C2937D18325E426412362
:1048A0001A4604462A21FFF719FF324620462921DD
:1048B000FFF714FF20462A462821FFF70FFF0020AC
:1048C00070BD01390E2920D8DFE801F0789C94985A
:1048D00084888C90A4A8ACB07C80A00001390E29FB
:1048E00013D8DFE801F0386748124C5054401444A4
:1048F000575B5F633C000639082906D8DFE801F002
:104900000B170F1F072327131B00012070BD8725DE
:10491000FA260323C4E78725FF260923C0E7872556
:10492000FF260423BCE78725FA260023B8E787255E
:10493000FA260923B4E78225D9260023B0E7872584
:10494000FA260423ACE78725FF260123A8E786255E
:10495000FB264123A4E78725FF263F23A0E78325E5
:10496000E12640239CE78725FF26032398E7862539
:10497000F026032394E78725FF260F2390E785255C
:10498000F1264E238CE78725FF26072388E7872516
:10499000FA2685E78725FA26012381E78525F12672
:1049A00041237DE78625F026002379E78225D0265E
:1049B000002375E78725FF261F2371E78725BF267C
:1049C0001F236DE782259026002369E780252E4668
:1049D000002365E78525E226472361E78725BF2673
:1049E00003235DE78625B426032359E78725BF26E1
:1049F000012355E78725BF26072351E78425A426F1
:104A000007234DE78725BF260F2349E78125C826C1
:104A1000002345E78625B426012341E78525B126F5
:104A200001233DE78625B426002339E78525B126F5
:104A3000002335E730B5012A83B012D0C3F3CC048C
:104A400000225B018DF804408DF805308DF80720B9
:104A50008DF8062004230DEB0302FFF76DFE03B073
:104A600030BD1A0CD40024F01F0502F003042C44BE
:104A700044F008041D1252118DF807308DF80650CD
:104A80008DF805408DF80420E4E700BF30B5012A19
:104A900083B04FEA134211D054011D12D2108DF889
:104AA00007308DF806508DF805408DF8042004235A
:104AB0000DEB0302FFF740FE03B030BDD40024F03D
:104AC0001F0502F003042C4444F008041D12521187
:104AD0008DF807308DF806508DF805408DF80420CC
:104AE000E5E700BF38B50122054600232021FFF786
:104AF000CDFF2846002301222421FFF7C7FF002312
:104B0000194628460122FFF7C1FF00231A4628460E
:104B10000421FFF7BBFF2846002301220821FFF7ED
:104B2000B5FF00231A4628461021FFF7AFFF28469D
:104B3000002301221421FFF7A9FF002328461A466B
:104B40001821FFF7A3FF3024214600222846FFF753
:104B5000C5FD04F11001C9B200222846FFF7BEFDD1
:104B600004F120010134C9B200222846E4B2FFF763
:104B7000B5FD3E2CE8D1284600226021FFF7AEFDAE
:104B8000284600227021BDE83840FFF7A7BD00BFCE
:104B90002DE9F04104460E4617469846FFF71CFDE6
:104BA0004023237520468021FFF758FE054698BB19
:104BB00029212A4805F05AFB424639462046FFF78C
:104BC00063FE10BB1E21264805F050FB2046FFF770
:104BD00089FF03222B212046FFF780FD56B3032EC9
:104BE00021D164231A4660212046FFF7DDFD6023B2
:104BF0001A4670212046FFF7D7FD217D2046FFF79A
:104C00002DFE054618BBBDE8F0811D21154805F0B5
:104C10002DFB2846BDE8F0812821134805F026FB2E
:104C20002846BDE8F0811D21104805F01FFB01203A
:104C3000BDE8F0812046042364226021FFF7B4FD23
:104C40003346602270212046FFF7AEFDD5E72721CD
:104C5000074805F00BFB2846BDE8F0814020010025
:104C60008C2001006C20010014200100AC20010008
:104C7000CC20010030B51C46154683B00022042329
:104C80002A7022600DEB0302FFF7EEFC9DF8053061
:104C90009DF804105A1102EBC102190722600ED5CB
:104CA00003F003039DF806009DF8071003EB820351
:104CB00000EB032301EB0323012223602A7003B0DE
:104CC00030BD00BF70B504460D460531037A00F1D2
:104CD0000902C9B2FFF730FD637C227A012B08BFBD
:104CE00042F0400205F1040108BF22722046C9B219
:104CF000FFF7F4FC2946636822782046BDE870403F
:104D0000FFF798BE70B5031D02460D460446FFF737
:104D1000B1FF691EC9B22046FFF77AFC291D06467D
:104D2000C9B22046FFF774FC06F00803207273B97D
:104D300003F0FF02627400F00F03691D237204F197
:104D400009022046C9B2BDE87040FFF78DBC0123BF
:104D50006374F0E72DE9F041134B82B088461A885E
:104D60009B78ADF80420002188F8001006468DF8E5
:104D7000063001AC0DF1070714F8015B30462946F7
:104D8000FFF746FC00F0080303F0FF002BB1BC4224
:104D9000F2D1022002B0BDE8F081013588F8005060
:104DA00002B0BDE8F08100BF1020010010B504463C
:104DB000C1740846012104F053F8E07C012104F09D
:104DC0003BF8204610BD00BFF8B504460D46164618
:104DD0001F46064800F0EEF93B463246294620467B
:104DE000FFF7D6FE003018BF0120F8BDBC25FF1F1D
:104DF00030B5054683B0002401E0322C0AD00DF115
:104E000007012846FFF7A6FF01340228A4B2F4D018
:104E1000322C02D1062003B030BD9DF80710284681
:104E2000FFF750FF9DF8071008230139C9B21A4651
:104E30002846FFF7B9FC002401E0322C10D09DF881
:104E400007100139C9B22846FFF7E2FB0134030716
:104E5000A4B2F2D4322C0CBF0720002003B030BD26
:104E6000072003B030BD00BF70B4039D416004460D
:104E700000260270467400F1100104F8083F6B1E12
:104E800013F8012F04F8012F8C42F9D170BCFFF701
:104E9000AFBF00BF38B50546FFF7BEFC10F00104F8
:104EA00003D183070DD4042038BD28466121FFF7C4
:104EB00029FF2846002301222C21FFF775FC002042
:104EC00038BD28467121FFF71DFF284623460222E0
:104ED0002C21FFF769FC204638BD00BFF8B50F460E
:104EE00016461C460546FFF7D5FF04281AD02B7836
:104EF000CBB96B686A7C12B143F080436B603B6056
:104F00002B7A33702B7A5BB1631E05F10801002206
:104F100011F8010F03F8010F287A01329042F7DCF3
:104F20000020F8BDF8BD6B6843F000436B60E1E71B
:104F300010B4047F4160022CC26003D05DF8044BC2
:104F400005F01ABB83685DF8044B1847F0B4464B74
:104F5000464A986B5C6B01791170454922790A7059
:104F60001A6B00790870002A46D05968C9688A42CD
:104F70003ED82168CC8B240402F1FF3065D4C0F305
:104F80000E00C883C88B80B2C882996B0968C88B31
:104F9000000452D4C2F30E00C883C88B002480B230
:104FA00012F1FF32C88218BF01221C63596B2E48D0
:104FB00009680D6800F12C04A54236D00068C46869
:104FC00014F0804F0C680D6815BF248824780235D2
:104FD000013544F000440D604463996B254B097919
:104FE0001970214912B14A6B12791A70F0BC7047DE
:104FF000521A1A630122D9E7D86B196805681E4C4A
:105000000A63CC62CC682D681C4E24F080440327D0
:10501000B542CC6083F82D701FD1037F4260022B14
:10502000C2601ED0F0BC05F0A7BA016890F82C0051
:10503000CC6840F000404863CFE7CC8BC2F3080057
:1050400004F47E442043C883A7E7CC8BC0F3080058
:1050500004F47E442043C88394E72B461146F0BCF9
:1050600018478368F0BC1847FC25FF1F1F800040CD
:105070001C8000401B80004000000FFF314F0000EB
:10508000F0B4464B464A986B5C6B01791170454908
:1050900022790A701A6B00790870002A46D0596884
:1050A000C9688A423ED82168CC8B240402F1FF30C3
:1050B00065D4C0F30E00C883C88B80B2C882996BD8
:1050C0000968C88B000452D4C2F30E00C883C88B91
:1050D000002480B212F1FF32C88218BF01221C6383
:1050E000596B2E4809680D6800F12C04A54236D092
:1050F0000068C46814F0804F0C680D6815BF2488E0
:1051000024780235013544F000440D604463996B06
:10511000254B09791970214912B14A6B12791A701D
:10512000F0BC7047521A1A630122D9E7D86B19688C
:1051300005681E4C0A63CC62CC682D681C4E24F0B6
:1051400080440327B542CC6083F82D701FD1037FC4
:105150004260022BC2601ED0F0BC05F00DBA01689F
:1051600090F82C00CC6840F000404863CFE7CC8B2F
:10517000C2F3080004F47E442043C883A7E7CC8B25
:10518000C0F3080004F47E442043C88394E72B4610
:105190001146F0BC18478368F0BC1847BC25FF1FB8
:1051A0001F8000401C8000401B80004000000FFF5B
:1051B000314F000090E80C00F0B41C685968256875
:1051C000164F174E29432160164D17491760D660B8
:1051D00015611160417A154A5C180C3194F82C4025
:1051E00053F8215002EBC40149680D60017A5C1844
:1051F00003EB8101247ECD6902EBC40149680D6097
:10520000817A581803EB810390F84000596C02EB47
:10521000C002F0BC53681960704700BF01401F0016
:10522000011000380110007800001F8018260100CE
:10523000F8B504460025084632274FF416764FF499
:105240007A7184E88100A660E1602575A561E56159
:1052500025626562A562E56225633AB125614BB9B5
:105260001946C0B203F0FCFD2046F8BD01222261C0
:10527000002BF5D0C0B2022103F0F2FD2046F8BDAC
:1052800081607047C160704781617047C16170473C
:105290004162704781627047C162704730B5344ADD
:1052A000036B126883B00192019D2BB911B10123E8
:1052B0004563036303B030BD012B04460ED0022BBF
:1052C0002FD0032B1FD0062BF4D100294AD0C36A5C
:1052D00001220275002BEDD09847EBE7002938D06A
:1052E000426BC168AA1A8A42E4D9026A037502B104
:1052F0009047636A03B19847E36A03B1984706236E
:10530000A5632363D6E70029D4D1436B4268EB1A27
:105310009342CFD9C36903B198470023A5632363A0
:10532000C8E7C3697BB1436B8268EB1A93420AD822
:105330000029BFD0836B4268EB1A9342BAD903238A
:1053400045630363B6E7A36903B19847002323636A
:10535000B0E7436B4268EB1A9342F7D302238563AD
:105360000363A7E7836A0175002BD5D1D5E700BF9A
:105370008CCAFF1F0368002B0EDB10B50446D8B2A1
:1053800003F060FD2169091AB1FA81F1204649094B
:10539000BDE81040FFF782BF704700BF0020704794
:1053A0000369D3F83801D3F83431C01A704700BF0D
:1053B0000369D3F83411D3F83821914208D2D3F8D5
:1053C0003421511C1A44C3F8341192F8300070474C
:1053D0004FF0FF30704700BF0369D3F83411D3F8A2
:1053E000382191423DBFD3F834219B1893F8300007
:1053F0004FF0FF30704700BF704700BF0369D3F81C
:105400004422B2F5817F03D9012303710020704744
:10541000D3F8442210B49C180132C3F8442284F813
:105420003C1101205DF8044B704700BF38B503699B
:105430000A4A026093F84822022A044601D0204614
:1054400038BDD3F87452002DF9D0284605F078F80D
:105450002846082105F0D6FC204638BD3C23010033
:1054600038B503690546D3F84402B0F5817F1AD8F0
:105470001446D3F84422D3F84402C2F581720132B3
:1054800003F59E73A242184402D2012314462B71E5
:10549000224602F01BFD2A69D2F844322344C2F8A6
:1054A0004432204638BD01232B71002038BD00BF97
:1054B0002DE9F04F464C83B00D46924699469DF833
:1054C00030709DF834800646A34623460021022210
:1054D00004E0043120292ED013F8042F9542F8D18E
:1054E0005A785245F5D196F84A2259449245CB78DC
:1054F00024D01BB3B8F1000F0BD096F84C2296F8CD
:105500004A020193002A14BF0221002103F0A8FCE3
:10551000019B1B0203F4E063002F3BD043F0030325
:105520002C4A02EBCA0201205268136086F84AA294
:1055300086F84C7206E096F84A320023B8F1000F64
:10554000E7D000200022022304E00432202A24D0E5
:1055500014F8043F9D42F8D1A3784B45F5D196F855
:105560004B325A449945D4781AD0CCB1B8F1000FD7
:1055700019D096F84C3296F84B02002B14BF02213A
:10558000002103F06DFC230203F4E06387B143F0D4
:1055900003030FE043F06403C2E796F84B320024A4
:1055A000B8F1000F10D1230203F4E063002FEED115
:1055B00043F06403074A02EBC902012052681360FA
:1055C00086F84B9286F84C7203B0BDE8F08F00BFAE
:1055D0005823010018260100F8B5C3681B789B0604
:1055E00010D483680D4680211970C3681221197088
:1055F00090F84932012B044606D08AB980F8482237
:105600000120F8BD0020F8BD1A4675B9794B4FF05E
:1056100080711960022A0FD0012084F84802F8BD79
:10562000531E012BF1D90120F8BD012D4BD1714B37
:105630004FF000711960EDE7D4F87462002E00F0AD
:1056400097803379202B30D0002D43D132686A49BE
:10565000938B6A4F9BB243F00803938332795311C3
:1056600002F110009B0041F8207003F1604303F544
:105670006143012102F01F0201FA02F231681A604F
:105680008B8B9BB243F002038B83337903F180430E
:1056900003F5043392221D701A700022022384F84D
:1056A0005E2284F848320120F8BD304604F048FFFD
:1056B0003046082105F0A6FB00230120C4F874320F
:1056C00084F84802F8BD022D5DD14D4B4FF4806146
:1056D00019609FE7012D26D132684749938B494FC6
:1056E0009BB243F0080393833279531102F1100007
:1056F0009B0041F8207003F1604303F5614302F021
:105700001F02954032681D60938B9BB243F00203E9
:105710009383337903F1804303F50433002193220B
:1057200019701A70B9E7022D35D1D4F874123248C5
:105730000A68354E938B9BB243F0080393830A7932
:10574000531102F110059B0040F8256003F16043FE
:1057500003F56143012002F01F0200FA02F208681B
:105760001A60838B9BB243F0020383830B79D1E7EA
:10577000082005F045FB314607463E4604F07AFE18
:10578000C4F874725DE7032D7FF444AF1C4B4FF0F7
:10579000006119603EE7032D7FF47FAFD4F87412E7
:1057A00015480A68194E938B9BB243F00803938304
:1057B0000A79531102F110059B0040F8256003F1AE
:1057C000604303F56143012002F01F0200FA02F278
:1057D00008681A60838B9BB243F0020383830B79C2
:1057E00003F1804303F504330021922219701A70EB
:1057F00053E700BF00E100E00002FF1F8D680000DA
:1058000008E100E099680000A5680000B1680000A8
:10581000F0B5284EDFF8ACE0A6FB0143A6FB024240
:105820009E0937027546960914240023B7FBF6F645
:1058300004E00133372B1BD055F8044F2202964267
:10584000F7DA83BB14241C4A4568B1FBF4F4914297
:105850002B70C0F8504207D8184B8269A3FB013166
:10586000C1F307511170F0BD836904221A70F0BDB5
:10587000002422464FF470274FF470654FF0360C29
:10588000B21AF71B002A87EAE776A6EBE776B8BFDD
:105890005242964202DD0A4AD35CD4E7084B2C46BA
:1058A00013F80C30CFE703F1FF3C5EF82C502F02C9
:1058B000E6E700BFD34D6210FF6BDC02819F5E16EE
:1058C000582401007C2301002DE9F04182B00446F8
:1058D00094469DF820609DF824209DF828009DF8AE
:1058E0002CE09DF834700D46002948D1DFF808817E
:1058F000D8F8001041F04001C8F80010002184F8E9
:1059000049C284F85512BCF1000F27D163692021E8
:10591000197012B994F84A22D2B210B994F84B0215
:10592000C0B200210346CDF800E00191204629468F
:10593000FFF7BEFD0C9A2F492046FFF769FF3A4654
:1059400029462046FFF748FE94F84932002B37D00D
:10595000A368C0221A7002B0BDE8F0816169CEB1BF
:105960004FF0280C81F800C0B34221682ED25B00B2
:10597000DBB20B707600E369F6B21E70C9E701294D
:1059800013D1DFF87480D8F8001041F08001C8F816
:105990000010B3E74FF0200C81F800C021685B00D5
:1059A000DBB20B70E3691E70B3E7022916D1DFF892
:1059B0004C80D8F8001041F04001C8F800109DE775
:1059C000A36880221A7002B0BDE8F0817600F6B2BA
:1059D0000E705E00E369F6B21E709AE703298DD15E
:1059E000DFF81880D8F8001041F08001C8F80010E6
:1059F00084E700BF0087930334800440288004407C
:105A00002DE9F041154682B004460F46984603F052
:105A10002DFA0DB9D4F8785203F028FAA3681A7851
:105A2000920606460AD5B4221A7094F84832013B11
:105A3000012B35D9012002B0BDE8F08155BBE368E8
:105A40001B7803F0200303F0FF02002BF6D1A368BC
:105A500084F84922B0221A70A3681B7803F020034F
:105A600003F0FF00002BE0D1062384F85532D4F870
:105A70009032013304D0D4F890320133C4F890321C
:105A8000D4F87032002BD6D001909847019802B01C
:105A9000BDE8F08103F0EAF9801B8542CFD8DBE74F
:105AA00002F0E6FD032F03D8DFE807F002110E1421
:105AB000194B1B788342BDDB0F2829DD032F0CD83F
:105AC000DFE807F00B191220144B1B78F2E7144B98
:105AD0001B78EFE7134B1B78ECE7A0F110030E4A9D
